{"contracts/base/BaseERC721_updated.sol":{"TCG_World_Plots_Updated":{"abi":[{"inputs":[],"stateMutability":"nonpayable","type":"constructor"},{"inputs":[],"name":"AccessControlBadConfirmation","type":"error"},{"inputs":[{"internalType":"address","name":"account","type":"address"},{"internalType":"bytes32","name":"neededRole","type":"bytes32"}],"name":"AccessControlUnauthorizedAccount","type":"error"},{"inputs":[{"internalType":"uint256","name":"numerator","type":"uint256"},{"internalType":"uint256","name":"denominator","type":"uint256"}],"name":"ERC2981InvalidDefaultRoyalty","type":"error"},{"inputs":[{"internalType":"address","name":"receiver","type":"address"}],"name":"ERC2981InvalidDefaultRoyaltyReceiver","type":"error"},{"inputs":[{"internalType":"uint256","name":"tokenId","type":"uint256"},{"internalType":"uint256","name":"numerator","type":"uint256"},{"internalType":"uint256","name":"denominator","type":"uint256"}],"name":"ERC2981InvalidTokenRoyalty","type":"error"},{"inputs":[{"internalType":"uint256","name":"tokenId","type":"uint256"},{"internalType":"address","name":"receiver","type":"address"}],"name":"ERC2981InvalidTokenRoyaltyReceiver","type":"error"},{"inputs":[{"internalType":"address","name":"sender","type":"address"},{"internalType":"uint256","name":"tokenId","type":"uint256"},{"internalType":"address","name":"owner","type":"address"}],"name":"ERC721IncorrectOwner","type":"error"},{"inputs":[{"internalType":"address","name":"operator","type":"address"},{"internalType":"uint256","name":"tokenId","type":"uint256"}],"name":"ERC721InsufficientApproval","type":"error"},{"inputs":[{"internalType":"address","name":"approver","type":"address"}],"name":"ERC721InvalidApprover","type":"error"},{"inputs":[{"internalType":"address","name":"operator","type":"address"}],"name":"ERC721InvalidOperator","type":"error"},{"inputs":[{"internalType":"address","name":"owner","type":"address"}],"name":"ERC721InvalidOwner","type":"error"},{"inputs":[{"internalType":"address","name":"receiver","type":"address"}],"name":"ERC721InvalidReceiver","type":"error"},{"inputs":[{"internalType":"address","name":"sender","type":"address"}],"name":"ERC721InvalidSender","type":"error"},{"inputs":[{"internalType":"uint256","name":"tokenId","type":"uint256"}],"name":"ERC721NonexistentToken","type":"error"},{"inputs":[],"name":"EnforcedPause","type":"error"},{"inputs":[],"name":"ErrorAddressZero","type":"error"},{"inputs":[],"name":"ErrorBlockedAddress","type":"error"},{"inputs":[],"name":"ErrorNotTokenOwner","type":"error"},{"inputs":[],"name":"ErrorSameValue","type":"error"},{"inputs":[{"internalType":"uint256","name":"itemId","type":"uint256"},{"internalType":"uint256","name":"unlockTime","type":"uint256"}],"name":"ErrorTokenRecentlyTransferred","type":"error"},{"inputs":[{"internalType":"uint256","name":"_array1Length","type":"uint256"},{"internalType":"uint256","name":"_array2Length","type":"uint256"}],"name":"ErrorUnequalArrayLengths","type":"error"},{"inputs":[],"name":"ExpectedPause","type":"error"},{"inputs":[],"name":"InvalidInitialization","type":"error"},{"inputs":[],"name":"NotInitializing","type":"error"},{"inputs":[],"name":"ReentrancyGuardReentrantCall","type":"error"},{"anonymous":false,"inputs":[{"indexed":true,"internalType":"address","name":"owner","type":"address"},{"indexed":true,"internalType":"address","name":"approved","type":"address"},{"indexed":true,"internalType":"uint256","name":"tokenId","type":"uint256"}],"name":"Approval","type":"event"},{"anonymous":false,"inputs":[{"indexed":true,"internalType":"address","name":"owner","type":"address"},{"indexed":true,"internalType":"address","name":"operator","type":"address"},{"indexed":false,"internalType":"bool","name":"approved","type":"bool"}],"name":"ApprovalForAll","type":"event"},{"anonymous":false,"inputs":[{"indexed":false,"internalType":"address[]","name":"receivers","type":"address[]"},{"indexed":false,"internalType":"uint256[]","name":"tokenIds","type":"uint256[]"},{"indexed":false,"internalType":"uint256[]","name":"itemIds","type":"uint256[]"},{"indexed":false,"internalType":"uint256[]","name":"userItemIds","type":"uint256[]"},{"indexed":false,"internalType":"uint64","name":"timestamp","type":"uint64"}],"name":"BatchMigrated","type":"event"},{"anonymous":false,"inputs":[{"indexed":false,"internalType":"address[]","name":"receivers","type":"address[]"},{"indexed":false,"internalType":"uint256[]","name":"tokenIds","type":"uint256[]"},{"indexed":false,"internalType":"uint256[]","name":"itemIds","type":"uint256[]"},{"indexed":false,"internalType":"uint64","name":"timestamp","type":"uint64"}],"name":"BatchMinted","type":"event"},{"anonymous":false,"inputs":[{"indexed":false,"internalType":"address[]","name":"receivers","type":"address[]"},{"indexed":false,"internalType":"uint256[]","name":"tokenIds","type":"uint256[]"},{"indexed":false,"internalType":"uint64","name":"timestamp","type":"uint64"}],"name":"BatchTransferred","type":"event"},{"anonymous":false,"inputs":[{"indexed":true,"internalType":"address","name":"user","type":"address"},{"indexed":false,"internalType":"bool","name":"isBlocked","type":"bool"}],"name":"BlocklistStatusUpdated","type":"event"},{"anonymous":false,"inputs":[{"indexed":true,"internalType":"address","name":"owner","type":"address"},{"indexed":false,"internalType":"uint256","name":"token_id","type":"uint256"},{"indexed":false,"internalType":"uint64","name":"timestamp","type":"uint64"}],"name":"Burned","type":"event"},{"anonymous":false,"inputs":[{"indexed":false,"internalType":"uint64","name":"version","type":"uint64"}],"name":"Initialized","type":"event"},{"anonymous":false,"inputs":[{"indexed":true,"internalType":"address","name":"marketplaceAddress","type":"address"},{"indexed":false,"internalType":"bool","name":"status","type":"bool"}],"name":"MarketplaceStatusUpdate","type":"event"},{"anonymous":false,"inputs":[{"indexed":false,"internalType":"address","name":"receiver","type":"address"},{"indexed":false,"internalType":"uint256","name":"tokenId","type":"uint256"},{"indexed":false,"internalType":"uint256","name":"itemId","type":"uint256"},{"indexed":false,"internalType":"uint256","name":"userItemId","type":"uint256"},{"indexed":false,"internalType":"uint64","name":"timestamp","type":"uint64"}],"name":"Migrated","type":"event"},{"anonymous":false,"inputs":[{"indexed":true,"internalType":"address","name":"receiver","type":"address"},{"indexed":true,"internalType":"uint256","name":"tokenId","type":"uint256"},{"indexed":true,"internalType":"uint256","name":"itemId","type":"uint256"},{"indexed":false,"internalType":"uint64","name":"timestamp","type":"uint64"}],"name":"Minted","type":"event"},{"anonymous":false,"inputs":[{"indexed":false,"internalType":"address","name":"account","type":"address"}],"name":"Paused","type":"event"},{"anonymous":false,"inputs":[{"indexed":true,"internalType":"bytes32","name":"role","type":"bytes32"},{"indexed":true,"internalType":"bytes32","name":"previousAdminRole","type":"bytes32"},{"indexed":true,"internalType":"bytes32","name":"newAdminRole","type":"bytes32"}],"name":"RoleAdminChanged","type":"event"},{"anonymous":false,"inputs":[{"indexed":true,"internalType":"bytes32","name":"role","type":"bytes32"},{"indexed":true,"internalType":"address","name":"account","type":"address"},{"indexed":true,"internalType":"address","name":"sender","type":"address"}],"name":"RoleGranted","type":"event"},{"anonymous":false,"inputs":[{"indexed":true,"internalType":"bytes32","name":"role","type":"bytes32"},{"indexed":true,"internalType":"address","name":"account","type":"address"},{"indexed":true,"internalType":"address","name":"sender","type":"address"}],"name":"RoleRevoked","type":"event"},{"anonymous":false,"inputs":[{"indexed":true,"internalType":"address","name":"from","type":"address"},{"indexed":true,"internalType":"address","name":"to","type":"address"},{"indexed":true,"internalType":"uint256","name":"tokenId","type":"uint256"}],"name":"Transfer","type":"event"},{"anonymous":false,"inputs":[{"indexed":false,"internalType":"address","name":"oldValidator","type":"address"},{"indexed":false,"internalType":"address","name":"newValidator","type":"address"}],"name":"TransferValidatorUpdated","type":"event"},{"anonymous":false,"inputs":[{"indexed":false,"internalType":"address","name":"account","type":"address"}],"name":"Unpaused","type":"event"},{"inputs":[],"name":"DEFAULT_ADMIN_ROLE","outputs":[{"internalType":"bytes32","name":"","type":"bytes32"}],"stateMutability":"view","type":"function"},{"inputs":[],"name":"MANAGER_ROLE","outputs":[{"internalType":"bytes32","name":"","type":"bytes32"}],"stateMutability":"view","type":"function"},{"inputs":[],"name":"PAUSER_ROLE","outputs":[{"internalType":"bytes32","name":"","type":"bytes32"}],"stateMutability":"view","type":"function"},{"inputs":[],"name":"UPGRADER_ROLE","outputs":[{"internalType":"bytes32","name":"","type":"bytes32"}],"stateMutability":"view","type":"function"},{"inputs":[{"internalType":"address","name":"to","type":"address"},{"internalType":"uint256","name":"tokenId","type":"uint256"}],"name":"approve","outputs":[],"stateMutability":"nonpayable","type":"function"},{"inputs":[{"internalType":"address","name":"owner","type":"address"}],"name":"balanceOf","outputs":[{"internalType":"uint256","name":"","type":"uint256"}],"stateMutability":"view","type":"function"},{"inputs":[{"internalType":"uint256[]","name":"_tokenIds","type":"uint256[]"}],"name":"batchBurn","outputs":[],"stateMutability":"nonpayable","type":"function"},{"inputs":[{"internalType":"address","name":"_owner","type":"address"},{"internalType":"uint256[]","name":"_tokenIds","type":"uint256[]"}],"name":"batchBurnFrom","outputs":[],"stateMutability":"nonpayable","type":"function"},{"inputs":[{"internalType":"address[]","name":"_receivers","type":"address[]"},{"internalType":"uint256[]","name":"_itemIds","type":"uint256[]"},{"internalType":"uint256[]","name":"_userItemIds","type":"uint256[]"}],"name":"batchMigrate","outputs":[],"stateMutability":"nonpayable","type":"function"},{"inputs":[{"internalType":"address[]","name":"_receivers","type":"address[]"},{"internalType":"uint256[]","name":"_itemIds","type":"uint256[]"}],"name":"batchMint","outputs":[],"stateMutability":"nonpayable","type":"function"},{"inputs":[{"internalType":"address","name":"_receiver","type":"address"},{"internalType":"uint256","name":"_tokenId","type":"uint256"},{"internalType":"uint256","name":"_itemId","type":"uint256"}],"name":"bridgeMint","outputs":[],"stateMutability":"nonpayable","type":"function"},{"inputs":[{"internalType":"uint256","name":"_tokenId","type":"uint256"}],"name":"burn","outputs":[],"stateMutability":"nonpayable","type":"function"},{"inputs":[{"internalType":"address","name":"_owner","type":"address"},{"internalType":"uint256","name":"_tokenId","type":"uint256"}],"name":"burnFrom","outputs":[],"stateMutability":"nonpayable","type":"function"},{"inputs":[{"internalType":"uint256","name":"tokenId","type":"uint256"}],"name":"getApproved","outputs":[{"internalType":"address","name":"","type":"address"}],"stateMutability":"view","type":"function"},{"inputs":[{"internalType":"bytes32","name":"role","type":"bytes32"}],"name":"getRoleAdmin","outputs":[{"internalType":"bytes32","name":"","type":"bytes32"}],"stateMutability":"view","type":"function"},{"inputs":[{"internalType":"uint256","name":"_tokenId","type":"uint256"}],"name":"getTokenItemID","outputs":[{"internalType":"uint256","name":"","type":"uint256"}],"stateMutability":"view","type":"function"},{"inputs":[],"name":"getTransferValidationFunction","outputs":[{"internalType":"bytes4","name":"","type":"bytes4"},{"internalType":"bool","name":"","type":"bool"}],"stateMutability":"pure","type":"function"},{"inputs":[],"name":"getTransferValidator","outputs":[{"internalType":"address","name":"","type":"address"}],"stateMutability":"view","type":"function"},{"inputs":[{"internalType":"bytes32","name":"role","type":"bytes32"},{"internalType":"address","name":"account","type":"address"}],"name":"grantRole","outputs":[],"stateMutability":"nonpayable","type":"function"},{"inputs":[{"internalType":"bytes32","name":"role","type":"bytes32"},{"internalType":"address","name":"account","type":"address"}],"name":"hasRole","outputs":[{"internalType":"bool","name":"","type":"bool"}],"stateMutability":"view","type":"function"},{"inputs":[{"internalType":"address","name":"_manager","type":"address"},{"internalType":"address","name":"_pauser","type":"address"},{"internalType":"address","name":"_upgrader","type":"address"},{"internalType":"address","name":"_royaltyReceiver","type":"address"},{"internalType":"address","name":"_initialValidator","type":"address"},{"internalType":"string","name":"_name","type":"string"},{"internalType":"string","name":"_symbol","type":"string"},{"internalType":"uint64","name":"_lockDuration","type":"uint64"}],"name":"initialize","outputs":[],"stateMutability":"nonpayable","type":"function"},{"inputs":[{"internalType":"address","name":"owner","type":"address"},{"internalType":"address","name":"operator","type":"address"}],"name":"isApprovedForAll","outputs":[{"internalType":"bool","name":"","type":"bool"}],"stateMutability":"view","type":"function"},{"inputs":[{"internalType":"address","name":"_user","type":"address"}],"name":"isBlocklisted","outputs":[{"internalType":"bool","name":"","type":"bool"}],"stateMutability":"view","type":"function"},{"inputs":[{"internalType":"uint256","name":"_tokenId","type":"uint256"}],"name":"isTokenRecentlyTransferred","outputs":[{"internalType":"bool","name":"","type":"bool"}],"stateMutability":"view","type":"function"},{"inputs":[{"internalType":"address","name":"_marketplace","type":"address"}],"name":"isWhitelisted","outputs":[{"internalType":"bool","name":"","type":"bool"}],"stateMutability":"view","type":"function"},{"inputs":[],"name":"lockDuration","outputs":[{"internalType":"uint64","name":"","type":"uint64"}],"stateMutability":"view","type":"function"},{"inputs":[{"internalType":"address","name":"_receiver","type":"address"},{"internalType":"uint256","name":"_itemId","type":"uint256"},{"internalType":"uint256","name":"_userItemId","type":"uint256"}],"name":"migrate","outputs":[],"stateMutability":"nonpayable","type":"function"},{"inputs":[{"internalType":"address","name":"_receiver","type":"address"},{"internalType":"uint256","name":"_itemId","type":"uint256"}],"name":"mint","outputs":[{"internalType":"uint256","name":"","type":"uint256"}],"stateMutability":"nonpayable","type":"function"},{"inputs":[],"name":"name","outputs":[{"internalType":"string","name":"","type":"string"}],"stateMutability":"view","type":"function"},{"inputs":[{"internalType":"uint256","name":"tokenId","type":"uint256"}],"name":"ownerOf","outputs":[{"internalType":"address","name":"","type":"address"}],"stateMutability":"view","type":"function"},{"inputs":[],"name":"pause","outputs":[],"stateMutability":"nonpayable","type":"function"},{"inputs":[],"name":"paused","outputs":[{"internalType":"bool","name":"","type":"bool"}],"stateMutability":"view","type":"function"},{"inputs":[{"internalType":"bytes32","name":"role","type":"bytes32"},{"internalType":"address","name":"callerConfirmation","type":"address"}],"name":"renounceRole","outputs":[],"stateMutability":"nonpayable","type":"function"},{"inputs":[{"internalType":"uint256","name":"tokenId","type":"uint256"}],"name":"resetTokenRoyalty","outputs":[],"stateMutability":"nonpayable","type":"function"},{"inputs":[{"internalType":"bytes32","name":"role","type":"bytes32"},{"internalType":"address","name":"account","type":"address"}],"name":"revokeRole","outputs":[],"stateMutability":"nonpayable","type":"function"},{"inputs":[{"internalType":"uint256","name":"tokenId","type":"uint256"},{"internalType":"uint256","name":"salePrice","type":"uint256"}],"name":"royaltyInfo","outputs":[{"internalType":"address","name":"receiver","type":"address"},{"internalType":"uint256","name":"amount","type":"uint256"}],"stateMutability":"view","type":"function"},{"inputs":[{"internalType":"address[]","name":"_receivers","type":"address[]"},{"internalType":"uint256[]","name":"_tokenIds","type":"uint256[]"}],"name":"safeBatchTransfer","outputs":[],"stateMutability":"nonpayable","type":"function"},{"inputs":[{"internalType":"uint256","name":"_tokenId","type":"uint256"}],"name":"safeOwnerOf","outputs":[{"internalType":"address","name":"","type":"address"}],"stateMutability":"view","type":"function"},{"inputs":[{"internalType":"address","name":"_receiver","type":"address"},{"internalType":"uint256","name":"_tokenId","type":"uint256"}],"name":"safeTransfer","outputs":[],"stateMutability":"nonpayable","type":"function"},{"inputs":[{"internalType":"address","name":"from","type":"address"},{"internalType":"address","name":"to","type":"address"},{"internalType":"uint256","name":"tokenId","type":"uint256"}],"name":"safeTransferFrom","outputs":[],"stateMutability":"nonpayable","type":"function"},{"inputs":[{"internalType":"address","name":"from","type":"address"},{"internalType":"address","name":"to","type":"address"},{"internalType":"uint256","name":"tokenId","type":"uint256"},{"internalType":"bytes","name":"data","type":"bytes"}],"name":"safeTransferFrom","outputs":[],"stateMutability":"nonpayable","type":"function"},{"inputs":[{"internalType":"address","name":"operator","type":"address"},{"internalType":"bool","name":"approved","type":"bool"}],"name":"setApprovalForAll","outputs":[],"stateMutability":"nonpayable","type":"function"},{"inputs":[{"internalType":"string","name":"_newURI","type":"string"}],"name":"setBaseURI","outputs":[],"stateMutability":"nonpayable","type":"function"},{"inputs":[{"internalType":"address","name":"receiver","type":"address"},{"internalType":"uint96","name":"feeNumerator","type":"uint96"}],"name":"setRoyaltyInfo","outputs":[],"stateMutability":"nonpayable","type":"function"},{"inputs":[{"internalType":"uint256","name":"tokenId","type":"uint256"},{"internalType":"address","name":"receiver","type":"address"},{"internalType":"uint96","name":"feeNumerator","type":"uint96"}],"name":"setTokenRoyalty","outputs":[],"stateMutability":"nonpayable","type":"function"},{"inputs":[{"internalType":"address","name":"validator","type":"address"}],"name":"setTransferValidator","outputs":[],"stateMutability":"nonpayable","type":"function"},{"inputs":[{"internalType":"bytes4","name":"_interfaceId","type":"bytes4"}],"name":"supportsInterface","outputs":[{"internalType":"bool","name":"","type":"bool"}],"stateMutability":"view","type":"function"},{"inputs":[],"name":"symbol","outputs":[{"internalType":"string","name":"","type":"string"}],"stateMutability":"view","type":"function"},{"inputs":[],"name":"tcgBaseURI","outputs":[{"internalType":"string","name":"","type":"string"}],"stateMutability":"view","type":"function"},{"inputs":[{"internalType":"uint256","name":"_tokenId","type":"uint256"}],"name":"tokenURI","outputs":[{"internalType":"string","name":"","type":"string"}],"stateMutability":"view","type":"function"},{"inputs":[{"internalType":"address","name":"from","type":"address"},{"internalType":"address","name":"to","type":"address"},{"internalType":"uint256","name":"tokenId","type":"uint256"}],"name":"transferFrom","outputs":[],"stateMutability":"nonpayable","type":"function"},{"inputs":[],"name":"unpause","outputs":[],"stateMutability":"nonpayable","type":"function"},{"inputs":[{"internalType":"address","name":"_user","type":"address"},{"internalType":"bool","name":"_isBlocked","type":"bool"}],"name":"updateBlockListStatus","outputs":[],"stateMutability":"nonpayable","type":"function"},{"inputs":[{"internalType":"uint64","name":"_lockDuration","type":"uint64"}],"name":"updateLockDuration","outputs":[],"stateMutability":"nonpayable","type":"function"},{"inputs":[{"internalType":"address","name":"_marketplaceAddress","type":"address"},{"internalType":"bool","name":"_isWhitelisted","type":"bool"}],"name":"updateWhitelist","outputs":[],"stateMutability":"nonpayable","type":"function"}],"evm":{"bytecode":{"linkReferences":{},"object":"60806040523480156200001157600080fd5b506200001c62000022565b620000d6565b7ff0c57e16840df040f15088dc2f81fe391c3923bec73e23a9662efc9c229c6a00805468010000000000000000900460ff1615620000735760405163f92ee8a960e01b815260040160405180910390fd5b80546001600160401b0390811614620000d35780546001600160401b0319166001600160401b0390811782556040519081527fc7f505b2f371ae2175ee4913f4499e1f2633a7b5936321eed1cdaeb6115181d29060200160405180910390a15b50565b613b3080620000e66000396000f3fe608060405234801561001057600080fd5b506004361061035d5760003560e01c8063684c655a116101d3578063a9fc664e11610104578063e63ab1e9116100a2578063f24729651161007c578063f2472965146107b8578063f310f60e146107cb578063f72c0d8b146107de578063fc22d0e51461080557600080fd5b8063e63ab1e91461077b578063e985e9c514610790578063ec87621c146107a357600080fd5b8063c87b56dd116100de578063c87b56dd1461072f578063ce97419314610742578063d547741f14610755578063dc8e92ea1461076857600080fd5b8063a9fc664e146106f6578063b6df490614610709578063b88d4fde1461071c57600080fd5b80638a616bc01161017157806395d89b411161014b57806395d89b41146106c0578063a217fddf146106c8578063a22cb465146106d0578063a5d0c352146106e357600080fd5b80638a616bc01461066e5780638e204c431461068157806391d14854146106ad57600080fd5b806379cc6790116101ad57806379cc6790146106205780637dbe416514610633578063827157b3146106535780638456cb591461066657600080fd5b8063684c655a146105f257806368573107146105fa57806370a082311461060d57600080fd5b8063248a9ca3116102ad578063423f6cef1161024b57806355f804b31161022557806355f804b3146105a15780635944c753146105b45780635c975abb146105c75780636352211e146105df57600080fd5b8063423f6cef1461056857806342842e0e1461057b57806342966c681461058e57600080fd5b806336568abe1161028757806336568abe1461050e5780633af32abf146105215780633f4ba83a1461054d57806340c10f191461055557600080fd5b8063248a9ca3146104a85780632a55205a146104c95780632f2ff15d146104fb57600080fd5b8063098144d41161031a5780630d705df6116102f45780630d705df61461045457806314dc43fc1461046f5780632069c98f1461048257806323b872dd1461049557600080fd5b8063098144d41461041d5780630d178d5d1461042e5780630d392cd91461044157600080fd5b806301ffc9a71461036257806302fa7c471461038a578063045544431461039f57806306fdde03146103ca578063081812fc146103df578063095ea7b31461040a575b600080fd5b610375610370366004612e3d565b610818565b60405190151581526020015b60405180910390f35b61039d610398366004612e8d565b610829565b005b6003546103b2906001600160401b031681565b6040516001600160401b039091168152602001610381565b6103d2610843565b6040516103819190612f10565b6103f26103ed366004612f23565b6108e7565b6040516001600160a01b039091168152602001610381565b61039d610418366004612f3c565b6108fc565b6000546001600160a01b03166103f2565b61039d61043c36600461303a565b61090b565b61039d61044f366004613101565b610b67565b6040805163657711f560e11b81526001602082015201610381565b61039d61047d366004613181565b610c1f565b61039d6104903660046131ec565b610d12565b61039d6104a3366004613207565b610d6f565b6104bb6104b6366004612f23565b610df4565b604051908152602001610381565b6104dc6104d7366004613243565b610e16565b604080516001600160a01b039093168352602083019190915201610381565b61039d610509366004613265565b610edd565b61039d61051c366004613265565b610ef9565b61037561052f366004613288565b6001600160a01b031660009081526005602052604090205460ff1690565b61039d610f2c565b6104bb610563366004612f3c565b610f4f565b61039d610576366004612f3c565b611027565b61039d610589366004613207565b611052565b61039d61059c366004612f23565b61106d565b61039d6105af3660046132a3565b611110565b61039d6105c23660046132d7565b6111d9565b600080516020613abb8339815191525460ff16610375565b6103f26105ed366004612f23565b6111ef565b6103d26111fa565b61039d610608366004613181565b611288565b6104bb61061b366004613288565b61145d565b61039d61062e366004612f3c565b6114b9565b6104bb610641366004612f23565b60009081526007602052604090205490565b61039d610661366004613313565b611586565b61039d61164f565b61039d61067c366004612f23565b61166f565b61037561068f366004613288565b6001600160a01b031660009081526004602052604090205460ff1690565b6103756106bb366004613265565b6116ab565b6103d26116e3565b6104bb600081565b61039d6106de366004613101565b611722565b61039d6106f13660046133d8565b61172d565b61039d610704366004613288565b6118e3565b6103f2610717366004612f23565b611958565b61039d61072a3660046134bb565b611963565b6103d261073d366004612f23565b61197b565b61039d610750366004613101565b6119d9565b61039d610763366004613265565b611a7b565b61039d610776366004613536565b611a97565b6104bb600080516020613a7b83398151915281565b61037561079e36600461356a565b611b77565b6104bb600080516020613a5b83398151915281565b61039d6107c6366004613594565b611bed565b6103756107d9366004612f23565b611cee565b6104bb7f189ab7a9244df0848122154315af71fe140f3db0fe014031783b0946b8c9d2e381565b61039d610813366004613313565b611cf9565b600061082382611d84565b92915050565b600061083481611da9565b61083e8383611db3565b505050565b600080516020613a3b8339815191528054606091908190610863906135e1565b80601f016020809104026020016040519081016040528092919081815260200182805461088f906135e1565b80156108dc5780601f106108b1576101008083540402835291602001916108dc565b820191906000526020600020905b8154815290600101906020018083116108bf57829003601f168201915b505050505091505090565b60006108f282611e76565b5061082382611eae565b610907828233611ee8565b5050565b6000610915611ef5565b805490915060ff600160401b82041615906001600160401b031660008115801561093c5750825b90506000826001600160401b031660011480156109585750303b155b905081158015610966575080155b156109845760405163f92ee8a960e01b815260040160405180910390fd5b845467ffffffffffffffff1916600117855583156109ae57845460ff60401b1916600160401b1785555b6001600160a01b038d1615806109cb57506001600160a01b038c16155b806109dd57506001600160a01b038b16155b156109fa5760405162858bcd60e11b815260040160405180910390fd5b610a048888611f1e565b610a0c611f30565b610a14611f3a565b610a1c611f30565b610a24611f30565b610a2f600033611f4a565b50610a48600080516020613a5b8339815191528e611f4a565b50610a61600080516020613a7b8339815191528d611f4a565b50610a8c7f189ab7a9244df0848122154315af71fe140f3db0fe014031783b0946b8c9d2e38c611f4a565b506003805467ffffffffffffffff19166001600160401b038816179055600080546001600160a01b0319166001600160a01b038b16179055610ad08a6101f4611db3565b60408051600081526001600160a01b038b1660208201527fcc5dc080ff977b3c3a211fa63ab74f90f658f5ba9d3236e92c8f59570f442aac910160405180910390a18315610b5857845460ff60401b19168555604051600181527fc7f505b2f371ae2175ee4913f4499e1f2633a7b5936321eed1cdaeb6115181d29060200160405180910390a15b50505050505050505050505050565b600080516020613a5b833981519152610b7f81611da9565b6001600160a01b03831660009081526005602052604090205460ff16151582151503610bbe57604051634749b1bf60e01b815260040160405180910390fd5b6001600160a01b038316600081815260056020908152604091829020805460ff191686151590811790915591519182527f2b53a43b3d9a43074cd182e5310eacab92155b7c524d3b45363c0b3acda60c9891015b60405180910390a2505050565b610c27611fef565b82818114610c57576040516355b5ee2b60e11b815260048101859052602481018390526044015b60405180910390fd5b60005b81811015610cc357610cbb33878784818110610c7857610c7861361b565b9050602002016020810190610c8d9190613288565b868685818110610c9f57610c9f61361b565b9050602002013560405180602001604052806000815250612039565b600101610c5a565b507feb6aef011166339e703c40eb14619fb2383dd626a9045c4b37d74b4497fd20068585858542604051610cfb9594939291906136aa565b60405180910390a150610d0c612044565b50505050565b6000610d1d81611da9565b6003546001600160401b03808416911603610d4b57604051634749b1bf60e01b815260040160405180910390fd5b506003805467ffffffffffffffff19166001600160401b0392909216919091179055565b6001600160a01b038216610d9957604051633250574960e11b815260006004820152602401610c4e565b6000610da683833361206a565b9050836001600160a01b0316816001600160a01b031614610d0c576040516364283d7b60e01b81526001600160a01b0380861660048301526024820184905282166044820152606401610c4e565b6000908152600080516020613a9b833981519152602052604090206001015490565b60008281527fdaedc9ab023613a7caf35e703657e986ccfad7e3eb0af93a2853f8d65dd86b0160205260408120805482917fdaedc9ab023613a7caf35e703657e986ccfad7e3eb0af93a2853f8d65dd86b00916001600160a01b03811690600160a01b90046001600160601b031681610ea957505081546001600160a01b03811690600160a01b90046001600160601b03165b6000612710610ec16001600160601b0384168a613703565b610ecb919061371a565b929650919450505050505b9250929050565b610ee682610df4565b610eef81611da9565b610d0c8383611f4a565b6001600160a01b0381163314610f225760405163334bd91960e11b815260040160405180910390fd5b61083e82826121b6565b600080516020613a7b833981519152610f4481611da9565b610f4c612232565b50565b6000600080516020613a5b833981519152610f6981611da9565b610f71611fef565b6001600160a01b03841660009081526004602052604090205460ff1615610fab57604051630e20c14560e41b815260040160405180910390fd5b6000610fb685612292565b60008181526007602090815260409182902087905590516001600160401b0342168152919250859183916001600160a01b038916917fe12b57e28e06a581b8eebaedeed24926d3f834d55ac97a24b6ab3c2df87fc8da910160405180910390a49150611020612044565b5092915050565b61102f611fef565b61104a33838360405180602001604052806000815250612039565b610907612044565b61083e83838360405180602001604052806000815250611963565b611075611fef565b3361107f826111ef565b6001600160a01b0316146110a65760405163b866139760e01b815260040160405180910390fd5b6110af816122b5565b60008181526006602052604090819020805467ffffffffffffffff19169055513390600080516020613adb8339815191529061110090849042909182526001600160401b0316602082015260400190565b60405180910390a2610f4c612044565b600061111b81611da9565b6111af826001805461112c906135e1565b80601f0160208091040260200160405190810160405280929190818152602001828054611158906135e1565b80156111a55780601f1061117a576101008083540402835291602001916111a5565b820191906000526020600020905b81548152906001019060200180831161118857829003601f168201915b50505050506122f0565b156111cd57604051634749b1bf60e01b815260040160405180910390fd5b600161083e8382613784565b60006111e481611da9565b610d0c848484612315565b600061082382611e76565b60018054611207906135e1565b80601f0160208091040260200160405190810160405280929190818152602001828054611233906135e1565b80156112805780601f1061125557610100808354040283529160200191611280565b820191906000526020600020905b81548152906001019060200180831161126357829003601f168201915b505050505081565b600080516020613a5b8339815191526112a081611da9565b6112a8611fef565b836000816001600160401b038111156112c3576112c3612f66565b6040519080825280602002602001820160405280156112ec578160200160208202803683370190505b50905060005b8281101561140a57600460008989848181106113105761131061361b565b90506020020160208101906113259190613288565b6001600160a01b0316815260208101919091526040016000205460ff166113e15761137588888381811061135b5761135b61361b565b90506020020160208101906113709190613288565b612292565b8282815181106113875761138761361b565b6020026020010181815250508585828181106113a5576113a561361b565b90506020020135600760008484815181106113c2576113c261361b565b6020026020010151815260200190815260200160002081905550611402565b60008282815181106113f5576113f561361b565b6020026020010181815250505b6001016112f2565b507f3cf1c15ecfa6e152e879a5bcaeb4a2dba10b2a6967f515ec5074db04c995ce3887878388884260405161144496959493929190613874565b60405180910390a15050611456612044565b5050505050565b6000600080516020613a3b8339815191526001600160a01b038316611498576040516322718ad960e21b815260006004820152602401610c4e565b6001600160a01b039092166000908152600390920160205250604090205490565b600080516020613a5b8339815191526114d181611da9565b6114d9611fef565b826001600160a01b03166114ec836111ef565b6001600160a01b0316146115135760405163b866139760e01b815260040160405180910390fd5b61151c826122b5565b60008281526006602052604090819020805467ffffffffffffffff19169055516001600160a01b03841690600080516020613adb8339815191529061157690859042909182526001600160401b0316602082015260400190565b60405180910390a261083e612044565b600080516020613a5b83398151915261159e81611da9565b6115a6611fef565b6001600160a01b03841660009081526004602052604090205460ff16156115e057604051630e20c14560e41b815260040160405180910390fd5b6115ea84846123fa565b60008381526007602090815260409182902084905590516001600160401b0342168152839185916001600160a01b038816917fe12b57e28e06a581b8eebaedeed24926d3f834d55ac97a24b6ab3c2df87fc8da910160405180910390a4610d0c612044565b600080516020613a7b83398151915261166781611da9565b610f4c61245f565b600061167a81611da9565b5060009081527fdaedc9ab023613a7caf35e703657e986ccfad7e3eb0af93a2853f8d65dd86b016020526040812055565b6000918252600080516020613a9b833981519152602090815260408084206001600160a01b0393909316845291905290205460ff1690565b7f80bb2b638cc20bc4d0a60d66940f3ab4a00c1d7b313497ca82fb0b4ab00793018054606091600080516020613a3b83398151915291610863906135e1565b6109073383836124a8565b600080516020613a5b83398151915261174581611da9565b61174d611fef565b83516000816001600160401b0381111561176957611769612f66565b604051908082528060200260200182016040528015611792578160200160208202803683370190505b50905060005b8281101561189957600460008883815181106117b6576117b661361b565b6020908102919091018101516001600160a01b031682528101919091526040016000205460ff16611870576118038782815181106117f6576117f661361b565b6020026020010151612292565b8282815181106118155761181561361b565b6020026020010181815250508581815181106118335761183361361b565b6020026020010151600760008484815181106118515761185161361b565b6020026020010151815260200190815260200160002081905550611891565b60008282815181106118845761188461361b565b6020026020010181815250505b600101611798565b507faf70433c6f3cc58b715c1a4f68d21a6f5bad1bf0f0c510030f163acc0dbfe81e86828787426040516118d19594939291906138cc565b60405180910390a15050610d0c612044565b60006118ee81611da9565b600054604080516001600160a01b03928316815291841660208301527fcc5dc080ff977b3c3a211fa63ab74f90f658f5ba9d3236e92c8f59570f442aac910160405180910390a150600080546001600160a01b0319166001600160a01b0392909216919091179055565b600061082382612559565b61196e848484610d6f565b610d0c3385858585612593565b606060006119876126bd565b905060008151116119a757604051806020016040528060008152506119d2565b806119b18461274f565b6040516020016119c2929190613968565b6040516020818303038152906040525b9392505050565b60006119e481611da9565b6001600160a01b03831660009081526004602052604090205460ff16151582151503611a2357604051634749b1bf60e01b815260040160405180910390fd5b6001600160a01b038316600081815260046020908152604091829020805460ff191686151590811790915591519182527f285d30726c52fa6d937c831072c13afa1e31b5ec0c0c2c7ed72f48b59fa95e609101610c12565b611a8482610df4565b611a8d81611da9565b610d0c83836121b6565b611a9f611fef565b60005b8151811015611b6e576000828281518110611abf57611abf61361b565b60200260200101519050336001600160a01b0316611adc826111ef565b6001600160a01b031614611b035760405163b866139760e01b815260040160405180910390fd5b611b0c816122b5565b60008181526006602052604090819020805467ffffffffffffffff19169055513390600080516020613adb83398151915290611b5d90849042909182526001600160401b0316602082015260400190565b60405180910390a250600101611aa2565b50610f4c612044565b6001600160a01b03811660009081526005602052604081205460ff1615611ba057506001610823565b6001600160a01b0380841660009081527f80bb2b638cc20bc4d0a60d66940f3ab4a00c1d7b313497ca82fb0b4ab0079305602090815260408083209386168352929052205460ff166119d2565b600080516020613a5b833981519152611c0581611da9565b611c0d611fef565b60005b8251811015611ce5576000838281518110611c2d57611c2d61361b565b60200260200101519050846001600160a01b0316611c4a826111ef565b6001600160a01b031614611c715760405163b866139760e01b815260040160405180910390fd5b611c7a816122b5565b60008181526006602052604090819020805467ffffffffffffffff19169055516001600160a01b03861690600080516020613adb83398151915290611cd490849042909182526001600160401b0316602082015260400190565b60405180910390a250600101611c10565b5061083e612044565b6000610823826127e1565b600080516020613a5b833981519152611d1181611da9565b611d19611fef565b6000611d2485612292565b604080516001600160a01b038816815260208101839052908101869052606081018590526001600160401b03421660808201529091507f59db9be49e3b63e90a7323be2118fc3624ae08b1cb574647aa85887b8f3c3fba9060a001610cfb565b60006001600160e01b0319821663152a902d60e11b148061082357506108238261282e565b610f4c8133612853565b7fdaedc9ab023613a7caf35e703657e986ccfad7e3eb0af93a2853f8d65dd86b006127106001600160601b038316811015611e1357604051636f483d0960e01b81526001600160601b038416600482015260248101829052604401610c4e565b6001600160a01b038416611e3d57604051635b6cc80560e11b815260006004820152602401610c4e565b50604080518082019091526001600160a01b039093168084526001600160601b039092166020909301839052600160a01b909202179055565b600080611e8283612559565b90506001600160a01b03811661082357604051637e27328960e01b815260048101849052602401610c4e565b60009081527f80bb2b638cc20bc4d0a60d66940f3ab4a00c1d7b313497ca82fb0b4ab007930460205260409020546001600160a01b031690565b61083e838383600161288c565b6000807ff0c57e16840df040f15088dc2f81fe391c3923bec73e23a9662efc9c229c6a00610823565b611f266129a2565b61090782826129c7565b611f386129a2565b565b611f426129a2565b611f386129f8565b6000600080516020613a9b833981519152611f6584846116ab565b611fe5576000848152602082815260408083206001600160a01b03871684529091529020805460ff19166001179055611f9b3390565b6001600160a01b0316836001600160a01b0316857f2f8788117e7eff1d82e926ec794901d17c78024a50270940304540a733656f0d60405160405180910390a46001915050610823565b6000915050610823565b7f9b779b17422d0df92223018b32b4d1fa46e071723d6817e2486d003becc55f0080546001190161203357604051633ee5aeb560e01b815260040160405180910390fd5b60029055565b61196e848484612a00565b60017f9b779b17422d0df92223018b32b4d1fa46e071723d6817e2486d003becc55f0055565b6000612074612ab0565b600061207f84612559565b6001600160a01b03811660009081526004602052604090205490915060ff16156120bc57604051630e20c14560e41b815260040160405180910390fd5b6120c5846127e1565b80156120ea57506001600160a01b03811660009081526005602052604090205460ff16155b80156120fe57506001600160a01b03851615155b1561213f57600084815260066020526040908190205490516314efbc4d60e01b8152600481018690526001600160401b039091166024820152604401610c4e565b600061214c868686612ae1565b90506001600160a01b0382161580159061217f57506001600160a01b03861660009081526005602052604090205460ff16155b156121ad576000858152600660205260409020805467ffffffffffffffff1916426001600160401b03161790555b95945050505050565b6000600080516020613a9b8339815191526121d184846116ab565b15611fe5576000848152602082815260408083206001600160a01b0387168085529252808320805460ff1916905551339287917ff6391f5c32d9c69d2a47ea670b442974b53935d1edc7fd64eb21e047a839171b9190a46001915050610823565b61223a612beb565b600080516020613abb833981519152805460ff191681557f5db9ee0a495bf2e6ff9c91a7834c1ba4fdd244a5e8aa4e537bd38aeae4b073aa335b6040516001600160a01b03909116815260200160405180910390a150565b60028054600091826122a3836139a7565b909155505060025461082383826123fa565b60006122c4600083600061206a565b90506001600160a01b03811661090757604051637e27328960e01b815260048101839052602401610c4e565b6000815183511480156119d25750508051602091820120825192909101919091201490565b7fdaedc9ab023613a7caf35e703657e986ccfad7e3eb0af93a2853f8d65dd86b006127106001600160601b03831681101561237c5760405163dfd1fc1b60e01b8152600481018690526001600160601b038416602482015260448101829052606401610c4e565b6001600160a01b0384166123ad57604051634b4f842960e11b81526004810186905260006024820152604401610c4e565b506040805180820182526001600160a01b0394851681526001600160601b03938416602080830191825260009788526001909401909352942093519051909116600160a01b029116179055565b6001600160a01b03821661242457604051633250574960e11b815260006004820152602401610c4e565b60006124328383600061206a565b90506001600160a01b0381161561083e576040516339e3563760e11b815260006004820152602401610c4e565b612467612ab0565b600080516020613abb833981519152805460ff191660011781557f62e78cea01bee320cd4e420270b5ea74000d11b0c9f74754ebdbfc544b05a25833612274565b600080516020613a3b8339815191526001600160a01b0383166124e957604051630b61174360e31b81526001600160a01b0384166004820152602401610c4e565b6001600160a01b038481166000818152600584016020908152604080832094881680845294825291829020805460ff191687151590811790915591519182527f17307eab39ab6107e8899845ad3d59bd9653f200f220920489ca2b5937696c31910160405180910390a350505050565b60009081527f80bb2b638cc20bc4d0a60d66940f3ab4a00c1d7b313497ca82fb0b4ab007930260205260409020546001600160a01b031690565b6001600160a01b0383163b1561145657604051630a85bd0160e11b81526001600160a01b0384169063150b7a02906125d59088908890879087906004016139c0565b6020604051808303816000875af1925050508015612610575060408051601f3d908101601f1916820190925261260d918101906139fd565b60015b612679573d80801561263e576040519150601f19603f3d011682016040523d82523d6000602084013e612643565b606091505b50805160000361267157604051633250574960e11b81526001600160a01b0385166004820152602401610c4e565b805181602001fd5b6001600160e01b03198116630a85bd0160e11b146126b557604051633250574960e11b81526001600160a01b0385166004820152602401610c4e565b505050505050565b6060600180546126cc906135e1565b80601f01602080910402602001604051908101604052809291908181526020018280546126f8906135e1565b80156127455780601f1061271a57610100808354040283529160200191612745565b820191906000526020600020905b81548152906001019060200180831161272857829003601f168201915b5050505050905090565b6060600061275c83612c1b565b60010190506000816001600160401b0381111561277b5761277b612f66565b6040519080825280601f01601f1916602001820160405280156127a5576020820181803683370190505b5090508181016020015b600019016f181899199a1a9b1b9c1cb0b131b232b360811b600a86061a8153600a85049450846127af57509392505050565b6000818152600660205260408120546001600160401b031680158015906119d257506003546001600160401b034281169161281d911683613a1a565b6001600160401b0316119392505050565b60006001600160e01b03198216637965db0b60e01b1480610823575061082382612cf3565b61285d82826116ab565b6109075760405163e2517d3f60e01b81526001600160a01b038216600482015260248101839052604401610c4e565b600080516020613a3b83398151915281806128af57506001600160a01b03831615155b156129715760006128bf85611e76565b90506001600160a01b038416158015906128eb5750836001600160a01b0316816001600160a01b031614155b80156128fe57506128fc8185611b77565b155b156129275760405163a9fbf51f60e01b81526001600160a01b0385166004820152602401610c4e565b821561296f5784866001600160a01b0316826001600160a01b03167f8c5be1e5ebec7d5bd14f71427d1e84f3dd0314c0f7b2291e5b200ac8c7c3b92560405160405180910390a45b505b600093845260040160205250506040902080546001600160a01b0319166001600160a01b0392909216919091179055565b6129aa612d43565b611f3857604051631afcd79f60e31b815260040160405180910390fd5b6129cf6129a2565b600080516020613a3b833981519152806129e98482613784565b5060018101610d0c8382613784565b6120446129a2565b6001600160a01b038216612a2a57604051633250574960e11b815260006004820152602401610c4e565b6000612a388383600061206a565b90506001600160a01b038116612a6457604051637e27328960e01b815260048101839052602401610c4e565b836001600160a01b0316816001600160a01b031614610d0c576040516364283d7b60e01b81526001600160a01b0380861660048301526024820184905282166044820152606401610c4e565b600080516020613abb8339815191525460ff1615611f385760405163d93c066560e01b815260040160405180910390fd5b6000600080516020613a3b83398151915281612afc85612559565b90506001600160a01b03841615612b1857612b18818587612d5d565b6001600160a01b03811615612b5857612b3560008660008061288c565b6001600160a01b0381166000908152600383016020526040902080546000190190555b6001600160a01b03861615612b89576001600160a01b03861660009081526003830160205260409020805460010190555b600085815260028301602052604080822080546001600160a01b0319166001600160a01b038a811691821790925591518893918516917fddf252ad1be2c89b69c2b068fc378daa952ba7f163c4a11628f55a4df523b3ef91a495945050505050565b600080516020613abb8339815191525460ff16611f3857604051638dfc202b60e01b815260040160405180910390fd5b60008072184f03e93ff9f4daa797ed6e38ed64bf6a1f0160401b8310612c5a5772184f03e93ff9f4daa797ed6e38ed64bf6a1f0160401b830492506040015b6d04ee2d6d415b85acef81000000008310612c86576d04ee2d6d415b85acef8100000000830492506020015b662386f26fc100008310612ca457662386f26fc10000830492506010015b6305f5e1008310612cbc576305f5e100830492506008015b6127108310612cd057612710830492506004015b60648310612ce2576064830492506002015b600a83106108235760010192915050565b60006001600160e01b031982166380ac58cd60e01b1480612d2457506001600160e01b03198216635b5e139f60e01b145b8061082357506301ffc9a760e01b6001600160e01b0319831614610823565b6000612d4d611ef5565b54600160401b900460ff16919050565b612d68838383612dc1565b61083e576001600160a01b038316612d9657604051637e27328960e01b815260048101829052602401610c4e565b60405163177e802f60e01b81526001600160a01b038316600482015260248101829052604401610c4e565b60006001600160a01b03831615801590612e1f5750826001600160a01b0316846001600160a01b03161480612dfb5750612dfb8484611b77565b80612e1f5750826001600160a01b0316612e1483611eae565b6001600160a01b0316145b949350505050565b6001600160e01b031981168114610f4c57600080fd5b600060208284031215612e4f57600080fd5b81356119d281612e27565b80356001600160a01b0381168114612e7157600080fd5b919050565b80356001600160601b0381168114612e7157600080fd5b60008060408385031215612ea057600080fd5b612ea983612e5a565b9150612eb760208401612e76565b90509250929050565b60005b83811015612edb578181015183820152602001612ec3565b50506000910152565b60008151808452612efc816020860160208601612ec0565b601f01601f19169290920160200192915050565b6020815260006119d26020830184612ee4565b600060208284031215612f3557600080fd5b5035919050565b60008060408385031215612f4f57600080fd5b612f5883612e5a565b946020939093013593505050565b634e487b7160e01b600052604160045260246000fd5b604051601f8201601f191681016001600160401b0381118282101715612fa457612fa4612f66565b604052919050565b60006001600160401b03831115612fc557612fc5612f66565b612fd8601f8401601f1916602001612f7c565b9050828152838383011115612fec57600080fd5b828260208301376000602084830101529392505050565b600082601f83011261301457600080fd5b6119d283833560208501612fac565b80356001600160401b0381168114612e7157600080fd5b600080600080600080600080610100898b03121561305757600080fd5b61306089612e5a565b975061306e60208a01612e5a565b965061307c60408a01612e5a565b955061308a60608a01612e5a565b945061309860808a01612e5a565b935060a08901356001600160401b03808211156130b457600080fd5b6130c08c838d01613003565b945060c08b01359150808211156130d657600080fd5b506130e38b828c01613003565b9250506130f260e08a01613023565b90509295985092959890939650565b6000806040838503121561311457600080fd5b61311d83612e5a565b91506020830135801515811461313257600080fd5b809150509250929050565b60008083601f84011261314f57600080fd5b5081356001600160401b0381111561316657600080fd5b6020830191508360208260051b8501011115610ed657600080fd5b6000806000806040858703121561319757600080fd5b84356001600160401b03808211156131ae57600080fd5b6131ba8883890161313d565b909650945060208701359150808211156131d357600080fd5b506131e08782880161313d565b95989497509550505050565b6000602082840312156131fe57600080fd5b6119d282613023565b60008060006060848603121561321c57600080fd5b61322584612e5a565b925061323360208501612e5a565b9150604084013590509250925092565b6000806040838503121561325657600080fd5b50508035926020909101359150565b6000806040838503121561327857600080fd5b82359150612eb760208401612e5a565b60006020828403121561329a57600080fd5b6119d282612e5a565b6000602082840312156132b557600080fd5b81356001600160401b038111156132cb57600080fd5b612e1f84828501613003565b6000806000606084860312156132ec57600080fd5b833592506132fc60208501612e5a565b915061330a60408501612e76565b90509250925092565b60008060006060848603121561332857600080fd5b61333184612e5a565b95602085013595506040909401359392505050565b60006001600160401b0382111561335f5761335f612f66565b5060051b60200190565b600082601f83011261337a57600080fd5b8135602061338f61338a83613346565b612f7c565b8083825260208201915060208460051b8701019350868411156133b157600080fd5b602086015b848110156133cd57803583529183019183016133b6565b509695505050505050565b6000806000606084860312156133ed57600080fd5b83356001600160401b038082111561340457600080fd5b818601915086601f83011261341857600080fd5b8135602061342861338a83613346565b82815260059290921b8401810191818101908a84111561344757600080fd5b948201945b8386101561346c5761345d86612e5a565b8252948201949082019061344c565b9750508701359250508082111561348257600080fd5b61348e87838801613369565b935060408601359150808211156134a457600080fd5b506134b186828701613369565b9150509250925092565b600080600080608085870312156134d157600080fd5b6134da85612e5a565b93506134e860208601612e5a565b92506040850135915060608501356001600160401b0381111561350a57600080fd5b8501601f8101871361351b57600080fd5b61352a87823560208401612fac565b91505092959194509250565b60006020828403121561354857600080fd5b81356001600160401b0381111561355e57600080fd5b612e1f84828501613369565b6000806040838503121561357d57600080fd5b61358683612e5a565b9150612eb760208401612e5a565b600080604083850312156135a757600080fd5b6135b083612e5a565b915060208301356001600160401b038111156135cb57600080fd5b6135d785828601613369565b9150509250929050565b600181811c908216806135f557607f821691505b60208210810361361557634e487b7160e01b600052602260045260246000fd5b50919050565b634e487b7160e01b600052603260045260246000fd5b8183526000602080850194508260005b8581101561366d576001600160a01b0361365a83612e5a565b1687529582019590820190600101613641565b509495945050505050565b81835260006001600160fb1b0383111561369157600080fd5b8260051b80836020870137939093016020019392505050565b6060815260006136be606083018789613631565b82810360208401526136d1818688613678565b9150506001600160401b03831660408301529695505050505050565b634e487b7160e01b600052601160045260246000fd5b8082028115828204841417610823576108236136ed565b60008261373757634e487b7160e01b600052601260045260246000fd5b500490565b601f82111561083e576000816000526020600020601f850160051c810160208610156137655750805b601f850160051c820191505b818110156126b557828155600101613771565b81516001600160401b0381111561379d5761379d612f66565b6137b1816137ab84546135e1565b8461373c565b602080601f8311600181146137e657600084156137ce5750858301515b600019600386901b1c1916600185901b1785556126b5565b600085815260208120601f198616915b82811015613815578886015182559484019460019091019084016137f6565b50858210156138335787850151600019600388901b60f8161c191681555b5050505050600190811b01905550565b60008151808452602080850194506020840160005b8381101561366d57815187529582019590820190600101613858565b60808152600061388860808301888a613631565b828103602084015261389a8188613843565b905082810360408401526138af818688613678565b9150506001600160401b0383166060830152979650505050505050565b60a0808252865190820181905260009060209060c0840190828a01845b8281101561390e5781516001600160a01b0316845292840192908401906001016138e9565b50505083810360208501526139238189613843565b91505082810360408401526139388187613843565b9050828103606084015261394c8186613843565b9150506001600160401b03831660808301529695505050505050565b6000835161397a818460208801612ec0565b83519083019061398e818360208801612ec0565b64173539b7b760d91b9101908152600501949350505050565b6000600182016139b9576139b96136ed565b5060010190565b6001600160a01b03858116825284166020820152604081018390526080606082018190526000906139f390830184612ee4565b9695505050505050565b600060208284031215613a0f57600080fd5b81516119d281612e27565b6001600160401b03818116838216019080821115611020576110206136ed56fe80bb2b638cc20bc4d0a60d66940f3ab4a00c1d7b313497ca82fb0b4ab0079300241ecf16d79d0f8dbfb92cbc07fe17840425976cf0667f022fe9877caa831b0865d7a28e3265b37a6474929f336521b332c1681b933f6cb9f3376673440d862a02dd7bc7dec4dceedda775e58dd541e08a116c6c53815c0bd028192f7b626800cd5ed15c6e187e77e9aee88184c21f4f2182ab5827cb3b7e07fbedcd63f033007e3a386316e83bca71ca69a021c153274068560a6c16736e8bfcbd1ec5997911a26469706673582212205f9bf185d5965b7b26ed80d1bfa4eb1112d77105d57017f3259073931034bcd864736f6c63430008170033","opcodes":"PUSH1 0x80 PUSH1 0x40 MSTORE CALLVALUE DUP1 ISZERO PUSH3 0x11 JUMPI PUSH1 0x0 DUP1 REVERT JUMPDEST POP PUSH3 0x1C PUSH3 0x22 JUMP JUMPDEST PUSH3 0xD6 JUMP JUMPDEST PUSH32 0xF0C57E16840DF040F15088DC2F81FE391C3923BEC73E23A9662EFC9C229C6A00 DUP1 SLOAD PUSH9 0x10000000000000000 SWAP1 DIV PUSH1 0xFF AND ISZERO PUSH3 0x73 JUMPI PUSH1 0x40 MLOAD PUSH4 0xF92EE8A9 PUSH1 0xE0 SHL DUP2 MSTORE PUSH1 0x4 ADD PUSH1 0x40 MLOAD DUP1 SWAP2 SUB SWAP1 REVERT JUMPDEST DUP1 SLOAD PUSH1 0x1 PUSH1 0x1 PUSH1 0x40 SHL SUB SWAP1 DUP2 AND EQ PUSH3 0xD3 JUMPI DUP1 SLOAD PUSH1 0x1 PUSH1 0x1 PUSH1 0x40 SHL SUB NOT AND PUSH1 0x1 PUSH1 0x1 PUSH1 0x40 SHL SUB SWAP1 DUP2 OR DUP3 SSTORE PUSH1 0x40 MLOAD SWAP1 DUP2 MSTORE PUSH32 0xC7F505B2F371AE2175EE4913F4499E1F2633A7B5936321EED1CDAEB6115181D2 SWAP1 PUSH1 0x20 ADD PUSH1 0x40 MLOAD DUP1 SWAP2 SUB SWAP1 LOG1 JUMPDEST POP JUMP JUMPDEST PUSH2 0x3B30 DUP1 PUSH3 0xE6 PUSH1 0x0 CODECOPY PUSH1 0x0 RETURN INVALID PUSH1 0x80 PUSH1 0x40 MSTORE CALLVALUE DUP1 ISZERO PUSH2 0x10 JUMPI PUSH1 0x0 DUP1 REVERT JUMPDEST POP PUSH1 0x4 CALLDATASIZE LT PUSH2 0x35D JUMPI PUSH1 0x0 CALLDATALOAD PUSH1 0xE0 SHR DUP1 PUSH4 0x684C655A GT PUSH2 0x1D3 JUMPI DUP1 PUSH4 0xA9FC664E GT PUSH2 0x104 JUMPI DUP1 PUSH4 0xE63AB1E9 GT PUSH2 0xA2 JUMPI DUP1 PUSH4 0xF2472965 GT PUSH2 0x7C JUMPI DUP1 PUSH4 0xF2472965 EQ PUSH2 0x7B8 JUMPI DUP1 PUSH4 0xF310F60E EQ PUSH2 0x7CB JUMPI DUP1 PUSH4 0xF72C0D8B EQ PUSH2 0x7DE JUMPI DUP1 PUSH4 0xFC22D0E5 EQ PUSH2 0x805 JUMPI PUSH1 0x0 DUP1 REVERT JUMPDEST DUP1 PUSH4 0xE63AB1E9 EQ PUSH2 0x77B JUMPI DUP1 PUSH4 0xE985E9C5 EQ PUSH2 0x790 JUMPI DUP1 PUSH4 0xEC87621C EQ PUSH2 0x7A3 JUMPI PUSH1 0x0 DUP1 REVERT JUMPDEST DUP1 PUSH4 0xC87B56DD GT PUSH2 0xDE JUMPI DUP1 PUSH4 0xC87B56DD EQ PUSH2 0x72F JUMPI DUP1 PUSH4 0xCE974193 EQ PUSH2 0x742 JUMPI DUP1 PUSH4 0xD547741F EQ PUSH2 0x755 JUMPI DUP1 PUSH4 0xDC8E92EA EQ PUSH2 0x768 JUMPI PUSH1 0x0 DUP1 REVERT JUMPDEST DUP1 PUSH4 0xA9FC664E EQ PUSH2 0x6F6 JUMPI DUP1 PUSH4 0xB6DF4906 EQ PUSH2 0x709 JUMPI DUP1 PUSH4 0xB88D4FDE EQ PUSH2 0x71C JUMPI PUSH1 0x0 DUP1 REVERT JUMPDEST DUP1 PUSH4 0x8A616BC0 GT PUSH2 0x171 JUMPI DUP1 PUSH4 0x95D89B41 GT PUSH2 0x14B JUMPI DUP1 PUSH4 0x95D89B41 EQ PUSH2 0x6C0 JUMPI DUP1 PUSH4 0xA217FDDF EQ PUSH2 0x6C8 JUMPI DUP1 PUSH4 0xA22CB465 EQ PUSH2 0x6D0 JUMPI DUP1 PUSH4 0xA5D0C352 EQ PUSH2 0x6E3 JUMPI PUSH1 0x0 DUP1 REVERT JUMPDEST DUP1 PUSH4 0x8A616BC0 EQ PUSH2 0x66E JUMPI DUP1 PUSH4 0x8E204C43 EQ PUSH2 0x681 JUMPI DUP1 PUSH4 0x91D14854 EQ PUSH2 0x6AD JUMPI PUSH1 0x0 DUP1 REVERT JUMPDEST DUP1 PUSH4 0x79CC6790 GT PUSH2 0x1AD JUMPI DUP1 PUSH4 0x79CC6790 EQ PUSH2 0x620 JUMPI DUP1 PUSH4 0x7DBE4165 EQ PUSH2 0x633 JUMPI DUP1 PUSH4 0x827157B3 EQ PUSH2 0x653 JUMPI DUP1 PUSH4 0x8456CB59 EQ PUSH2 0x666 JUMPI PUSH1 0x0 DUP1 REVERT JUMPDEST DUP1 PUSH4 0x684C655A EQ PUSH2 0x5F2 JUMPI DUP1 PUSH4 0x68573107 EQ PUSH2 0x5FA JUMPI DUP1 PUSH4 0x70A08231 EQ PUSH2 0x60D JUMPI PUSH1 0x0 DUP1 REVERT JUMPDEST DUP1 PUSH4 0x248A9CA3 GT PUSH2 0x2AD JUMPI DUP1 PUSH4 0x423F6CEF GT PUSH2 0x24B JUMPI DUP1 PUSH4 0x55F804B3 GT PUSH2 0x225 JUMPI DUP1 PUSH4 0x55F804B3 EQ PUSH2 0x5A1 JUMPI DUP1 PUSH4 0x5944C753 EQ PUSH2 0x5B4 JUMPI DUP1 PUSH4 0x5C975ABB EQ PUSH2 0x5C7 JUMPI DUP1 PUSH4 0x6352211E EQ PUSH2 0x5DF JUMPI PUSH1 0x0 DUP1 REVERT JUMPDEST DUP1 PUSH4 0x423F6CEF EQ PUSH2 0x568 JUMPI DUP1 PUSH4 0x42842E0E EQ PUSH2 0x57B JUMPI DUP1 PUSH4 0x42966C68 EQ PUSH2 0x58E JUMPI PUSH1 0x0 DUP1 REVERT JUMPDEST DUP1 PUSH4 0x36568ABE GT PUSH2 0x287 JUMPI DUP1 PUSH4 0x36568ABE EQ PUSH2 0x50E JUMPI DUP1 PUSH4 0x3AF32ABF EQ PUSH2 0x521 JUMPI DUP1 PUSH4 0x3F4BA83A EQ PUSH2 0x54D JUMPI DUP1 PUSH4 0x40C10F19 EQ PUSH2 0x555 JUMPI PUSH1 0x0 DUP1 REVERT JUMPDEST DUP1 PUSH4 0x248A9CA3 EQ PUSH2 0x4A8 JUMPI DUP1 PUSH4 0x2A55205A EQ PUSH2 0x4C9 JUMPI DUP1 PUSH4 0x2F2FF15D EQ PUSH2 0x4FB JUMPI PUSH1 0x0 DUP1 REVERT JUMPDEST DUP1 PUSH4 0x98144D4 GT PUSH2 0x31A JUMPI DUP1 PUSH4 0xD705DF6 GT PUSH2 0x2F4 JUMPI DUP1 PUSH4 0xD705DF6 EQ PUSH2 0x454 JUMPI DUP1 PUSH4 0x14DC43FC EQ PUSH2 0x46F JUMPI DUP1 PUSH4 0x2069C98F EQ PUSH2 0x482 JUMPI DUP1 PUSH4 0x23B872DD EQ PUSH2 0x495 JUMPI PUSH1 0x0 DUP1 REVERT JUMPDEST DUP1 PUSH4 0x98144D4 EQ PUSH2 0x41D JUMPI DUP1 PUSH4 0xD178D5D EQ PUSH2 0x42E JUMPI DUP1 PUSH4 0xD392CD9 EQ PUSH2 0x441 JUMPI PUSH1 0x0 DUP1 REVERT JUMPDEST DUP1 PUSH4 0x1FFC9A7 EQ PUSH2 0x362 JUMPI DUP1 PUSH4 0x2FA7C47 EQ PUSH2 0x38A JUMPI DUP1 PUSH4 0x4554443 EQ PUSH2 0x39F JUMPI DUP1 PUSH4 0x6FDDE03 EQ PUSH2 0x3CA JUMPI DUP1 PUSH4 0x81812FC EQ PUSH2 0x3DF JUMPI DUP1 PUSH4 0x95EA7B3 EQ PUSH2 0x40A JUMPI JUMPDEST PUSH1 0x0 DUP1 REVERT JUMPDEST PUSH2 0x375 PUSH2 0x370 CALLDATASIZE PUSH1 0x4 PUSH2 0x2E3D JUMP JUMPDEST PUSH2 0x818 JUMP JUMPDEST PUSH1 0x40 MLOAD SWAP1 ISZERO ISZERO DUP2 MSTORE PUSH1 0x20 ADD JUMPDEST PUSH1 0x40 MLOAD DUP1 SWAP2 SUB SWAP1 RETURN JUMPDEST PUSH2 0x39D PUSH2 0x398 CALLDATASIZE PUSH1 0x4 PUSH2 0x2E8D JUMP JUMPDEST PUSH2 0x829 JUMP JUMPDEST STOP JUMPDEST PUSH1 0x3 SLOAD PUSH2 0x3B2 SWAP1 PUSH1 0x1 PUSH1 0x1 PUSH1 0x40 SHL SUB AND DUP2 JUMP JUMPDEST PUSH1 0x40 MLOAD PUSH1 0x1 PUSH1 0x1 PUSH1 0x40 SHL SUB SWAP1 SWAP2 AND DUP2 MSTORE PUSH1 0x20 ADD PUSH2 0x381 JUMP JUMPDEST PUSH2 0x3D2 PUSH2 0x843 JUMP JUMPDEST PUSH1 0x40 MLOAD PUSH2 0x381 SWAP2 SWAP1 PUSH2 0x2F10 JUMP JUMPDEST PUSH2 0x3F2 PUSH2 0x3ED CALLDATASIZE PUSH1 0x4 PUSH2 0x2F23 JUMP JUMPDEST PUSH2 0x8E7 JUMP JUMPDEST PUSH1 0x40 MLOAD PUSH1 0x1 PUSH1 0x1 PUSH1 0xA0 SHL SUB SWAP1 SWAP2 AND DUP2 MSTORE PUSH1 0x20 ADD PUSH2 0x381 JUMP JUMPDEST PUSH2 0x39D PUSH2 0x418 CALLDATASIZE PUSH1 0x4 PUSH2 0x2F3C JUMP JUMPDEST PUSH2 0x8FC JUMP JUMPDEST PUSH1 0x0 SLOAD PUSH1 0x1 PUSH1 0x1 PUSH1 0xA0 SHL SUB AND PUSH2 0x3F2 JUMP JUMPDEST PUSH2 0x39D PUSH2 0x43C CALLDATASIZE PUSH1 0x4 PUSH2 0x303A JUMP JUMPDEST PUSH2 0x90B JUMP JUMPDEST PUSH2 0x39D PUSH2 0x44F CALLDATASIZE PUSH1 0x4 PUSH2 0x3101 JUMP JUMPDEST PUSH2 0xB67 JUMP JUMPDEST PUSH1 0x40 DUP1 MLOAD PUSH4 0x657711F5 PUSH1 0xE1 SHL DUP2 MSTORE PUSH1 0x1 PUSH1 0x20 DUP3 ADD MSTORE ADD PUSH2 0x381 JUMP JUMPDEST PUSH2 0x39D PUSH2 0x47D CALLDATASIZE PUSH1 0x4 PUSH2 0x3181 JUMP JUMPDEST PUSH2 0xC1F JUMP JUMPDEST PUSH2 0x39D PUSH2 0x490 CALLDATASIZE PUSH1 0x4 PUSH2 0x31EC JUMP JUMPDEST PUSH2 0xD12 JUMP JUMPDEST PUSH2 0x39D PUSH2 0x4A3 CALLDATASIZE PUSH1 0x4 PUSH2 0x3207 JUMP JUMPDEST PUSH2 0xD6F JUMP JUMPDEST PUSH2 0x4BB PUSH2 0x4B6 CALLDATASIZE PUSH1 0x4 PUSH2 0x2F23 JUMP JUMPDEST PUSH2 0xDF4 JUMP JUMPDEST PUSH1 0x40 MLOAD SWAP1 DUP2 MSTORE PUSH1 0x20 ADD PUSH2 0x381 JUMP JUMPDEST PUSH2 0x4DC PUSH2 0x4D7 CALLDATASIZE PUSH1 0x4 PUSH2 0x3243 JUMP JUMPDEST PUSH2 0xE16 JUMP JUMPDEST PUSH1 0x40 DUP1 MLOAD PUSH1 0x1 PUSH1 0x1 PUSH1 0xA0 SHL SUB SWAP1 SWAP4 AND DUP4 MSTORE PUSH1 0x20 DUP4 ADD SWAP2 SWAP1 SWAP2 MSTORE ADD PUSH2 0x381 JUMP JUMPDEST PUSH2 0x39D PUSH2 0x509 CALLDATASIZE PUSH1 0x4 PUSH2 0x3265 JUMP JUMPDEST PUSH2 0xEDD JUMP JUMPDEST PUSH2 0x39D PUSH2 0x51C CALLDATASIZE PUSH1 0x4 PUSH2 0x3265 JUMP JUMPDEST PUSH2 0xEF9 JUMP JUMPDEST PUSH2 0x375 PUSH2 0x52F CALLDATASIZE PUSH1 0x4 PUSH2 0x3288 JUMP JUMPDEST PUSH1 0x1 PUSH1 0x1 PUSH1 0xA0 SHL SUB AND PUSH1 0x0 SWAP1 DUP2 MSTORE PUSH1 0x5 PUSH1 0x20 MSTORE PUSH1 0x40 SWAP1 KECCAK256 SLOAD PUSH1 0xFF AND SWAP1 JUMP JUMPDEST PUSH2 0x39D PUSH2 0xF2C JUMP JUMPDEST PUSH2 0x4BB PUSH2 0x563 CALLDATASIZE PUSH1 0x4 PUSH2 0x2F3C JUMP JUMPDEST PUSH2 0xF4F JUMP JUMPDEST PUSH2 0x39D PUSH2 0x576 CALLDATASIZE PUSH1 0x4 PUSH2 0x2F3C JUMP JUMPDEST PUSH2 0x1027 JUMP JUMPDEST PUSH2 0x39D PUSH2 0x589 CALLDATASIZE PUSH1 0x4 PUSH2 0x3207 JUMP JUMPDEST PUSH2 0x1052 JUMP JUMPDEST PUSH2 0x39D PUSH2 0x59C CALLDATASIZE PUSH1 0x4 PUSH2 0x2F23 JUMP JUMPDEST PUSH2 0x106D JUMP JUMPDEST PUSH2 0x39D PUSH2 0x5AF CALLDATASIZE PUSH1 0x4 PUSH2 0x32A3 JUMP JUMPDEST PUSH2 0x1110 JUMP JUMPDEST PUSH2 0x39D PUSH2 0x5C2 CALLDATASIZE PUSH1 0x4 PUSH2 0x32D7 JUMP JUMPDEST PUSH2 0x11D9 JUMP JUMPDEST PUSH1 0x0 DUP1 MLOAD PUSH1 0x20 PUSH2 0x3ABB DUP4 CODECOPY DUP2 MLOAD SWAP2 MSTORE SLOAD PUSH1 0xFF AND PUSH2 0x375 JUMP JUMPDEST PUSH2 0x3F2 PUSH2 0x5ED CALLDATASIZE PUSH1 0x4 PUSH2 0x2F23 JUMP JUMPDEST PUSH2 0x11EF JUMP JUMPDEST PUSH2 0x3D2 PUSH2 0x11FA JUMP JUMPDEST PUSH2 0x39D PUSH2 0x608 CALLDATASIZE PUSH1 0x4 PUSH2 0x3181 JUMP JUMPDEST PUSH2 0x1288 JUMP JUMPDEST PUSH2 0x4BB PUSH2 0x61B CALLDATASIZE PUSH1 0x4 PUSH2 0x3288 JUMP JUMPDEST PUSH2 0x145D JUMP JUMPDEST PUSH2 0x39D PUSH2 0x62E CALLDATASIZE PUSH1 0x4 PUSH2 0x2F3C JUMP JUMPDEST PUSH2 0x14B9 JUMP JUMPDEST PUSH2 0x4BB PUSH2 0x641 CALLDATASIZE PUSH1 0x4 PUSH2 0x2F23 JUMP JUMPDEST PUSH1 0x0 SWAP1 DUP2 MSTORE PUSH1 0x7 PUSH1 0x20 MSTORE PUSH1 0x40 SWAP1 KECCAK256 SLOAD SWAP1 JUMP JUMPDEST PUSH2 0x39D PUSH2 0x661 CALLDATASIZE PUSH1 0x4 PUSH2 0x3313 JUMP JUMPDEST PUSH2 0x1586 JUMP JUMPDEST PUSH2 0x39D PUSH2 0x164F JUMP JUMPDEST PUSH2 0x39D PUSH2 0x67C CALLDATASIZE PUSH1 0x4 PUSH2 0x2F23 JUMP JUMPDEST PUSH2 0x166F JUMP JUMPDEST PUSH2 0x375 PUSH2 0x68F CALLDATASIZE PUSH1 0x4 PUSH2 0x3288 JUMP JUMPDEST PUSH1 0x1 PUSH1 0x1 PUSH1 0xA0 SHL SUB AND PUSH1 0x0 SWAP1 DUP2 MSTORE PUSH1 0x4 PUSH1 0x20 MSTORE PUSH1 0x40 SWAP1 KECCAK256 SLOAD PUSH1 0xFF AND SWAP1 JUMP JUMPDEST PUSH2 0x375 PUSH2 0x6BB CALLDATASIZE PUSH1 0x4 PUSH2 0x3265 JUMP JUMPDEST PUSH2 0x16AB JUMP JUMPDEST PUSH2 0x3D2 PUSH2 0x16E3 JUMP JUMPDEST PUSH2 0x4BB PUSH1 0x0 DUP2 JUMP JUMPDEST PUSH2 0x39D PUSH2 0x6DE CALLDATASIZE PUSH1 0x4 PUSH2 0x3101 JUMP JUMPDEST PUSH2 0x1722 JUMP JUMPDEST PUSH2 0x39D PUSH2 0x6F1 CALLDATASIZE PUSH1 0x4 PUSH2 0x33D8 JUMP JUMPDEST PUSH2 0x172D JUMP JUMPDEST PUSH2 0x39D PUSH2 0x704 CALLDATASIZE PUSH1 0x4 PUSH2 0x3288 JUMP JUMPDEST PUSH2 0x18E3 JUMP JUMPDEST PUSH2 0x3F2 PUSH2 0x717 CALLDATASIZE PUSH1 0x4 PUSH2 0x2F23 JUMP JUMPDEST PUSH2 0x1958 JUMP JUMPDEST PUSH2 0x39D PUSH2 0x72A CALLDATASIZE PUSH1 0x4 PUSH2 0x34BB JUMP JUMPDEST PUSH2 0x1963 JUMP JUMPDEST PUSH2 0x3D2 PUSH2 0x73D CALLDATASIZE PUSH1 0x4 PUSH2 0x2F23 JUMP JUMPDEST PUSH2 0x197B JUMP JUMPDEST PUSH2 0x39D PUSH2 0x750 CALLDATASIZE PUSH1 0x4 PUSH2 0x3101 JUMP JUMPDEST PUSH2 0x19D9 JUMP JUMPDEST PUSH2 0x39D PUSH2 0x763 CALLDATASIZE PUSH1 0x4 PUSH2 0x3265 JUMP JUMPDEST PUSH2 0x1A7B JUMP JUMPDEST PUSH2 0x39D PUSH2 0x776 CALLDATASIZE PUSH1 0x4 PUSH2 0x3536 JUMP JUMPDEST PUSH2 0x1A97 JUMP JUMPDEST PUSH2 0x4BB PUSH1 0x0 DUP1 MLOAD PUSH1 0x20 PUSH2 0x3A7B DUP4 CODECOPY DUP2 MLOAD SWAP2 MSTORE DUP2 JUMP JUMPDEST PUSH2 0x375 PUSH2 0x79E CALLDATASIZE PUSH1 0x4 PUSH2 0x356A JUMP JUMPDEST PUSH2 0x1B77 JUMP JUMPDEST PUSH2 0x4BB PUSH1 0x0 DUP1 MLOAD PUSH1 0x20 PUSH2 0x3A5B DUP4 CODECOPY DUP2 MLOAD SWAP2 MSTORE DUP2 JUMP JUMPDEST PUSH2 0x39D PUSH2 0x7C6 CALLDATASIZE PUSH1 0x4 PUSH2 0x3594 JUMP JUMPDEST PUSH2 0x1BED JUMP JUMPDEST PUSH2 0x375 PUSH2 0x7D9 CALLDATASIZE PUSH1 0x4 PUSH2 0x2F23 JUMP JUMPDEST PUSH2 0x1CEE JUMP JUMPDEST PUSH2 0x4BB PUSH32 0x189AB7A9244DF0848122154315AF71FE140F3DB0FE014031783B0946B8C9D2E3 DUP2 JUMP JUMPDEST PUSH2 0x39D PUSH2 0x813 CALLDATASIZE PUSH1 0x4 PUSH2 0x3313 JUMP JUMPDEST PUSH2 0x1CF9 JUMP JUMPDEST PUSH1 0x0 PUSH2 0x823 DUP3 PUSH2 0x1D84 JUMP JUMPDEST SWAP3 SWAP2 POP POP JUMP JUMPDEST PUSH1 0x0 PUSH2 0x834 DUP2 PUSH2 0x1DA9 JUMP JUMPDEST PUSH2 0x83E DUP4 DUP4 PUSH2 0x1DB3 JUMP JUMPDEST POP POP POP JUMP JUMPDEST PUSH1 0x0 DUP1 MLOAD PUSH1 0x20 PUSH2 0x3A3B DUP4 CODECOPY DUP2 MLOAD SWAP2 MSTORE DUP1 SLOAD PUSH1 0x60 SWAP2 SWAP1 DUP2 SWAP1 PUSH2 0x863 SWAP1 PUSH2 0x35E1 JUMP JUMPDEST DUP1 PUSH1 0x1F ADD PUSH1 0x20 DUP1 SWAP2 DIV MUL PUSH1 0x20 ADD PUSH1 0x40 MLOAD SWAP1 DUP2 ADD PUSH1 0x40 MSTORE DUP1 SWAP3 SWAP2 SWAP1 DUP2 DUP2 MSTORE PUSH1 0x20 ADD DUP3 DUP1 SLOAD PUSH2 0x88F SWAP1 PUSH2 0x35E1 JUMP JUMPDEST DUP1 ISZERO PUSH2 0x8DC JUMPI DUP1 PUSH1 0x1F LT PUSH2 0x8B1 JUMPI PUSH2 0x100 DUP1 DUP4 SLOAD DIV MUL DUP4 MSTORE SWAP2 PUSH1 0x20 ADD SWAP2 PUSH2 0x8DC JUMP JUMPDEST DUP3 ADD SWAP2 SWAP1 PUSH1 0x0 MSTORE PUSH1 0x20 PUSH1 0x0 KECCAK256 SWAP1 JUMPDEST DUP2 SLOAD DUP2 MSTORE SWAP1 PUSH1 0x1 ADD SWAP1 PUSH1 0x20 ADD DUP1 DUP4 GT PUSH2 0x8BF JUMPI DUP3 SWAP1 SUB PUSH1 0x1F AND DUP3 ADD SWAP2 JUMPDEST POP POP POP POP POP SWAP2 POP POP SWAP1 JUMP JUMPDEST PUSH1 0x0 PUSH2 0x8F2 DUP3 PUSH2 0x1E76 JUMP JUMPDEST POP PUSH2 0x823 DUP3 PUSH2 0x1EAE JUMP JUMPDEST PUSH2 0x907 DUP3 DUP3 CALLER PUSH2 0x1EE8 JUMP JUMPDEST POP POP JUMP JUMPDEST PUSH1 0x0 PUSH2 0x915 PUSH2 0x1EF5 JUMP JUMPDEST DUP1 SLOAD SWAP1 SWAP2 POP PUSH1 0xFF PUSH1 0x1 PUSH1 0x40 SHL DUP3 DIV AND ISZERO SWAP1 PUSH1 0x1 PUSH1 0x1 PUSH1 0x40 SHL SUB AND PUSH1 0x0 DUP2 ISZERO DUP1 ISZERO PUSH2 0x93C JUMPI POP DUP3 JUMPDEST SWAP1 POP PUSH1 0x0 DUP3 PUSH1 0x1 PUSH1 0x1 PUSH1 0x40 SHL SUB AND PUSH1 0x1 EQ DUP1 ISZERO PUSH2 0x958 JUMPI POP ADDRESS EXTCODESIZE ISZERO JUMPDEST SWAP1 POP DUP2 ISZERO DUP1 ISZERO PUSH2 0x966 JUMPI POP DUP1 ISZERO JUMPDEST ISZERO PUSH2 0x984 JUMPI PUSH1 0x40 MLOAD PUSH4 0xF92EE8A9 PUSH1 0xE0 SHL DUP2 MSTORE PUSH1 0x4 ADD PUSH1 0x40 MLOAD DUP1 SWAP2 SUB SWAP1 REVERT JUMPDEST DUP5 SLOAD PUSH8 0xFFFFFFFFFFFFFFFF NOT AND PUSH1 0x1 OR DUP6 SSTORE DUP4 ISZERO PUSH2 0x9AE JUMPI DUP5 SLOAD PUSH1 0xFF PUSH1 0x40 SHL NOT AND PUSH1 0x1 PUSH1 0x40 SHL OR DUP6 SSTORE JUMPDEST PUSH1 0x1 PUSH1 0x1 PUSH1 0xA0 SHL SUB DUP14 AND ISZERO DUP1 PUSH2 0x9CB JUMPI POP PUSH1 0x1 PUSH1 0x1 PUSH1 0xA0 SHL SUB DUP13 AND ISZERO JUMPDEST DUP1 PUSH2 0x9DD JUMPI POP PUSH1 0x1 PUSH1 0x1 PUSH1 0xA0 SHL SUB DUP12 AND ISZERO JUMPDEST ISZERO PUSH2 0x9FA JUMPI PUSH1 0x40 MLOAD PUSH3 0x858BCD PUSH1 0xE1 SHL DUP2 MSTORE PUSH1 0x4 ADD PUSH1 0x40 MLOAD DUP1 SWAP2 SUB SWAP1 REVERT JUMPDEST PUSH2 0xA04 DUP9 DUP9 PUSH2 0x1F1E JUMP JUMPDEST PUSH2 0xA0C PUSH2 0x1F30 JUMP JUMPDEST PUSH2 0xA14 PUSH2 0x1F3A JUMP JUMPDEST PUSH2 0xA1C PUSH2 0x1F30 JUMP JUMPDEST PUSH2 0xA24 PUSH2 0x1F30 JUMP JUMPDEST PUSH2 0xA2F PUSH1 0x0 CALLER PUSH2 0x1F4A JUMP JUMPDEST POP PUSH2 0xA48 PUSH1 0x0 DUP1 MLOAD PUSH1 0x20 PUSH2 0x3A5B DUP4 CODECOPY DUP2 MLOAD SWAP2 MSTORE DUP15 PUSH2 0x1F4A JUMP JUMPDEST POP PUSH2 0xA61 PUSH1 0x0 DUP1 MLOAD PUSH1 0x20 PUSH2 0x3A7B DUP4 CODECOPY DUP2 MLOAD SWAP2 MSTORE DUP14 PUSH2 0x1F4A JUMP JUMPDEST POP PUSH2 0xA8C PUSH32 0x189AB7A9244DF0848122154315AF71FE140F3DB0FE014031783B0946B8C9D2E3 DUP13 PUSH2 0x1F4A JUMP JUMPDEST POP PUSH1 0x3 DUP1 SLOAD PUSH8 0xFFFFFFFFFFFFFFFF NOT AND PUSH1 0x1 PUSH1 0x1 PUSH1 0x40 SHL SUB DUP9 AND OR SWAP1 SSTORE PUSH1 0x0 DUP1 SLOAD PUSH1 0x1 PUSH1 0x1 PUSH1 0xA0 SHL SUB NOT AND PUSH1 0x1 PUSH1 0x1 PUSH1 0xA0 SHL SUB DUP12 AND OR SWAP1 SSTORE PUSH2 0xAD0 DUP11 PUSH2 0x1F4 PUSH2 0x1DB3 JUMP JUMPDEST PUSH1 0x40 DUP1 MLOAD PUSH1 0x0 DUP2 MSTORE PUSH1 0x1 PUSH1 0x1 PUSH1 0xA0 SHL SUB DUP12 AND PUSH1 0x20 DUP3 ADD MSTORE PUSH32 0xCC5DC080FF977B3C3A211FA63AB74F90F658F5BA9D3236E92C8F59570F442AAC SWAP2 ADD PUSH1 0x40 MLOAD DUP1 SWAP2 SUB SWAP1 LOG1 DUP4 ISZERO PUSH2 0xB58 JUMPI DUP5 SLOAD PUSH1 0xFF PUSH1 0x40 SHL NOT AND DUP6 SSTORE PUSH1 0x40 MLOAD PUSH1 0x1 DUP2 MSTORE PUSH32 0xC7F505B2F371AE2175EE4913F4499E1F2633A7B5936321EED1CDAEB6115181D2 SWAP1 PUSH1 0x20 ADD PUSH1 0x40 MLOAD DUP1 SWAP2 SUB SWAP1 LOG1 JUMPDEST POP POP POP POP POP POP POP POP POP POP POP POP POP JUMP JUMPDEST PUSH1 0x0 DUP1 MLOAD PUSH1 0x20 PUSH2 0x3A5B DUP4 CODECOPY DUP2 MLOAD SWAP2 MSTORE PUSH2 0xB7F DUP2 PUSH2 0x1DA9 JUMP JUMPDEST PUSH1 0x1 PUSH1 0x1 PUSH1 0xA0 SHL SUB DUP4 AND PUSH1 0x0 SWAP1 DUP2 MSTORE PUSH1 0x5 PUSH1 0x20 MSTORE PUSH1 0x40 SWAP1 KECCAK256 SLOAD PUSH1 0xFF AND ISZERO ISZERO DUP3 ISZERO ISZERO SUB PUSH2 0xBBE JUMPI PUSH1 0x40 MLOAD PUSH4 0x4749B1BF PUSH1 0xE0 SHL DUP2 MSTORE PUSH1 0x4 ADD PUSH1 0x40 MLOAD DUP1 SWAP2 SUB SWAP1 REVERT JUMPDEST PUSH1 0x1 PUSH1 0x1 PUSH1 0xA0 SHL SUB DUP4 AND PUSH1 0x0 DUP2 DUP2 MSTORE PUSH1 0x5 PUSH1 0x20 SWAP1 DUP2 MSTORE PUSH1 0x40 SWAP2 DUP3 SWAP1 KECCAK256 DUP1 SLOAD PUSH1 0xFF NOT AND DUP7 ISZERO ISZERO SWAP1 DUP2 OR SWAP1 SWAP2 SSTORE SWAP2 MLOAD SWAP2 DUP3 MSTORE PUSH32 0x2B53A43B3D9A43074CD182E5310EACAB92155B7C524D3B45363C0B3ACDA60C98 SWAP2 ADD JUMPDEST PUSH1 0x40 MLOAD DUP1 SWAP2 SUB SWAP1 LOG2 POP POP POP JUMP JUMPDEST PUSH2 0xC27 PUSH2 0x1FEF JUMP JUMPDEST DUP3 DUP2 DUP2 EQ PUSH2 0xC57 JUMPI PUSH1 0x40 MLOAD PUSH4 0x55B5EE2B PUSH1 0xE1 SHL DUP2 MSTORE PUSH1 0x4 DUP2 ADD DUP6 SWAP1 MSTORE PUSH1 0x24 DUP2 ADD DUP4 SWAP1 MSTORE PUSH1 0x44 ADD JUMPDEST PUSH1 0x40 MLOAD DUP1 SWAP2 SUB SWAP1 REVERT JUMPDEST PUSH1 0x0 JUMPDEST DUP2 DUP2 LT ISZERO PUSH2 0xCC3 JUMPI PUSH2 0xCBB CALLER DUP8 DUP8 DUP5 DUP2 DUP2 LT PUSH2 0xC78 JUMPI PUSH2 0xC78 PUSH2 0x361B JUMP JUMPDEST SWAP1 POP PUSH1 0x20 MUL ADD PUSH1 0x20 DUP2 ADD SWAP1 PUSH2 0xC8D SWAP2 SWAP1 PUSH2 0x3288 JUMP JUMPDEST DUP7 DUP7 DUP6 DUP2 DUP2 LT PUSH2 0xC9F JUMPI PUSH2 0xC9F PUSH2 0x361B JUMP JUMPDEST SWAP1 POP PUSH1 0x20 MUL ADD CALLDATALOAD PUSH1 0x40 MLOAD DUP1 PUSH1 0x20 ADD PUSH1 0x40 MSTORE DUP1 PUSH1 0x0 DUP2 MSTORE POP PUSH2 0x2039 JUMP JUMPDEST PUSH1 0x1 ADD PUSH2 0xC5A JUMP JUMPDEST POP PUSH32 0xEB6AEF011166339E703C40EB14619FB2383DD626A9045C4B37D74B4497FD2006 DUP6 DUP6 DUP6 DUP6 TIMESTAMP PUSH1 0x40 MLOAD PUSH2 0xCFB SWAP6 SWAP5 SWAP4 SWAP3 SWAP2 SWAP1 PUSH2 0x36AA JUMP JUMPDEST PUSH1 0x40 MLOAD DUP1 SWAP2 SUB SWAP1 LOG1 POP PUSH2 0xD0C PUSH2 0x2044 JUMP JUMPDEST POP POP POP POP JUMP JUMPDEST PUSH1 0x0 PUSH2 0xD1D DUP2 PUSH2 0x1DA9 JUMP JUMPDEST PUSH1 0x3 SLOAD PUSH1 0x1 PUSH1 0x1 PUSH1 0x40 SHL SUB DUP1 DUP5 AND SWAP2 AND SUB PUSH2 0xD4B JUMPI PUSH1 0x40 MLOAD PUSH4 0x4749B1BF PUSH1 0xE0 SHL DUP2 MSTORE PUSH1 0x4 ADD PUSH1 0x40 MLOAD DUP1 SWAP2 SUB SWAP1 REVERT JUMPDEST POP PUSH1 0x3 DUP1 SLOAD PUSH8 0xFFFFFFFFFFFFFFFF NOT AND PUSH1 0x1 PUSH1 0x1 PUSH1 0x40 SHL SUB SWAP3 SWAP1 SWAP3 AND SWAP2 SWAP1 SWAP2 OR SWAP1 SSTORE JUMP JUMPDEST PUSH1 0x1 PUSH1 0x1 PUSH1 0xA0 SHL SUB DUP3 AND PUSH2 0xD99 JUMPI PUSH1 0x40 MLOAD PUSH4 0x32505749 PUSH1 0xE1 SHL DUP2 MSTORE PUSH1 0x0 PUSH1 0x4 DUP3 ADD MSTORE PUSH1 0x24 ADD PUSH2 0xC4E JUMP JUMPDEST PUSH1 0x0 PUSH2 0xDA6 DUP4 DUP4 CALLER PUSH2 0x206A JUMP JUMPDEST SWAP1 POP DUP4 PUSH1 0x1 PUSH1 0x1 PUSH1 0xA0 SHL SUB AND DUP2 PUSH1 0x1 PUSH1 0x1 PUSH1 0xA0 SHL SUB AND EQ PUSH2 0xD0C JUMPI PUSH1 0x40 MLOAD PUSH4 0x64283D7B PUSH1 0xE0 SHL DUP2 MSTORE PUSH1 0x1 PUSH1 0x1 PUSH1 0xA0 SHL SUB DUP1 DUP7 AND PUSH1 0x4 DUP4 ADD MSTORE PUSH1 0x24 DUP3 ADD DUP5 SWAP1 MSTORE DUP3 AND PUSH1 0x44 DUP3 ADD MSTORE PUSH1 0x64 ADD PUSH2 0xC4E JUMP JUMPDEST PUSH1 0x0 SWAP1 DUP2 MSTORE PUSH1 0x0 DUP1 MLOAD PUSH1 0x20 PUSH2 0x3A9B DUP4 CODECOPY DUP2 MLOAD SWAP2 MSTORE PUSH1 0x20 MSTORE PUSH1 0x40 SWAP1 KECCAK256 PUSH1 0x1 ADD SLOAD SWAP1 JUMP JUMPDEST PUSH1 0x0 DUP3 DUP2 MSTORE PUSH32 0xDAEDC9AB023613A7CAF35E703657E986CCFAD7E3EB0AF93A2853F8D65DD86B01 PUSH1 0x20 MSTORE PUSH1 0x40 DUP2 KECCAK256 DUP1 SLOAD DUP3 SWAP2 PUSH32 0xDAEDC9AB023613A7CAF35E703657E986CCFAD7E3EB0AF93A2853F8D65DD86B00 SWAP2 PUSH1 0x1 PUSH1 0x1 PUSH1 0xA0 SHL SUB DUP2 AND SWAP1 PUSH1 0x1 PUSH1 0xA0 SHL SWAP1 DIV PUSH1 0x1 PUSH1 0x1 PUSH1 0x60 SHL SUB AND DUP2 PUSH2 0xEA9 JUMPI POP POP DUP2 SLOAD PUSH1 0x1 PUSH1 0x1 PUSH1 0xA0 SHL SUB DUP2 AND SWAP1 PUSH1 0x1 PUSH1 0xA0 SHL SWAP1 DIV PUSH1 0x1 PUSH1 0x1 PUSH1 0x60 SHL SUB AND JUMPDEST PUSH1 0x0 PUSH2 0x2710 PUSH2 0xEC1 PUSH1 0x1 PUSH1 0x1 PUSH1 0x60 SHL SUB DUP5 AND DUP11 PUSH2 0x3703 JUMP JUMPDEST PUSH2 0xECB SWAP2 SWAP1 PUSH2 0x371A JUMP JUMPDEST SWAP3 SWAP7 POP SWAP2 SWAP5 POP POP POP POP POP JUMPDEST SWAP3 POP SWAP3 SWAP1 POP JUMP JUMPDEST PUSH2 0xEE6 DUP3 PUSH2 0xDF4 JUMP JUMPDEST PUSH2 0xEEF DUP2 PUSH2 0x1DA9 JUMP JUMPDEST PUSH2 0xD0C DUP4 DUP4 PUSH2 0x1F4A JUMP JUMPDEST PUSH1 0x1 PUSH1 0x1 PUSH1 0xA0 SHL SUB DUP2 AND CALLER EQ PUSH2 0xF22 JUMPI PUSH1 0x40 MLOAD PUSH4 0x334BD919 PUSH1 0xE1 SHL DUP2 MSTORE PUSH1 0x4 ADD PUSH1 0x40 MLOAD DUP1 SWAP2 SUB SWAP1 REVERT JUMPDEST PUSH2 0x83E DUP3 DUP3 PUSH2 0x21B6 JUMP JUMPDEST PUSH1 0x0 DUP1 MLOAD PUSH1 0x20 PUSH2 0x3A7B DUP4 CODECOPY DUP2 MLOAD SWAP2 MSTORE PUSH2 0xF44 DUP2 PUSH2 0x1DA9 JUMP JUMPDEST PUSH2 0xF4C PUSH2 0x2232 JUMP JUMPDEST POP JUMP JUMPDEST PUSH1 0x0 PUSH1 0x0 DUP1 MLOAD PUSH1 0x20 PUSH2 0x3A5B DUP4 CODECOPY DUP2 MLOAD SWAP2 MSTORE PUSH2 0xF69 DUP2 PUSH2 0x1DA9 JUMP JUMPDEST PUSH2 0xF71 PUSH2 0x1FEF JUMP JUMPDEST PUSH1 0x1 PUSH1 0x1 PUSH1 0xA0 SHL SUB DUP5 AND PUSH1 0x0 SWAP1 DUP2 MSTORE PUSH1 0x4 PUSH1 0x20 MSTORE PUSH1 0x40 SWAP1 KECCAK256 SLOAD PUSH1 0xFF AND ISZERO PUSH2 0xFAB JUMPI PUSH1 0x40 MLOAD PUSH4 0xE20C145 PUSH1 0xE4 SHL DUP2 MSTORE PUSH1 0x4 ADD PUSH1 0x40 MLOAD DUP1 SWAP2 SUB SWAP1 REVERT JUMPDEST PUSH1 0x0 PUSH2 0xFB6 DUP6 PUSH2 0x2292 JUMP JUMPDEST PUSH1 0x0 DUP2 DUP2 MSTORE PUSH1 0x7 PUSH1 0x20 SWAP1 DUP2 MSTORE PUSH1 0x40 SWAP2 DUP3 SWAP1 KECCAK256 DUP8 SWAP1 SSTORE SWAP1 MLOAD PUSH1 0x1 PUSH1 0x1 PUSH1 0x40 SHL SUB TIMESTAMP AND DUP2 MSTORE SWAP2 SWAP3 POP DUP6 SWAP2 DUP4 SWAP2 PUSH1 0x1 PUSH1 0x1 PUSH1 0xA0 SHL SUB DUP10 AND SWAP2 PUSH32 0xE12B57E28E06A581B8EEBAEDEED24926D3F834D55AC97A24B6AB3C2DF87FC8DA SWAP2 ADD PUSH1 0x40 MLOAD DUP1 SWAP2 SUB SWAP1 LOG4 SWAP2 POP PUSH2 0x1020 PUSH2 0x2044 JUMP JUMPDEST POP SWAP3 SWAP2 POP POP JUMP JUMPDEST PUSH2 0x102F PUSH2 0x1FEF JUMP JUMPDEST PUSH2 0x104A CALLER DUP4 DUP4 PUSH1 0x40 MLOAD DUP1 PUSH1 0x20 ADD PUSH1 0x40 MSTORE DUP1 PUSH1 0x0 DUP2 MSTORE POP PUSH2 0x2039 JUMP JUMPDEST PUSH2 0x907 PUSH2 0x2044 JUMP JUMPDEST PUSH2 0x83E DUP4 DUP4 DUP4 PUSH1 0x40 MLOAD DUP1 PUSH1 0x20 ADD PUSH1 0x40 MSTORE DUP1 PUSH1 0x0 DUP2 MSTORE POP PUSH2 0x1963 JUMP JUMPDEST PUSH2 0x1075 PUSH2 0x1FEF JUMP JUMPDEST CALLER PUSH2 0x107F DUP3 PUSH2 0x11EF JUMP JUMPDEST PUSH1 0x1 PUSH1 0x1 PUSH1 0xA0 SHL SUB AND EQ PUSH2 0x10A6 JUMPI PUSH1 0x40 MLOAD PUSH4 0xB8661397 PUSH1 0xE0 SHL DUP2 MSTORE PUSH1 0x4 ADD PUSH1 0x40 MLOAD DUP1 SWAP2 SUB SWAP1 REVERT JUMPDEST PUSH2 0x10AF DUP2 PUSH2 0x22B5 JUMP JUMPDEST PUSH1 0x0 DUP2 DUP2 MSTORE PUSH1 0x6 PUSH1 0x20 MSTORE PUSH1 0x40 SWAP1 DUP2 SWAP1 KECCAK256 DUP1 SLOAD PUSH8 0xFFFFFFFFFFFFFFFF NOT AND SWAP1 SSTORE MLOAD CALLER SWAP1 PUSH1 0x0 DUP1 MLOAD PUSH1 0x20 PUSH2 0x3ADB DUP4 CODECOPY DUP2 MLOAD SWAP2 MSTORE SWAP1 PUSH2 0x1100 SWAP1 DUP5 SWAP1 TIMESTAMP SWAP1 SWAP2 DUP3 MSTORE PUSH1 0x1 PUSH1 0x1 PUSH1 0x40 SHL SUB AND PUSH1 0x20 DUP3 ADD MSTORE PUSH1 0x40 ADD SWAP1 JUMP JUMPDEST PUSH1 0x40 MLOAD DUP1 SWAP2 SUB SWAP1 LOG2 PUSH2 0xF4C PUSH2 0x2044 JUMP JUMPDEST PUSH1 0x0 PUSH2 0x111B DUP2 PUSH2 0x1DA9 JUMP JUMPDEST PUSH2 0x11AF DUP3 PUSH1 0x1 DUP1 SLOAD PUSH2 0x112C SWAP1 PUSH2 0x35E1 JUMP JUMPDEST DUP1 PUSH1 0x1F ADD PUSH1 0x20 DUP1 SWAP2 DIV MUL PUSH1 0x20 ADD PUSH1 0x40 MLOAD SWAP1 DUP2 ADD PUSH1 0x40 MSTORE DUP1 SWAP3 SWAP2 SWAP1 DUP2 DUP2 MSTORE PUSH1 0x20 ADD DUP3 DUP1 SLOAD PUSH2 0x1158 SWAP1 PUSH2 0x35E1 JUMP JUMPDEST DUP1 ISZERO PUSH2 0x11A5 JUMPI DUP1 PUSH1 0x1F LT PUSH2 0x117A JUMPI PUSH2 0x100 DUP1 DUP4 SLOAD DIV MUL DUP4 MSTORE SWAP2 PUSH1 0x20 ADD SWAP2 PUSH2 0x11A5 JUMP JUMPDEST DUP3 ADD SWAP2 SWAP1 PUSH1 0x0 MSTORE PUSH1 0x20 PUSH1 0x0 KECCAK256 SWAP1 JUMPDEST DUP2 SLOAD DUP2 MSTORE SWAP1 PUSH1 0x1 ADD SWAP1 PUSH1 0x20 ADD DUP1 DUP4 GT PUSH2 0x1188 JUMPI DUP3 SWAP1 SUB PUSH1 0x1F AND DUP3 ADD SWAP2 JUMPDEST POP POP POP POP POP PUSH2 0x22F0 JUMP JUMPDEST ISZERO PUSH2 0x11CD JUMPI PUSH1 0x40 MLOAD PUSH4 0x4749B1BF PUSH1 0xE0 SHL DUP2 MSTORE PUSH1 0x4 ADD PUSH1 0x40 MLOAD DUP1 SWAP2 SUB SWAP1 REVERT JUMPDEST PUSH1 0x1 PUSH2 0x83E DUP4 DUP3 PUSH2 0x3784 JUMP JUMPDEST PUSH1 0x0 PUSH2 0x11E4 DUP2 PUSH2 0x1DA9 JUMP JUMPDEST PUSH2 0xD0C DUP5 DUP5 DUP5 PUSH2 0x2315 JUMP JUMPDEST PUSH1 0x0 PUSH2 0x823 DUP3 PUSH2 0x1E76 JUMP JUMPDEST PUSH1 0x1 DUP1 SLOAD PUSH2 0x1207 SWAP1 PUSH2 0x35E1 JUMP JUMPDEST DUP1 PUSH1 0x1F ADD PUSH1 0x20 DUP1 SWAP2 DIV MUL PUSH1 0x20 ADD PUSH1 0x40 MLOAD SWAP1 DUP2 ADD PUSH1 0x40 MSTORE DUP1 SWAP3 SWAP2 SWAP1 DUP2 DUP2 MSTORE PUSH1 0x20 ADD DUP3 DUP1 SLOAD PUSH2 0x1233 SWAP1 PUSH2 0x35E1 JUMP JUMPDEST DUP1 ISZERO PUSH2 0x1280 JUMPI DUP1 PUSH1 0x1F LT PUSH2 0x1255 JUMPI PUSH2 0x100 DUP1 DUP4 SLOAD DIV MUL DUP4 MSTORE SWAP2 PUSH1 0x20 ADD SWAP2 PUSH2 0x1280 JUMP JUMPDEST DUP3 ADD SWAP2 SWAP1 PUSH1 0x0 MSTORE PUSH1 0x20 PUSH1 0x0 KECCAK256 SWAP1 JUMPDEST DUP2 SLOAD DUP2 MSTORE SWAP1 PUSH1 0x1 ADD SWAP1 PUSH1 0x20 ADD DUP1 DUP4 GT PUSH2 0x1263 JUMPI DUP3 SWAP1 SUB PUSH1 0x1F AND DUP3 ADD SWAP2 JUMPDEST POP POP POP POP POP DUP2 JUMP JUMPDEST PUSH1 0x0 DUP1 MLOAD PUSH1 0x20 PUSH2 0x3A5B DUP4 CODECOPY DUP2 MLOAD SWAP2 MSTORE PUSH2 0x12A0 DUP2 PUSH2 0x1DA9 JUMP JUMPDEST PUSH2 0x12A8 PUSH2 0x1FEF JUMP JUMPDEST DUP4 PUSH1 0x0 DUP2 PUSH1 0x1 PUSH1 0x1 PUSH1 0x40 SHL SUB DUP2 GT ISZERO PUSH2 0x12C3 JUMPI PUSH2 0x12C3 PUSH2 0x2F66 JUMP JUMPDEST PUSH1 0x40 MLOAD SWAP1 DUP1 DUP3 MSTORE DUP1 PUSH1 0x20 MUL PUSH1 0x20 ADD DUP3 ADD PUSH1 0x40 MSTORE DUP1 ISZERO PUSH2 0x12EC JUMPI DUP2 PUSH1 0x20 ADD PUSH1 0x20 DUP3 MUL DUP1 CALLDATASIZE DUP4 CALLDATACOPY ADD SWAP1 POP JUMPDEST POP SWAP1 POP PUSH1 0x0 JUMPDEST DUP3 DUP2 LT ISZERO PUSH2 0x140A JUMPI PUSH1 0x4 PUSH1 0x0 DUP10 DUP10 DUP5 DUP2 DUP2 LT PUSH2 0x1310 JUMPI PUSH2 0x1310 PUSH2 0x361B JUMP JUMPDEST SWAP1 POP PUSH1 0x20 MUL ADD PUSH1 0x20 DUP2 ADD SWAP1 PUSH2 0x1325 SWAP2 SWAP1 PUSH2 0x3288 JUMP JUMPDEST PUSH1 0x1 PUSH1 0x1 PUSH1 0xA0 SHL SUB AND DUP2 MSTORE PUSH1 0x20 DUP2 ADD SWAP2 SWAP1 SWAP2 MSTORE PUSH1 0x40 ADD PUSH1 0x0 KECCAK256 SLOAD PUSH1 0xFF AND PUSH2 0x13E1 JUMPI PUSH2 0x1375 DUP9 DUP9 DUP4 DUP2 DUP2 LT PUSH2 0x135B JUMPI PUSH2 0x135B PUSH2 0x361B JUMP JUMPDEST SWAP1 POP PUSH1 0x20 MUL ADD PUSH1 0x20 DUP2 ADD SWAP1 PUSH2 0x1370 SWAP2 SWAP1 PUSH2 0x3288 JUMP JUMPDEST PUSH2 0x2292 JUMP JUMPDEST DUP3 DUP3 DUP2 MLOAD DUP2 LT PUSH2 0x1387 JUMPI PUSH2 0x1387 PUSH2 0x361B JUMP JUMPDEST PUSH1 0x20 MUL PUSH1 0x20 ADD ADD DUP2 DUP2 MSTORE POP POP DUP6 DUP6 DUP3 DUP2 DUP2 LT PUSH2 0x13A5 JUMPI PUSH2 0x13A5 PUSH2 0x361B JUMP JUMPDEST SWAP1 POP PUSH1 0x20 MUL ADD CALLDATALOAD PUSH1 0x7 PUSH1 0x0 DUP5 DUP5 DUP2 MLOAD DUP2 LT PUSH2 0x13C2 JUMPI PUSH2 0x13C2 PUSH2 0x361B JUMP JUMPDEST PUSH1 0x20 MUL PUSH1 0x20 ADD ADD MLOAD DUP2 MSTORE PUSH1 0x20 ADD SWAP1 DUP2 MSTORE PUSH1 0x20 ADD PUSH1 0x0 KECCAK256 DUP2 SWAP1 SSTORE POP PUSH2 0x1402 JUMP JUMPDEST PUSH1 0x0 DUP3 DUP3 DUP2 MLOAD DUP2 LT PUSH2 0x13F5 JUMPI PUSH2 0x13F5 PUSH2 0x361B JUMP JUMPDEST PUSH1 0x20 MUL PUSH1 0x20 ADD ADD DUP2 DUP2 MSTORE POP POP JUMPDEST PUSH1 0x1 ADD PUSH2 0x12F2 JUMP JUMPDEST POP PUSH32 0x3CF1C15ECFA6E152E879A5BCAEB4A2DBA10B2A6967F515EC5074DB04C995CE38 DUP8 DUP8 DUP4 DUP9 DUP9 TIMESTAMP PUSH1 0x40 MLOAD PUSH2 0x1444 SWAP7 SWAP6 SWAP5 SWAP4 SWAP3 SWAP2 SWAP1 PUSH2 0x3874 JUMP JUMPDEST PUSH1 0x40 MLOAD DUP1 SWAP2 SUB SWAP1 LOG1 POP POP PUSH2 0x1456 PUSH2 0x2044 JUMP JUMPDEST POP POP POP POP POP JUMP JUMPDEST PUSH1 0x0 PUSH1 0x0 DUP1 MLOAD PUSH1 0x20 PUSH2 0x3A3B DUP4 CODECOPY DUP2 MLOAD SWAP2 MSTORE PUSH1 0x1 PUSH1 0x1 PUSH1 0xA0 SHL SUB DUP4 AND PUSH2 0x1498 JUMPI PUSH1 0x40 MLOAD PUSH4 0x22718AD9 PUSH1 0xE2 SHL DUP2 MSTORE PUSH1 0x0 PUSH1 0x4 DUP3 ADD MSTORE PUSH1 0x24 ADD PUSH2 0xC4E JUMP JUMPDEST PUSH1 0x1 PUSH1 0x1 PUSH1 0xA0 SHL SUB SWAP1 SWAP3 AND PUSH1 0x0 SWAP1 DUP2 MSTORE PUSH1 0x3 SWAP1 SWAP3 ADD PUSH1 0x20 MSTORE POP PUSH1 0x40 SWAP1 KECCAK256 SLOAD SWAP1 JUMP JUMPDEST PUSH1 0x0 DUP1 MLOAD PUSH1 0x20 PUSH2 0x3A5B DUP4 CODECOPY DUP2 MLOAD SWAP2 MSTORE PUSH2 0x14D1 DUP2 PUSH2 0x1DA9 JUMP JUMPDEST PUSH2 0x14D9 PUSH2 0x1FEF JUMP JUMPDEST DUP3 PUSH1 0x1 PUSH1 0x1 PUSH1 0xA0 SHL SUB AND PUSH2 0x14EC DUP4 PUSH2 0x11EF JUMP JUMPDEST PUSH1 0x1 PUSH1 0x1 PUSH1 0xA0 SHL SUB AND EQ PUSH2 0x1513 JUMPI PUSH1 0x40 MLOAD PUSH4 0xB8661397 PUSH1 0xE0 SHL DUP2 MSTORE PUSH1 0x4 ADD PUSH1 0x40 MLOAD DUP1 SWAP2 SUB SWAP1 REVERT JUMPDEST PUSH2 0x151C DUP3 PUSH2 0x22B5 JUMP JUMPDEST PUSH1 0x0 DUP3 DUP2 MSTORE PUSH1 0x6 PUSH1 0x20 MSTORE PUSH1 0x40 SWAP1 DUP2 SWAP1 KECCAK256 DUP1 SLOAD PUSH8 0xFFFFFFFFFFFFFFFF NOT AND SWAP1 SSTORE MLOAD PUSH1 0x1 PUSH1 0x1 PUSH1 0xA0 SHL SUB DUP5 AND SWAP1 PUSH1 0x0 DUP1 MLOAD PUSH1 0x20 PUSH2 0x3ADB DUP4 CODECOPY DUP2 MLOAD SWAP2 MSTORE SWAP1 PUSH2 0x1576 SWAP1 DUP6 SWAP1 TIMESTAMP SWAP1 SWAP2 DUP3 MSTORE PUSH1 0x1 PUSH1 0x1 PUSH1 0x40 SHL SUB AND PUSH1 0x20 DUP3 ADD MSTORE PUSH1 0x40 ADD SWAP1 JUMP JUMPDEST PUSH1 0x40 MLOAD DUP1 SWAP2 SUB SWAP1 LOG2 PUSH2 0x83E PUSH2 0x2044 JUMP JUMPDEST PUSH1 0x0 DUP1 MLOAD PUSH1 0x20 PUSH2 0x3A5B DUP4 CODECOPY DUP2 MLOAD SWAP2 MSTORE PUSH2 0x159E DUP2 PUSH2 0x1DA9 JUMP JUMPDEST PUSH2 0x15A6 PUSH2 0x1FEF JUMP JUMPDEST PUSH1 0x1 PUSH1 0x1 PUSH1 0xA0 SHL SUB DUP5 AND PUSH1 0x0 SWAP1 DUP2 MSTORE PUSH1 0x4 PUSH1 0x20 MSTORE PUSH1 0x40 SWAP1 KECCAK256 SLOAD PUSH1 0xFF AND ISZERO PUSH2 0x15E0 JUMPI PUSH1 0x40 MLOAD PUSH4 0xE20C145 PUSH1 0xE4 SHL DUP2 MSTORE PUSH1 0x4 ADD PUSH1 0x40 MLOAD DUP1 SWAP2 SUB SWAP1 REVERT JUMPDEST PUSH2 0x15EA DUP5 DUP5 PUSH2 0x23FA JUMP JUMPDEST PUSH1 0x0 DUP4 DUP2 MSTORE PUSH1 0x7 PUSH1 0x20 SWAP1 DUP2 MSTORE PUSH1 0x40 SWAP2 DUP3 SWAP1 KECCAK256 DUP5 SWAP1 SSTORE SWAP1 MLOAD PUSH1 0x1 PUSH1 0x1 PUSH1 0x40 SHL SUB TIMESTAMP AND DUP2 MSTORE DUP4 SWAP2 DUP6 SWAP2 PUSH1 0x1 PUSH1 0x1 PUSH1 0xA0 SHL SUB DUP9 AND SWAP2 PUSH32 0xE12B57E28E06A581B8EEBAEDEED24926D3F834D55AC97A24B6AB3C2DF87FC8DA SWAP2 ADD PUSH1 0x40 MLOAD DUP1 SWAP2 SUB SWAP1 LOG4 PUSH2 0xD0C PUSH2 0x2044 JUMP JUMPDEST PUSH1 0x0 DUP1 MLOAD PUSH1 0x20 PUSH2 0x3A7B DUP4 CODECOPY DUP2 MLOAD SWAP2 MSTORE PUSH2 0x1667 DUP2 PUSH2 0x1DA9 JUMP JUMPDEST PUSH2 0xF4C PUSH2 0x245F JUMP JUMPDEST PUSH1 0x0 PUSH2 0x167A DUP2 PUSH2 0x1DA9 JUMP JUMPDEST POP PUSH1 0x0 SWAP1 DUP2 MSTORE PUSH32 0xDAEDC9AB023613A7CAF35E703657E986CCFAD7E3EB0AF93A2853F8D65DD86B01 PUSH1 0x20 MSTORE PUSH1 0x40 DUP2 KECCAK256 SSTORE JUMP JUMPDEST PUSH1 0x0 SWAP2 DUP3 MSTORE PUSH1 0x0 DUP1 MLOAD PUSH1 0x20 PUSH2 0x3A9B DUP4 CODECOPY DUP2 MLOAD SWAP2 MSTORE PUSH1 0x20 SWAP1 DUP2 MSTORE PUSH1 0x40 DUP1 DUP5 KECCAK256 PUSH1 0x1 PUSH1 0x1 PUSH1 0xA0 SHL SUB SWAP4 SWAP1 SWAP4 AND DUP5 MSTORE SWAP2 SWAP1 MSTORE SWAP1 KECCAK256 SLOAD PUSH1 0xFF AND SWAP1 JUMP JUMPDEST PUSH32 0x80BB2B638CC20BC4D0A60D66940F3AB4A00C1D7B313497CA82FB0B4AB0079301 DUP1 SLOAD PUSH1 0x60 SWAP2 PUSH1 0x0 DUP1 MLOAD PUSH1 0x20 PUSH2 0x3A3B DUP4 CODECOPY DUP2 MLOAD SWAP2 MSTORE SWAP2 PUSH2 0x863 SWAP1 PUSH2 0x35E1 JUMP JUMPDEST PUSH2 0x907 CALLER DUP4 DUP4 PUSH2 0x24A8 JUMP JUMPDEST PUSH1 0x0 DUP1 MLOAD PUSH1 0x20 PUSH2 0x3A5B DUP4 CODECOPY DUP2 MLOAD SWAP2 MSTORE PUSH2 0x1745 DUP2 PUSH2 0x1DA9 JUMP JUMPDEST PUSH2 0x174D PUSH2 0x1FEF JUMP JUMPDEST DUP4 MLOAD PUSH1 0x0 DUP2 PUSH1 0x1 PUSH1 0x1 PUSH1 0x40 SHL SUB DUP2 GT ISZERO PUSH2 0x1769 JUMPI PUSH2 0x1769 PUSH2 0x2F66 JUMP JUMPDEST PUSH1 0x40 MLOAD SWAP1 DUP1 DUP3 MSTORE DUP1 PUSH1 0x20 MUL PUSH1 0x20 ADD DUP3 ADD PUSH1 0x40 MSTORE DUP1 ISZERO PUSH2 0x1792 JUMPI DUP2 PUSH1 0x20 ADD PUSH1 0x20 DUP3 MUL DUP1 CALLDATASIZE DUP4 CALLDATACOPY ADD SWAP1 POP JUMPDEST POP SWAP1 POP PUSH1 0x0 JUMPDEST DUP3 DUP2 LT ISZERO PUSH2 0x1899 JUMPI PUSH1 0x4 PUSH1 0x0 DUP9 DUP4 DUP2 MLOAD DUP2 LT PUSH2 0x17B6 JUMPI PUSH2 0x17B6 PUSH2 0x361B JUMP JUMPDEST PUSH1 0x20 SWAP1 DUP2 MUL SWAP2 SWAP1 SWAP2 ADD DUP2 ADD MLOAD PUSH1 0x1 PUSH1 0x1 PUSH1 0xA0 SHL SUB AND DUP3 MSTORE DUP2 ADD SWAP2 SWAP1 SWAP2 MSTORE PUSH1 0x40 ADD PUSH1 0x0 KECCAK256 SLOAD PUSH1 0xFF AND PUSH2 0x1870 JUMPI PUSH2 0x1803 DUP8 DUP3 DUP2 MLOAD DUP2 LT PUSH2 0x17F6 JUMPI PUSH2 0x17F6 PUSH2 0x361B JUMP JUMPDEST PUSH1 0x20 MUL PUSH1 0x20 ADD ADD MLOAD PUSH2 0x2292 JUMP JUMPDEST DUP3 DUP3 DUP2 MLOAD DUP2 LT PUSH2 0x1815 JUMPI PUSH2 0x1815 PUSH2 0x361B JUMP JUMPDEST PUSH1 0x20 MUL PUSH1 0x20 ADD ADD DUP2 DUP2 MSTORE POP POP DUP6 DUP2 DUP2 MLOAD DUP2 LT PUSH2 0x1833 JUMPI PUSH2 0x1833 PUSH2 0x361B JUMP JUMPDEST PUSH1 0x20 MUL PUSH1 0x20 ADD ADD MLOAD PUSH1 0x7 PUSH1 0x0 DUP5 DUP5 DUP2 MLOAD DUP2 LT PUSH2 0x1851 JUMPI PUSH2 0x1851 PUSH2 0x361B JUMP JUMPDEST PUSH1 0x20 MUL PUSH1 0x20 ADD ADD MLOAD DUP2 MSTORE PUSH1 0x20 ADD SWAP1 DUP2 MSTORE PUSH1 0x20 ADD PUSH1 0x0 KECCAK256 DUP2 SWAP1 SSTORE POP PUSH2 0x1891 JUMP JUMPDEST PUSH1 0x0 DUP3 DUP3 DUP2 MLOAD DUP2 LT PUSH2 0x1884 JUMPI PUSH2 0x1884 PUSH2 0x361B JUMP JUMPDEST PUSH1 0x20 MUL PUSH1 0x20 ADD ADD DUP2 DUP2 MSTORE POP POP JUMPDEST PUSH1 0x1 ADD PUSH2 0x1798 JUMP JUMPDEST POP PUSH32 0xAF70433C6F3CC58B715C1A4F68D21A6F5BAD1BF0F0C510030F163ACC0DBFE81E DUP7 DUP3 DUP8 DUP8 TIMESTAMP PUSH1 0x40 MLOAD PUSH2 0x18D1 SWAP6 SWAP5 SWAP4 SWAP3 SWAP2 SWAP1 PUSH2 0x38CC JUMP JUMPDEST PUSH1 0x40 MLOAD DUP1 SWAP2 SUB SWAP1 LOG1 POP POP PUSH2 0xD0C PUSH2 0x2044 JUMP JUMPDEST PUSH1 0x0 PUSH2 0x18EE DUP2 PUSH2 0x1DA9 JUMP JUMPDEST PUSH1 0x0 SLOAD PUSH1 0x40 DUP1 MLOAD PUSH1 0x1 PUSH1 0x1 PUSH1 0xA0 SHL SUB SWAP3 DUP4 AND DUP2 MSTORE SWAP2 DUP5 AND PUSH1 0x20 DUP4 ADD MSTORE PUSH32 0xCC5DC080FF977B3C3A211FA63AB74F90F658F5BA9D3236E92C8F59570F442AAC SWAP2 ADD PUSH1 0x40 MLOAD DUP1 SWAP2 SUB SWAP1 LOG1 POP PUSH1 0x0 DUP1 SLOAD PUSH1 0x1 PUSH1 0x1 PUSH1 0xA0 SHL SUB NOT AND PUSH1 0x1 PUSH1 0x1 PUSH1 0xA0 SHL SUB SWAP3 SWAP1 SWAP3 AND SWAP2 SWAP1 SWAP2 OR SWAP1 SSTORE JUMP JUMPDEST PUSH1 0x0 PUSH2 0x823 DUP3 PUSH2 0x2559 JUMP JUMPDEST PUSH2 0x196E DUP5 DUP5 DUP5 PUSH2 0xD6F JUMP JUMPDEST PUSH2 0xD0C CALLER DUP6 DUP6 DUP6 DUP6 PUSH2 0x2593 JUMP JUMPDEST PUSH1 0x60 PUSH1 0x0 PUSH2 0x1987 PUSH2 0x26BD JUMP JUMPDEST SWAP1 POP PUSH1 0x0 DUP2 MLOAD GT PUSH2 0x19A7 JUMPI PUSH1 0x40 MLOAD DUP1 PUSH1 0x20 ADD PUSH1 0x40 MSTORE DUP1 PUSH1 0x0 DUP2 MSTORE POP PUSH2 0x19D2 JUMP JUMPDEST DUP1 PUSH2 0x19B1 DUP5 PUSH2 0x274F JUMP JUMPDEST PUSH1 0x40 MLOAD PUSH1 0x20 ADD PUSH2 0x19C2 SWAP3 SWAP2 SWAP1 PUSH2 0x3968 JUMP JUMPDEST PUSH1 0x40 MLOAD PUSH1 0x20 DUP2 DUP4 SUB SUB DUP2 MSTORE SWAP1 PUSH1 0x40 MSTORE JUMPDEST SWAP4 SWAP3 POP POP POP JUMP JUMPDEST PUSH1 0x0 PUSH2 0x19E4 DUP2 PUSH2 0x1DA9 JUMP JUMPDEST PUSH1 0x1 PUSH1 0x1 PUSH1 0xA0 SHL SUB DUP4 AND PUSH1 0x0 SWAP1 DUP2 MSTORE PUSH1 0x4 PUSH1 0x20 MSTORE PUSH1 0x40 SWAP1 KECCAK256 SLOAD PUSH1 0xFF AND ISZERO ISZERO DUP3 ISZERO ISZERO SUB PUSH2 0x1A23 JUMPI PUSH1 0x40 MLOAD PUSH4 0x4749B1BF PUSH1 0xE0 SHL DUP2 MSTORE PUSH1 0x4 ADD PUSH1 0x40 MLOAD DUP1 SWAP2 SUB SWAP1 REVERT JUMPDEST PUSH1 0x1 PUSH1 0x1 PUSH1 0xA0 SHL SUB DUP4 AND PUSH1 0x0 DUP2 DUP2 MSTORE PUSH1 0x4 PUSH1 0x20 SWAP1 DUP2 MSTORE PUSH1 0x40 SWAP2 DUP3 SWAP1 KECCAK256 DUP1 SLOAD PUSH1 0xFF NOT AND DUP7 ISZERO ISZERO SWAP1 DUP2 OR SWAP1 SWAP2 SSTORE SWAP2 MLOAD SWAP2 DUP3 MSTORE PUSH32 0x285D30726C52FA6D937C831072C13AFA1E31B5EC0C0C2C7ED72F48B59FA95E60 SWAP2 ADD PUSH2 0xC12 JUMP JUMPDEST PUSH2 0x1A84 DUP3 PUSH2 0xDF4 JUMP JUMPDEST PUSH2 0x1A8D DUP2 PUSH2 0x1DA9 JUMP JUMPDEST PUSH2 0xD0C DUP4 DUP4 PUSH2 0x21B6 JUMP JUMPDEST PUSH2 0x1A9F PUSH2 0x1FEF JUMP JUMPDEST PUSH1 0x0 JUMPDEST DUP2 MLOAD DUP2 LT ISZERO PUSH2 0x1B6E JUMPI PUSH1 0x0 DUP3 DUP3 DUP2 MLOAD DUP2 LT PUSH2 0x1ABF JUMPI PUSH2 0x1ABF PUSH2 0x361B JUMP JUMPDEST PUSH1 0x20 MUL PUSH1 0x20 ADD ADD MLOAD SWAP1 POP CALLER PUSH1 0x1 PUSH1 0x1 PUSH1 0xA0 SHL SUB AND PUSH2 0x1ADC DUP3 PUSH2 0x11EF JUMP JUMPDEST PUSH1 0x1 PUSH1 0x1 PUSH1 0xA0 SHL SUB AND EQ PUSH2 0x1B03 JUMPI PUSH1 0x40 MLOAD PUSH4 0xB8661397 PUSH1 0xE0 SHL DUP2 MSTORE PUSH1 0x4 ADD PUSH1 0x40 MLOAD DUP1 SWAP2 SUB SWAP1 REVERT JUMPDEST PUSH2 0x1B0C DUP2 PUSH2 0x22B5 JUMP JUMPDEST PUSH1 0x0 DUP2 DUP2 MSTORE PUSH1 0x6 PUSH1 0x20 MSTORE PUSH1 0x40 SWAP1 DUP2 SWAP1 KECCAK256 DUP1 SLOAD PUSH8 0xFFFFFFFFFFFFFFFF NOT AND SWAP1 SSTORE MLOAD CALLER SWAP1 PUSH1 0x0 DUP1 MLOAD PUSH1 0x20 PUSH2 0x3ADB DUP4 CODECOPY DUP2 MLOAD SWAP2 MSTORE SWAP1 PUSH2 0x1B5D SWAP1 DUP5 SWAP1 TIMESTAMP SWAP1 SWAP2 DUP3 MSTORE PUSH1 0x1 PUSH1 0x1 PUSH1 0x40 SHL SUB AND PUSH1 0x20 DUP3 ADD MSTORE PUSH1 0x40 ADD SWAP1 JUMP JUMPDEST PUSH1 0x40 MLOAD DUP1 SWAP2 SUB SWAP1 LOG2 POP PUSH1 0x1 ADD PUSH2 0x1AA2 JUMP JUMPDEST POP PUSH2 0xF4C PUSH2 0x2044 JUMP JUMPDEST PUSH1 0x1 PUSH1 0x1 PUSH1 0xA0 SHL SUB DUP2 AND PUSH1 0x0 SWAP1 DUP2 MSTORE PUSH1 0x5 PUSH1 0x20 MSTORE PUSH1 0x40 DUP2 KECCAK256 SLOAD PUSH1 0xFF AND ISZERO PUSH2 0x1BA0 JUMPI POP PUSH1 0x1 PUSH2 0x823 JUMP JUMPDEST PUSH1 0x1 PUSH1 0x1 PUSH1 0xA0 SHL SUB DUP1 DUP5 AND PUSH1 0x0 SWAP1 DUP2 MSTORE PUSH32 0x80BB2B638CC20BC4D0A60D66940F3AB4A00C1D7B313497CA82FB0B4AB0079305 PUSH1 0x20 SWAP1 DUP2 MSTORE PUSH1 0x40 DUP1 DUP4 KECCAK256 SWAP4 DUP7 AND DUP4 MSTORE SWAP3 SWAP1 MSTORE KECCAK256 SLOAD PUSH1 0xFF AND PUSH2 0x19D2 JUMP JUMPDEST PUSH1 0x0 DUP1 MLOAD PUSH1 0x20 PUSH2 0x3A5B DUP4 CODECOPY DUP2 MLOAD SWAP2 MSTORE PUSH2 0x1C05 DUP2 PUSH2 0x1DA9 JUMP JUMPDEST PUSH2 0x1C0D PUSH2 0x1FEF JUMP JUMPDEST PUSH1 0x0 JUMPDEST DUP3 MLOAD DUP2 LT ISZERO PUSH2 0x1CE5 JUMPI PUSH1 0x0 DUP4 DUP3 DUP2 MLOAD DUP2 LT PUSH2 0x1C2D JUMPI PUSH2 0x1C2D PUSH2 0x361B JUMP JUMPDEST PUSH1 0x20 MUL PUSH1 0x20 ADD ADD MLOAD SWAP1 POP DUP5 PUSH1 0x1 PUSH1 0x1 PUSH1 0xA0 SHL SUB AND PUSH2 0x1C4A DUP3 PUSH2 0x11EF JUMP JUMPDEST PUSH1 0x1 PUSH1 0x1 PUSH1 0xA0 SHL SUB AND EQ PUSH2 0x1C71 JUMPI PUSH1 0x40 MLOAD PUSH4 0xB8661397 PUSH1 0xE0 SHL DUP2 MSTORE PUSH1 0x4 ADD PUSH1 0x40 MLOAD DUP1 SWAP2 SUB SWAP1 REVERT JUMPDEST PUSH2 0x1C7A DUP2 PUSH2 0x22B5 JUMP JUMPDEST PUSH1 0x0 DUP2 DUP2 MSTORE PUSH1 0x6 PUSH1 0x20 MSTORE PUSH1 0x40 SWAP1 DUP2 SWAP1 KECCAK256 DUP1 SLOAD PUSH8 0xFFFFFFFFFFFFFFFF NOT AND SWAP1 SSTORE MLOAD PUSH1 0x1 PUSH1 0x1 PUSH1 0xA0 SHL SUB DUP7 AND SWAP1 PUSH1 0x0 DUP1 MLOAD PUSH1 0x20 PUSH2 0x3ADB DUP4 CODECOPY DUP2 MLOAD SWAP2 MSTORE SWAP1 PUSH2 0x1CD4 SWAP1 DUP5 SWAP1 TIMESTAMP SWAP1 SWAP2 DUP3 MSTORE PUSH1 0x1 PUSH1 0x1 PUSH1 0x40 SHL SUB AND PUSH1 0x20 DUP3 ADD MSTORE PUSH1 0x40 ADD SWAP1 JUMP JUMPDEST PUSH1 0x40 MLOAD DUP1 SWAP2 SUB SWAP1 LOG2 POP PUSH1 0x1 ADD PUSH2 0x1C10 JUMP JUMPDEST POP PUSH2 0x83E PUSH2 0x2044 JUMP JUMPDEST PUSH1 0x0 PUSH2 0x823 DUP3 PUSH2 0x27E1 JUMP JUMPDEST PUSH1 0x0 DUP1 MLOAD PUSH1 0x20 PUSH2 0x3A5B DUP4 CODECOPY DUP2 MLOAD SWAP2 MSTORE PUSH2 0x1D11 DUP2 PUSH2 0x1DA9 JUMP JUMPDEST PUSH2 0x1D19 PUSH2 0x1FEF JUMP JUMPDEST PUSH1 0x0 PUSH2 0x1D24 DUP6 PUSH2 0x2292 JUMP JUMPDEST PUSH1 0x40 DUP1 MLOAD PUSH1 0x1 PUSH1 0x1 PUSH1 0xA0 SHL SUB DUP9 AND DUP2 MSTORE PUSH1 0x20 DUP2 ADD DUP4 SWAP1 MSTORE SWAP1 DUP2 ADD DUP7 SWAP1 MSTORE PUSH1 0x60 DUP2 ADD DUP6 SWAP1 MSTORE PUSH1 0x1 PUSH1 0x1 PUSH1 0x40 SHL SUB TIMESTAMP AND PUSH1 0x80 DUP3 ADD MSTORE SWAP1 SWAP2 POP PUSH32 0x59DB9BE49E3B63E90A7323BE2118FC3624AE08B1CB574647AA85887B8F3C3FBA SWAP1 PUSH1 0xA0 ADD PUSH2 0xCFB JUMP JUMPDEST PUSH1 0x0 PUSH1 0x1 PUSH1 0x1 PUSH1 0xE0 SHL SUB NOT DUP3 AND PUSH4 0x152A902D PUSH1 0xE1 SHL EQ DUP1 PUSH2 0x823 JUMPI POP PUSH2 0x823 DUP3 PUSH2 0x282E JUMP JUMPDEST PUSH2 0xF4C DUP2 CALLER PUSH2 0x2853 JUMP JUMPDEST PUSH32 0xDAEDC9AB023613A7CAF35E703657E986CCFAD7E3EB0AF93A2853F8D65DD86B00 PUSH2 0x2710 PUSH1 0x1 PUSH1 0x1 PUSH1 0x60 SHL SUB DUP4 AND DUP2 LT ISZERO PUSH2 0x1E13 JUMPI PUSH1 0x40 MLOAD PUSH4 0x6F483D09 PUSH1 0xE0 SHL DUP2 MSTORE PUSH1 0x1 PUSH1 0x1 PUSH1 0x60 SHL SUB DUP5 AND PUSH1 0x4 DUP3 ADD MSTORE PUSH1 0x24 DUP2 ADD DUP3 SWAP1 MSTORE PUSH1 0x44 ADD PUSH2 0xC4E JUMP JUMPDEST PUSH1 0x1 PUSH1 0x1 PUSH1 0xA0 SHL SUB DUP5 AND PUSH2 0x1E3D JUMPI PUSH1 0x40 MLOAD PUSH4 0x5B6CC805 PUSH1 0xE1 SHL DUP2 MSTORE PUSH1 0x0 PUSH1 0x4 DUP3 ADD MSTORE PUSH1 0x24 ADD PUSH2 0xC4E JUMP JUMPDEST POP PUSH1 0x40 DUP1 MLOAD DUP1 DUP3 ADD SWAP1 SWAP2 MSTORE PUSH1 0x1 PUSH1 0x1 PUSH1 0xA0 SHL SUB SWAP1 SWAP4 AND DUP1 DUP5 MSTORE PUSH1 0x1 PUSH1 0x1 PUSH1 0x60 SHL SUB SWAP1 SWAP3 AND PUSH1 0x20 SWAP1 SWAP4 ADD DUP4 SWAP1 MSTORE PUSH1 0x1 PUSH1 0xA0 SHL SWAP1 SWAP3 MUL OR SWAP1 SSTORE JUMP JUMPDEST PUSH1 0x0 DUP1 PUSH2 0x1E82 DUP4 PUSH2 0x2559 JUMP JUMPDEST SWAP1 POP PUSH1 0x1 PUSH1 0x1 PUSH1 0xA0 SHL SUB DUP2 AND PUSH2 0x823 JUMPI PUSH1 0x40 MLOAD PUSH4 0x7E273289 PUSH1 0xE0 SHL DUP2 MSTORE PUSH1 0x4 DUP2 ADD DUP5 SWAP1 MSTORE PUSH1 0x24 ADD PUSH2 0xC4E JUMP JUMPDEST PUSH1 0x0 SWAP1 DUP2 MSTORE PUSH32 0x80BB2B638CC20BC4D0A60D66940F3AB4A00C1D7B313497CA82FB0B4AB0079304 PUSH1 0x20 MSTORE PUSH1 0x40 SWAP1 KECCAK256 SLOAD PUSH1 0x1 PUSH1 0x1 PUSH1 0xA0 SHL SUB AND SWAP1 JUMP JUMPDEST PUSH2 0x83E DUP4 DUP4 DUP4 PUSH1 0x1 PUSH2 0x288C JUMP JUMPDEST PUSH1 0x0 DUP1 PUSH32 0xF0C57E16840DF040F15088DC2F81FE391C3923BEC73E23A9662EFC9C229C6A00 PUSH2 0x823 JUMP JUMPDEST PUSH2 0x1F26 PUSH2 0x29A2 JUMP JUMPDEST PUSH2 0x907 DUP3 DUP3 PUSH2 0x29C7 JUMP JUMPDEST PUSH2 0x1F38 PUSH2 0x29A2 JUMP JUMPDEST JUMP JUMPDEST PUSH2 0x1F42 PUSH2 0x29A2 JUMP JUMPDEST PUSH2 0x1F38 PUSH2 0x29F8 JUMP JUMPDEST PUSH1 0x0 PUSH1 0x0 DUP1 MLOAD PUSH1 0x20 PUSH2 0x3A9B DUP4 CODECOPY DUP2 MLOAD SWAP2 MSTORE PUSH2 0x1F65 DUP5 DUP5 PUSH2 0x16AB JUMP JUMPDEST PUSH2 0x1FE5 JUMPI PUSH1 0x0 DUP5 DUP2 MSTORE PUSH1 0x20 DUP3 DUP2 MSTORE PUSH1 0x40 DUP1 DUP4 KECCAK256 PUSH1 0x1 PUSH1 0x1 PUSH1 0xA0 SHL SUB DUP8 AND DUP5 MSTORE SWAP1 SWAP2 MSTORE SWAP1 KECCAK256 DUP1 SLOAD PUSH1 0xFF NOT AND PUSH1 0x1 OR SWAP1 SSTORE PUSH2 0x1F9B CALLER SWAP1 JUMP JUMPDEST PUSH1 0x1 PUSH1 0x1 PUSH1 0xA0 SHL SUB AND DUP4 PUSH1 0x1 PUSH1 0x1 PUSH1 0xA0 SHL SUB AND DUP6 PUSH32 0x2F8788117E7EFF1D82E926EC794901D17C78024A50270940304540A733656F0D PUSH1 0x40 MLOAD PUSH1 0x40 MLOAD DUP1 SWAP2 SUB SWAP1 LOG4 PUSH1 0x1 SWAP2 POP POP PUSH2 0x823 JUMP JUMPDEST PUSH1 0x0 SWAP2 POP POP PUSH2 0x823 JUMP JUMPDEST PUSH32 0x9B779B17422D0DF92223018B32B4D1FA46E071723D6817E2486D003BECC55F00 DUP1 SLOAD PUSH1 0x1 NOT ADD PUSH2 0x2033 JUMPI PUSH1 0x40 MLOAD PUSH4 0x3EE5AEB5 PUSH1 0xE0 SHL DUP2 MSTORE PUSH1 0x4 ADD PUSH1 0x40 MLOAD DUP1 SWAP2 SUB SWAP1 REVERT JUMPDEST PUSH1 0x2 SWAP1 SSTORE JUMP JUMPDEST PUSH2 0x196E DUP5 DUP5 DUP5 PUSH2 0x2A00 JUMP JUMPDEST PUSH1 0x1 PUSH32 0x9B779B17422D0DF92223018B32B4D1FA46E071723D6817E2486D003BECC55F00 SSTORE JUMP JUMPDEST PUSH1 0x0 PUSH2 0x2074 PUSH2 0x2AB0 JUMP JUMPDEST PUSH1 0x0 PUSH2 0x207F DUP5 PUSH2 0x2559 JUMP JUMPDEST PUSH1 0x1 PUSH1 0x1 PUSH1 0xA0 SHL SUB DUP2 AND PUSH1 0x0 SWAP1 DUP2 MSTORE PUSH1 0x4 PUSH1 0x20 MSTORE PUSH1 0x40 SWAP1 KECCAK256 SLOAD SWAP1 SWAP2 POP PUSH1 0xFF AND ISZERO PUSH2 0x20BC JUMPI PUSH1 0x40 MLOAD PUSH4 0xE20C145 PUSH1 0xE4 SHL DUP2 MSTORE PUSH1 0x4 ADD PUSH1 0x40 MLOAD DUP1 SWAP2 SUB SWAP1 REVERT JUMPDEST PUSH2 0x20C5 DUP5 PUSH2 0x27E1 JUMP JUMPDEST DUP1 ISZERO PUSH2 0x20EA JUMPI POP PUSH1 0x1 PUSH1 0x1 PUSH1 0xA0 SHL SUB DUP2 AND PUSH1 0x0 SWAP1 DUP2 MSTORE PUSH1 0x5 PUSH1 0x20 MSTORE PUSH1 0x40 SWAP1 KECCAK256 SLOAD PUSH1 0xFF AND ISZERO JUMPDEST DUP1 ISZERO PUSH2 0x20FE JUMPI POP PUSH1 0x1 PUSH1 0x1 PUSH1 0xA0 SHL SUB DUP6 AND ISZERO ISZERO JUMPDEST ISZERO PUSH2 0x213F JUMPI PUSH1 0x0 DUP5 DUP2 MSTORE PUSH1 0x6 PUSH1 0x20 MSTORE PUSH1 0x40 SWAP1 DUP2 SWAP1 KECCAK256 SLOAD SWAP1 MLOAD PUSH4 0x14EFBC4D PUSH1 0xE0 SHL DUP2 MSTORE PUSH1 0x4 DUP2 ADD DUP7 SWAP1 MSTORE PUSH1 0x1 PUSH1 0x1 PUSH1 0x40 SHL SUB SWAP1 SWAP2 AND PUSH1 0x24 DUP3 ADD MSTORE PUSH1 0x44 ADD PUSH2 0xC4E JUMP JUMPDEST PUSH1 0x0 PUSH2 0x214C DUP7 DUP7 DUP7 PUSH2 0x2AE1 JUMP JUMPDEST SWAP1 POP PUSH1 0x1 PUSH1 0x1 PUSH1 0xA0 SHL SUB DUP3 AND ISZERO DUP1 ISZERO SWAP1 PUSH2 0x217F JUMPI POP PUSH1 0x1 PUSH1 0x1 PUSH1 0xA0 SHL SUB DUP7 AND PUSH1 0x0 SWAP1 DUP2 MSTORE PUSH1 0x5 PUSH1 0x20 MSTORE PUSH1 0x40 SWAP1 KECCAK256 SLOAD PUSH1 0xFF AND ISZERO JUMPDEST ISZERO PUSH2 0x21AD JUMPI PUSH1 0x0 DUP6 DUP2 MSTORE PUSH1 0x6 PUSH1 0x20 MSTORE PUSH1 0x40 SWAP1 KECCAK256 DUP1 SLOAD PUSH8 0xFFFFFFFFFFFFFFFF NOT AND TIMESTAMP PUSH1 0x1 PUSH1 0x1 PUSH1 0x40 SHL SUB AND OR SWAP1 SSTORE JUMPDEST SWAP6 SWAP5 POP POP POP POP POP JUMP JUMPDEST PUSH1 0x0 PUSH1 0x0 DUP1 MLOAD PUSH1 0x20 PUSH2 0x3A9B DUP4 CODECOPY DUP2 MLOAD SWAP2 MSTORE PUSH2 0x21D1 DUP5 DUP5 PUSH2 0x16AB JUMP JUMPDEST ISZERO PUSH2 0x1FE5 JUMPI PUSH1 0x0 DUP5 DUP2 MSTORE PUSH1 0x20 DUP3 DUP2 MSTORE PUSH1 0x40 DUP1 DUP4 KECCAK256 PUSH1 0x1 PUSH1 0x1 PUSH1 0xA0 SHL SUB DUP8 AND DUP1 DUP6 MSTORE SWAP3 MSTORE DUP1 DUP4 KECCAK256 DUP1 SLOAD PUSH1 0xFF NOT AND SWAP1 SSTORE MLOAD CALLER SWAP3 DUP8 SWAP2 PUSH32 0xF6391F5C32D9C69D2A47EA670B442974B53935D1EDC7FD64EB21E047A839171B SWAP2 SWAP1 LOG4 PUSH1 0x1 SWAP2 POP POP PUSH2 0x823 JUMP JUMPDEST PUSH2 0x223A PUSH2 0x2BEB JUMP JUMPDEST PUSH1 0x0 DUP1 MLOAD PUSH1 0x20 PUSH2 0x3ABB DUP4 CODECOPY DUP2 MLOAD SWAP2 MSTORE DUP1 SLOAD PUSH1 0xFF NOT AND DUP2 SSTORE PUSH32 0x5DB9EE0A495BF2E6FF9C91A7834C1BA4FDD244A5E8AA4E537BD38AEAE4B073AA CALLER JUMPDEST PUSH1 0x40 MLOAD PUSH1 0x1 PUSH1 0x1 PUSH1 0xA0 SHL SUB SWAP1 SWAP2 AND DUP2 MSTORE PUSH1 0x20 ADD PUSH1 0x40 MLOAD DUP1 SWAP2 SUB SWAP1 LOG1 POP JUMP JUMPDEST PUSH1 0x2 DUP1 SLOAD PUSH1 0x0 SWAP2 DUP3 PUSH2 0x22A3 DUP4 PUSH2 0x39A7 JUMP JUMPDEST SWAP1 SWAP2 SSTORE POP POP PUSH1 0x2 SLOAD PUSH2 0x823 DUP4 DUP3 PUSH2 0x23FA JUMP JUMPDEST PUSH1 0x0 PUSH2 0x22C4 PUSH1 0x0 DUP4 PUSH1 0x0 PUSH2 0x206A JUMP JUMPDEST SWAP1 POP PUSH1 0x1 PUSH1 0x1 PUSH1 0xA0 SHL SUB DUP2 AND PUSH2 0x907 JUMPI PUSH1 0x40 MLOAD PUSH4 0x7E273289 PUSH1 0xE0 SHL DUP2 MSTORE PUSH1 0x4 DUP2 ADD DUP4 SWAP1 MSTORE PUSH1 0x24 ADD PUSH2 0xC4E JUMP JUMPDEST PUSH1 0x0 DUP2 MLOAD DUP4 MLOAD EQ DUP1 ISZERO PUSH2 0x19D2 JUMPI POP POP DUP1 MLOAD PUSH1 0x20 SWAP2 DUP3 ADD KECCAK256 DUP3 MLOAD SWAP3 SWAP1 SWAP2 ADD SWAP2 SWAP1 SWAP2 KECCAK256 EQ SWAP1 JUMP JUMPDEST PUSH32 0xDAEDC9AB023613A7CAF35E703657E986CCFAD7E3EB0AF93A2853F8D65DD86B00 PUSH2 0x2710 PUSH1 0x1 PUSH1 0x1 PUSH1 0x60 SHL SUB DUP4 AND DUP2 LT ISZERO PUSH2 0x237C JUMPI PUSH1 0x40 MLOAD PUSH4 0xDFD1FC1B PUSH1 0xE0 SHL DUP2 MSTORE PUSH1 0x4 DUP2 ADD DUP7 SWAP1 MSTORE PUSH1 0x1 PUSH1 0x1 PUSH1 0x60 SHL SUB DUP5 AND PUSH1 0x24 DUP3 ADD MSTORE PUSH1 0x44 DUP2 ADD DUP3 SWAP1 MSTORE PUSH1 0x64 ADD PUSH2 0xC4E JUMP JUMPDEST PUSH1 0x1 PUSH1 0x1 PUSH1 0xA0 SHL SUB DUP5 AND PUSH2 0x23AD JUMPI PUSH1 0x40 MLOAD PUSH4 0x4B4F8429 PUSH1 0xE1 SHL DUP2 MSTORE PUSH1 0x4 DUP2 ADD DUP7 SWAP1 MSTORE PUSH1 0x0 PUSH1 0x24 DUP3 ADD MSTORE PUSH1 0x44 ADD PUSH2 0xC4E JUMP JUMPDEST POP PUSH1 0x40 DUP1 MLOAD DUP1 DUP3 ADD DUP3 MSTORE PUSH1 0x1 PUSH1 0x1 PUSH1 0xA0 SHL SUB SWAP5 DUP6 AND DUP2 MSTORE PUSH1 0x1 PUSH1 0x1 PUSH1 0x60 SHL SUB SWAP4 DUP5 AND PUSH1 0x20 DUP1 DUP4 ADD SWAP2 DUP3 MSTORE PUSH1 0x0 SWAP8 DUP9 MSTORE PUSH1 0x1 SWAP1 SWAP5 ADD SWAP1 SWAP4 MSTORE SWAP5 KECCAK256 SWAP4 MLOAD SWAP1 MLOAD SWAP1 SWAP2 AND PUSH1 0x1 PUSH1 0xA0 SHL MUL SWAP2 AND OR SWAP1 SSTORE JUMP JUMPDEST PUSH1 0x1 PUSH1 0x1 PUSH1 0xA0 SHL SUB DUP3 AND PUSH2 0x2424 JUMPI PUSH1 0x40 MLOAD PUSH4 0x32505749 PUSH1 0xE1 SHL DUP2 MSTORE PUSH1 0x0 PUSH1 0x4 DUP3 ADD MSTORE PUSH1 0x24 ADD PUSH2 0xC4E JUMP JUMPDEST PUSH1 0x0 PUSH2 0x2432 DUP4 DUP4 PUSH1 0x0 PUSH2 0x206A JUMP JUMPDEST SWAP1 POP PUSH1 0x1 PUSH1 0x1 PUSH1 0xA0 SHL SUB DUP2 AND ISZERO PUSH2 0x83E JUMPI PUSH1 0x40 MLOAD PUSH4 0x39E35637 PUSH1 0xE1 SHL DUP2 MSTORE PUSH1 0x0 PUSH1 0x4 DUP3 ADD MSTORE PUSH1 0x24 ADD PUSH2 0xC4E JUMP JUMPDEST PUSH2 0x2467 PUSH2 0x2AB0 JUMP JUMPDEST PUSH1 0x0 DUP1 MLOAD PUSH1 0x20 PUSH2 0x3ABB DUP4 CODECOPY DUP2 MLOAD SWAP2 MSTORE DUP1 SLOAD PUSH1 0xFF NOT AND PUSH1 0x1 OR DUP2 SSTORE PUSH32 0x62E78CEA01BEE320CD4E420270B5EA74000D11B0C9F74754EBDBFC544B05A258 CALLER PUSH2 0x2274 JUMP JUMPDEST PUSH1 0x0 DUP1 MLOAD PUSH1 0x20 PUSH2 0x3A3B DUP4 CODECOPY DUP2 MLOAD SWAP2 MSTORE PUSH1 0x1 PUSH1 0x1 PUSH1 0xA0 SHL SUB DUP4 AND PUSH2 0x24E9 JUMPI PUSH1 0x40 MLOAD PUSH4 0xB611743 PUSH1 0xE3 SHL DUP2 MSTORE PUSH1 0x1 PUSH1 0x1 PUSH1 0xA0 SHL SUB DUP5 AND PUSH1 0x4 DUP3 ADD MSTORE PUSH1 0x24 ADD PUSH2 0xC4E JUMP JUMPDEST PUSH1 0x1 PUSH1 0x1 PUSH1 0xA0 SHL SUB DUP5 DUP2 AND PUSH1 0x0 DUP2 DUP2 MSTORE PUSH1 0x5 DUP5 ADD PUSH1 0x20 SWAP1 DUP2 MSTORE PUSH1 0x40 DUP1 DUP4 KECCAK256 SWAP5 DUP9 AND DUP1 DUP5 MSTORE SWAP5 DUP3 MSTORE SWAP2 DUP3 SWAP1 KECCAK256 DUP1 SLOAD PUSH1 0xFF NOT AND DUP8 ISZERO ISZERO SWAP1 DUP2 OR SWAP1 SWAP2 SSTORE SWAP2 MLOAD SWAP2 DUP3 MSTORE PUSH32 0x17307EAB39AB6107E8899845AD3D59BD9653F200F220920489CA2B5937696C31 SWAP2 ADD PUSH1 0x40 MLOAD DUP1 SWAP2 SUB SWAP1 LOG3 POP POP POP POP JUMP JUMPDEST PUSH1 0x0 SWAP1 DUP2 MSTORE PUSH32 0x80BB2B638CC20BC4D0A60D66940F3AB4A00C1D7B313497CA82FB0B4AB0079302 PUSH1 0x20 MSTORE PUSH1 0x40 SWAP1 KECCAK256 SLOAD PUSH1 0x1 PUSH1 0x1 PUSH1 0xA0 SHL SUB AND SWAP1 JUMP JUMPDEST PUSH1 0x1 PUSH1 0x1 PUSH1 0xA0 SHL SUB DUP4 AND EXTCODESIZE ISZERO PUSH2 0x1456 JUMPI PUSH1 0x40 MLOAD PUSH4 0xA85BD01 PUSH1 0xE1 SHL DUP2 MSTORE PUSH1 0x1 PUSH1 0x1 PUSH1 0xA0 SHL SUB DUP5 AND SWAP1 PUSH4 0x150B7A02 SWAP1 PUSH2 0x25D5 SWAP1 DUP9 SWAP1 DUP9 SWAP1 DUP8 SWAP1 DUP8 SWAP1 PUSH1 0x4 ADD PUSH2 0x39C0 JUMP JUMPDEST PUSH1 0x20 PUSH1 0x40 MLOAD DUP1 DUP4 SUB DUP2 PUSH1 0x0 DUP8 GAS CALL SWAP3 POP POP POP DUP1 ISZERO PUSH2 0x2610 JUMPI POP PUSH1 0x40 DUP1 MLOAD PUSH1 0x1F RETURNDATASIZE SWAP1 DUP2 ADD PUSH1 0x1F NOT AND DUP3 ADD SWAP1 SWAP3 MSTORE PUSH2 0x260D SWAP2 DUP2 ADD SWAP1 PUSH2 0x39FD JUMP JUMPDEST PUSH1 0x1 JUMPDEST PUSH2 0x2679 JUMPI RETURNDATASIZE DUP1 DUP1 ISZERO PUSH2 0x263E JUMPI PUSH1 0x40 MLOAD SWAP2 POP PUSH1 0x1F NOT PUSH1 0x3F RETURNDATASIZE ADD AND DUP3 ADD PUSH1 0x40 MSTORE RETURNDATASIZE DUP3 MSTORE RETURNDATASIZE PUSH1 0x0 PUSH1 0x20 DUP5 ADD RETURNDATACOPY PUSH2 0x2643 JUMP JUMPDEST PUSH1 0x60 SWAP2 POP JUMPDEST POP DUP1 MLOAD PUSH1 0x0 SUB PUSH2 0x2671 JUMPI PUSH1 0x40 MLOAD PUSH4 0x32505749 PUSH1 0xE1 SHL DUP2 MSTORE PUSH1 0x1 PUSH1 0x1 PUSH1 0xA0 SHL SUB DUP6 AND PUSH1 0x4 DUP3 ADD MSTORE PUSH1 0x24 ADD PUSH2 0xC4E JUMP JUMPDEST DUP1 MLOAD DUP2 PUSH1 0x20 ADD REVERT JUMPDEST PUSH1 0x1 PUSH1 0x1 PUSH1 0xE0 SHL SUB NOT DUP2 AND PUSH4 0xA85BD01 PUSH1 0xE1 SHL EQ PUSH2 0x26B5 JUMPI PUSH1 0x40 MLOAD PUSH4 0x32505749 PUSH1 0xE1 SHL DUP2 MSTORE PUSH1 0x1 PUSH1 0x1 PUSH1 0xA0 SHL SUB DUP6 AND PUSH1 0x4 DUP3 ADD MSTORE PUSH1 0x24 ADD PUSH2 0xC4E JUMP JUMPDEST POP POP POP POP POP POP JUMP JUMPDEST PUSH1 0x60 PUSH1 0x1 DUP1 SLOAD PUSH2 0x26CC SWAP1 PUSH2 0x35E1 JUMP JUMPDEST DUP1 PUSH1 0x1F ADD PUSH1 0x20 DUP1 SWAP2 DIV MUL PUSH1 0x20 ADD PUSH1 0x40 MLOAD SWAP1 DUP2 ADD PUSH1 0x40 MSTORE DUP1 SWAP3 SWAP2 SWAP1 DUP2 DUP2 MSTORE PUSH1 0x20 ADD DUP3 DUP1 SLOAD PUSH2 0x26F8 SWAP1 PUSH2 0x35E1 JUMP JUMPDEST DUP1 ISZERO PUSH2 0x2745 JUMPI DUP1 PUSH1 0x1F LT PUSH2 0x271A JUMPI PUSH2 0x100 DUP1 DUP4 SLOAD DIV MUL DUP4 MSTORE SWAP2 PUSH1 0x20 ADD SWAP2 PUSH2 0x2745 JUMP JUMPDEST DUP3 ADD SWAP2 SWAP1 PUSH1 0x0 MSTORE PUSH1 0x20 PUSH1 0x0 KECCAK256 SWAP1 JUMPDEST DUP2 SLOAD DUP2 MSTORE SWAP1 PUSH1 0x1 ADD SWAP1 PUSH1 0x20 ADD DUP1 DUP4 GT PUSH2 0x2728 JUMPI DUP3 SWAP1 SUB PUSH1 0x1F AND DUP3 ADD SWAP2 JUMPDEST POP POP POP POP POP SWAP1 POP SWAP1 JUMP JUMPDEST PUSH1 0x60 PUSH1 0x0 PUSH2 0x275C DUP4 PUSH2 0x2C1B JUMP JUMPDEST PUSH1 0x1 ADD SWAP1 POP PUSH1 0x0 DUP2 PUSH1 0x1 PUSH1 0x1 PUSH1 0x40 SHL SUB DUP2 GT ISZERO PUSH2 0x277B JUMPI PUSH2 0x277B PUSH2 0x2F66 JUMP JUMPDEST PUSH1 0x40 MLOAD SWAP1 DUP1 DUP3 MSTORE DUP1 PUSH1 0x1F ADD PUSH1 0x1F NOT AND PUSH1 0x20 ADD DUP3 ADD PUSH1 0x40 MSTORE DUP1 ISZERO PUSH2 0x27A5 JUMPI PUSH1 0x20 DUP3 ADD DUP2 DUP1 CALLDATASIZE DUP4 CALLDATACOPY ADD SWAP1 POP JUMPDEST POP SWAP1 POP DUP2 DUP2 ADD PUSH1 0x20 ADD JUMPDEST PUSH1 0x0 NOT ADD PUSH16 0x181899199A1A9B1B9C1CB0B131B232B3 PUSH1 0x81 SHL PUSH1 0xA DUP7 MOD BYTE DUP2 MSTORE8 PUSH1 0xA DUP6 DIV SWAP5 POP DUP5 PUSH2 0x27AF JUMPI POP SWAP4 SWAP3 POP POP POP JUMP JUMPDEST PUSH1 0x0 DUP2 DUP2 MSTORE PUSH1 0x6 PUSH1 0x20 MSTORE PUSH1 0x40 DUP2 KECCAK256 SLOAD PUSH1 0x1 PUSH1 0x1 PUSH1 0x40 SHL SUB AND DUP1 ISZERO DUP1 ISZERO SWAP1 PUSH2 0x19D2 JUMPI POP PUSH1 0x3 SLOAD PUSH1 0x1 PUSH1 0x1 PUSH1 0x40 SHL SUB TIMESTAMP DUP2 AND SWAP2 PUSH2 0x281D SWAP2 AND DUP4 PUSH2 0x3A1A JUMP JUMPDEST PUSH1 0x1 PUSH1 0x1 PUSH1 0x40 SHL SUB AND GT SWAP4 SWAP3 POP POP POP JUMP JUMPDEST PUSH1 0x0 PUSH1 0x1 PUSH1 0x1 PUSH1 0xE0 SHL SUB NOT DUP3 AND PUSH4 0x7965DB0B PUSH1 0xE0 SHL EQ DUP1 PUSH2 0x823 JUMPI POP PUSH2 0x823 DUP3 PUSH2 0x2CF3 JUMP JUMPDEST PUSH2 0x285D DUP3 DUP3 PUSH2 0x16AB JUMP JUMPDEST PUSH2 0x907 JUMPI PUSH1 0x40 MLOAD PUSH4 0xE2517D3F PUSH1 0xE0 SHL DUP2 MSTORE PUSH1 0x1 PUSH1 0x1 PUSH1 0xA0 SHL SUB DUP3 AND PUSH1 0x4 DUP3 ADD MSTORE PUSH1 0x24 DUP2 ADD DUP4 SWAP1 MSTORE PUSH1 0x44 ADD PUSH2 0xC4E JUMP JUMPDEST PUSH1 0x0 DUP1 MLOAD PUSH1 0x20 PUSH2 0x3A3B DUP4 CODECOPY DUP2 MLOAD SWAP2 MSTORE DUP2 DUP1 PUSH2 0x28AF JUMPI POP PUSH1 0x1 PUSH1 0x1 PUSH1 0xA0 SHL SUB DUP4 AND ISZERO ISZERO JUMPDEST ISZERO PUSH2 0x2971 JUMPI PUSH1 0x0 PUSH2 0x28BF DUP6 PUSH2 0x1E76 JUMP JUMPDEST SWAP1 POP PUSH1 0x1 PUSH1 0x1 PUSH1 0xA0 SHL SUB DUP5 AND ISZERO DUP1 ISZERO SWAP1 PUSH2 0x28EB JUMPI POP DUP4 PUSH1 0x1 PUSH1 0x1 PUSH1 0xA0 SHL SUB AND DUP2 PUSH1 0x1 PUSH1 0x1 PUSH1 0xA0 SHL SUB AND EQ ISZERO JUMPDEST DUP1 ISZERO PUSH2 0x28FE JUMPI POP PUSH2 0x28FC DUP2 DUP6 PUSH2 0x1B77 JUMP JUMPDEST ISZERO JUMPDEST ISZERO PUSH2 0x2927 JUMPI PUSH1 0x40 MLOAD PUSH4 0xA9FBF51F PUSH1 0xE0 SHL DUP2 MSTORE PUSH1 0x1 PUSH1 0x1 PUSH1 0xA0 SHL SUB DUP6 AND PUSH1 0x4 DUP3 ADD MSTORE PUSH1 0x24 ADD PUSH2 0xC4E JUMP JUMPDEST DUP3 ISZERO PUSH2 0x296F JUMPI DUP5 DUP7 PUSH1 0x1 PUSH1 0x1 PUSH1 0xA0 SHL SUB AND DUP3 PUSH1 0x1 PUSH1 0x1 PUSH1 0xA0 SHL SUB AND PUSH32 0x8C5BE1E5EBEC7D5BD14F71427D1E84F3DD0314C0F7B2291E5B200AC8C7C3B925 PUSH1 0x40 MLOAD PUSH1 0x40 MLOAD DUP1 SWAP2 SUB SWAP1 LOG4 JUMPDEST POP JUMPDEST PUSH1 0x0 SWAP4 DUP5 MSTORE PUSH1 0x4 ADD PUSH1 0x20 MSTORE POP POP PUSH1 0x40 SWAP1 KECCAK256 DUP1 SLOAD PUSH1 0x1 PUSH1 0x1 PUSH1 0xA0 SHL SUB NOT AND PUSH1 0x1 PUSH1 0x1 PUSH1 0xA0 SHL SUB SWAP3 SWAP1 SWAP3 AND SWAP2 SWAP1 SWAP2 OR SWAP1 SSTORE JUMP JUMPDEST PUSH2 0x29AA PUSH2 0x2D43 JUMP JUMPDEST PUSH2 0x1F38 JUMPI PUSH1 0x40 MLOAD PUSH4 0x1AFCD79F PUSH1 0xE3 SHL DUP2 MSTORE PUSH1 0x4 ADD PUSH1 0x40 MLOAD DUP1 SWAP2 SUB SWAP1 REVERT JUMPDEST PUSH2 0x29CF PUSH2 0x29A2 JUMP JUMPDEST PUSH1 0x0 DUP1 MLOAD PUSH1 0x20 PUSH2 0x3A3B DUP4 CODECOPY DUP2 MLOAD SWAP2 MSTORE DUP1 PUSH2 0x29E9 DUP5 DUP3 PUSH2 0x3784 JUMP JUMPDEST POP PUSH1 0x1 DUP2 ADD PUSH2 0xD0C DUP4 DUP3 PUSH2 0x3784 JUMP JUMPDEST PUSH2 0x2044 PUSH2 0x29A2 JUMP JUMPDEST PUSH1 0x1 PUSH1 0x1 PUSH1 0xA0 SHL SUB DUP3 AND PUSH2 0x2A2A JUMPI PUSH1 0x40 MLOAD PUSH4 0x32505749 PUSH1 0xE1 SHL DUP2 MSTORE PUSH1 0x0 PUSH1 0x4 DUP3 ADD MSTORE PUSH1 0x24 ADD PUSH2 0xC4E JUMP JUMPDEST PUSH1 0x0 PUSH2 0x2A38 DUP4 DUP4 PUSH1 0x0 PUSH2 0x206A JUMP JUMPDEST SWAP1 POP PUSH1 0x1 PUSH1 0x1 PUSH1 0xA0 SHL SUB DUP2 AND PUSH2 0x2A64 JUMPI PUSH1 0x40 MLOAD PUSH4 0x7E273289 PUSH1 0xE0 SHL DUP2 MSTORE PUSH1 0x4 DUP2 ADD DUP4 SWAP1 MSTORE PUSH1 0x24 ADD PUSH2 0xC4E JUMP JUMPDEST DUP4 PUSH1 0x1 PUSH1 0x1 PUSH1 0xA0 SHL SUB AND DUP2 PUSH1 0x1 PUSH1 0x1 PUSH1 0xA0 SHL SUB AND EQ PUSH2 0xD0C JUMPI PUSH1 0x40 MLOAD PUSH4 0x64283D7B PUSH1 0xE0 SHL DUP2 MSTORE PUSH1 0x1 PUSH1 0x1 PUSH1 0xA0 SHL SUB DUP1 DUP7 AND PUSH1 0x4 DUP4 ADD MSTORE PUSH1 0x24 DUP3 ADD DUP5 SWAP1 MSTORE DUP3 AND PUSH1 0x44 DUP3 ADD MSTORE PUSH1 0x64 ADD PUSH2 0xC4E JUMP JUMPDEST PUSH1 0x0 DUP1 MLOAD PUSH1 0x20 PUSH2 0x3ABB DUP4 CODECOPY DUP2 MLOAD SWAP2 MSTORE SLOAD PUSH1 0xFF AND ISZERO PUSH2 0x1F38 JUMPI PUSH1 0x40 MLOAD PUSH4 0xD93C0665 PUSH1 0xE0 SHL DUP2 MSTORE PUSH1 0x4 ADD PUSH1 0x40 MLOAD DUP1 SWAP2 SUB SWAP1 REVERT JUMPDEST PUSH1 0x0 PUSH1 0x0 DUP1 MLOAD PUSH1 0x20 PUSH2 0x3A3B DUP4 CODECOPY DUP2 MLOAD SWAP2 MSTORE DUP2 PUSH2 0x2AFC DUP6 PUSH2 0x2559 JUMP JUMPDEST SWAP1 POP PUSH1 0x1 PUSH1 0x1 PUSH1 0xA0 SHL SUB DUP5 AND ISZERO PUSH2 0x2B18 JUMPI PUSH2 0x2B18 DUP2 DUP6 DUP8 PUSH2 0x2D5D JUMP JUMPDEST PUSH1 0x1 PUSH1 0x1 PUSH1 0xA0 SHL SUB DUP2 AND ISZERO PUSH2 0x2B58 JUMPI PUSH2 0x2B35 PUSH1 0x0 DUP7 PUSH1 0x0 DUP1 PUSH2 0x288C JUMP JUMPDEST PUSH1 0x1 PUSH1 0x1 PUSH1 0xA0 SHL SUB DUP2 AND PUSH1 0x0 SWAP1 DUP2 MSTORE PUSH1 0x3 DUP4 ADD PUSH1 0x20 MSTORE PUSH1 0x40 SWAP1 KECCAK256 DUP1 SLOAD PUSH1 0x0 NOT ADD SWAP1 SSTORE JUMPDEST PUSH1 0x1 PUSH1 0x1 PUSH1 0xA0 SHL SUB DUP7 AND ISZERO PUSH2 0x2B89 JUMPI PUSH1 0x1 PUSH1 0x1 PUSH1 0xA0 SHL SUB DUP7 AND PUSH1 0x0 SWAP1 DUP2 MSTORE PUSH1 0x3 DUP4 ADD PUSH1 0x20 MSTORE PUSH1 0x40 SWAP1 KECCAK256 DUP1 SLOAD PUSH1 0x1 ADD SWAP1 SSTORE JUMPDEST PUSH1 0x0 DUP6 DUP2 MSTORE PUSH1 0x2 DUP4 ADD PUSH1 0x20 MSTORE PUSH1 0x40 DUP1 DUP3 KECCAK256 DUP1 SLOAD PUSH1 0x1 PUSH1 0x1 PUSH1 0xA0 SHL SUB NOT AND PUSH1 0x1 PUSH1 0x1 PUSH1 0xA0 SHL SUB DUP11 DUP2 AND SWAP2 DUP3 OR SWAP1 SWAP3 SSTORE SWAP2 MLOAD DUP9 SWAP4 SWAP2 DUP6 AND SWAP2 PUSH32 0xDDF252AD1BE2C89B69C2B068FC378DAA952BA7F163C4A11628F55A4DF523B3EF SWAP2 LOG4 SWAP6 SWAP5 POP POP POP POP POP JUMP JUMPDEST PUSH1 0x0 DUP1 MLOAD PUSH1 0x20 PUSH2 0x3ABB DUP4 CODECOPY DUP2 MLOAD SWAP2 MSTORE SLOAD PUSH1 0xFF AND PUSH2 0x1F38 JUMPI PUSH1 0x40 MLOAD PUSH4 0x8DFC202B PUSH1 0xE0 SHL DUP2 MSTORE PUSH1 0x4 ADD PUSH1 0x40 MLOAD DUP1 SWAP2 SUB SWAP1 REVERT JUMPDEST PUSH1 0x0 DUP1 PUSH19 0x184F03E93FF9F4DAA797ED6E38ED64BF6A1F01 PUSH1 0x40 SHL DUP4 LT PUSH2 0x2C5A JUMPI PUSH19 0x184F03E93FF9F4DAA797ED6E38ED64BF6A1F01 PUSH1 0x40 SHL DUP4 DIV SWAP3 POP PUSH1 0x40 ADD JUMPDEST PUSH14 0x4EE2D6D415B85ACEF8100000000 DUP4 LT PUSH2 0x2C86 JUMPI PUSH14 0x4EE2D6D415B85ACEF8100000000 DUP4 DIV SWAP3 POP PUSH1 0x20 ADD JUMPDEST PUSH7 0x2386F26FC10000 DUP4 LT PUSH2 0x2CA4 JUMPI PUSH7 0x2386F26FC10000 DUP4 DIV SWAP3 POP PUSH1 0x10 ADD JUMPDEST PUSH4 0x5F5E100 DUP4 LT PUSH2 0x2CBC JUMPI PUSH4 0x5F5E100 DUP4 DIV SWAP3 POP PUSH1 0x8 ADD JUMPDEST PUSH2 0x2710 DUP4 LT PUSH2 0x2CD0 JUMPI PUSH2 0x2710 DUP4 DIV SWAP3 POP PUSH1 0x4 ADD JUMPDEST PUSH1 0x64 DUP4 LT PUSH2 0x2CE2 JUMPI PUSH1 0x64 DUP4 DIV SWAP3 POP PUSH1 0x2 ADD JUMPDEST PUSH1 0xA DUP4 LT PUSH2 0x823 JUMPI PUSH1 0x1 ADD SWAP3 SWAP2 POP POP JUMP JUMPDEST PUSH1 0x0 PUSH1 0x1 PUSH1 0x1 PUSH1 0xE0 SHL SUB NOT DUP3 AND PUSH4 0x80AC58CD PUSH1 0xE0 SHL EQ DUP1 PUSH2 0x2D24 JUMPI POP PUSH1 0x1 PUSH1 0x1 PUSH1 0xE0 SHL SUB NOT DUP3 AND PUSH4 0x5B5E139F PUSH1 0xE0 SHL EQ JUMPDEST DUP1 PUSH2 0x823 JUMPI POP PUSH4 0x1FFC9A7 PUSH1 0xE0 SHL PUSH1 0x1 PUSH1 0x1 PUSH1 0xE0 SHL SUB NOT DUP4 AND EQ PUSH2 0x823 JUMP JUMPDEST PUSH1 0x0 PUSH2 0x2D4D PUSH2 0x1EF5 JUMP JUMPDEST SLOAD PUSH1 0x1 PUSH1 0x40 SHL SWAP1 DIV PUSH1 0xFF AND SWAP2 SWAP1 POP JUMP JUMPDEST PUSH2 0x2D68 DUP4 DUP4 DUP4 PUSH2 0x2DC1 JUMP JUMPDEST PUSH2 0x83E JUMPI PUSH1 0x1 PUSH1 0x1 PUSH1 0xA0 SHL SUB DUP4 AND PUSH2 0x2D96 JUMPI PUSH1 0x40 MLOAD PUSH4 0x7E273289 PUSH1 0xE0 SHL DUP2 MSTORE PUSH1 0x4 DUP2 ADD DUP3 SWAP1 MSTORE PUSH1 0x24 ADD PUSH2 0xC4E JUMP JUMPDEST PUSH1 0x40 MLOAD PUSH4 0x177E802F PUSH1 0xE0 SHL DUP2 MSTORE PUSH1 0x1 PUSH1 0x1 PUSH1 0xA0 SHL SUB DUP4 AND PUSH1 0x4 DUP3 ADD MSTORE PUSH1 0x24 DUP2 ADD DUP3 SWAP1 MSTORE PUSH1 0x44 ADD PUSH2 0xC4E JUMP JUMPDEST PUSH1 0x0 PUSH1 0x1 PUSH1 0x1 PUSH1 0xA0 SHL SUB DUP4 AND ISZERO DUP1 ISZERO SWAP1 PUSH2 0x2E1F JUMPI POP DUP3 PUSH1 0x1 PUSH1 0x1 PUSH1 0xA0 SHL SUB AND DUP5 PUSH1 0x1 PUSH1 0x1 PUSH1 0xA0 SHL SUB AND EQ DUP1 PUSH2 0x2DFB JUMPI POP PUSH2 0x2DFB DUP5 DUP5 PUSH2 0x1B77 JUMP JUMPDEST DUP1 PUSH2 0x2E1F JUMPI POP DUP3 PUSH1 0x1 PUSH1 0x1 PUSH1 0xA0 SHL SUB AND PUSH2 0x2E14 DUP4 PUSH2 0x1EAE JUMP JUMPDEST PUSH1 0x1 PUSH1 0x1 PUSH1 0xA0 SHL SUB AND EQ JUMPDEST SWAP5 SWAP4 POP POP POP POP JUMP JUMPDEST PUSH1 0x1 PUSH1 0x1 PUSH1 0xE0 SHL SUB NOT DUP2 AND DUP2 EQ PUSH2 0xF4C JUMPI PUSH1 0x0 DUP1 REVERT JUMPDEST PUSH1 0x0 PUSH1 0x20 DUP3 DUP5 SUB SLT ISZERO PUSH2 0x2E4F JUMPI PUSH1 0x0 DUP1 REVERT JUMPDEST DUP2 CALLDATALOAD PUSH2 0x19D2 DUP2 PUSH2 0x2E27 JUMP JUMPDEST DUP1 CALLDATALOAD PUSH1 0x1 PUSH1 0x1 PUSH1 0xA0 SHL SUB DUP2 AND DUP2 EQ PUSH2 0x2E71 JUMPI PUSH1 0x0 DUP1 REVERT JUMPDEST SWAP2 SWAP1 POP JUMP JUMPDEST DUP1 CALLDATALOAD PUSH1 0x1 PUSH1 0x1 PUSH1 0x60 SHL SUB DUP2 AND DUP2 EQ PUSH2 0x2E71 JUMPI PUSH1 0x0 DUP1 REVERT JUMPDEST PUSH1 0x0 DUP1 PUSH1 0x40 DUP4 DUP6 SUB SLT ISZERO PUSH2 0x2EA0 JUMPI PUSH1 0x0 DUP1 REVERT JUMPDEST PUSH2 0x2EA9 DUP4 PUSH2 0x2E5A JUMP JUMPDEST SWAP2 POP PUSH2 0x2EB7 PUSH1 0x20 DUP5 ADD PUSH2 0x2E76 JUMP JUMPDEST SWAP1 POP SWAP3 POP SWAP3 SWAP1 POP JUMP JUMPDEST PUSH1 0x0 JUMPDEST DUP4 DUP2 LT ISZERO PUSH2 0x2EDB JUMPI DUP2 DUP2 ADD MLOAD DUP4 DUP3 ADD MSTORE PUSH1 0x20 ADD PUSH2 0x2EC3 JUMP JUMPDEST POP POP PUSH1 0x0 SWAP2 ADD MSTORE JUMP JUMPDEST PUSH1 0x0 DUP2 MLOAD DUP1 DUP5 MSTORE PUSH2 0x2EFC DUP2 PUSH1 0x20 DUP7 ADD PUSH1 0x20 DUP7 ADD PUSH2 0x2EC0 JUMP JUMPDEST PUSH1 0x1F ADD PUSH1 0x1F NOT AND SWAP3 SWAP1 SWAP3 ADD PUSH1 0x20 ADD SWAP3 SWAP2 POP POP JUMP JUMPDEST PUSH1 0x20 DUP2 MSTORE PUSH1 0x0 PUSH2 0x19D2 PUSH1 0x20 DUP4 ADD DUP5 PUSH2 0x2EE4 JUMP JUMPDEST PUSH1 0x0 PUSH1 0x20 DUP3 DUP5 SUB SLT ISZERO PUSH2 0x2F35 JUMPI PUSH1 0x0 DUP1 REVERT JUMPDEST POP CALLDATALOAD SWAP2 SWAP1 POP JUMP JUMPDEST PUSH1 0x0 DUP1 PUSH1 0x40 DUP4 DUP6 SUB SLT ISZERO PUSH2 0x2F4F JUMPI PUSH1 0x0 DUP1 REVERT JUMPDEST PUSH2 0x2F58 DUP4 PUSH2 0x2E5A JUMP JUMPDEST SWAP5 PUSH1 0x20 SWAP4 SWAP1 SWAP4 ADD CALLDATALOAD SWAP4 POP POP POP JUMP JUMPDEST PUSH4 0x4E487B71 PUSH1 0xE0 SHL PUSH1 0x0 MSTORE PUSH1 0x41 PUSH1 0x4 MSTORE PUSH1 0x24 PUSH1 0x0 REVERT JUMPDEST PUSH1 0x40 MLOAD PUSH1 0x1F DUP3 ADD PUSH1 0x1F NOT AND DUP2 ADD PUSH1 0x1 PUSH1 0x1 PUSH1 0x40 SHL SUB DUP2 GT DUP3 DUP3 LT OR ISZERO PUSH2 0x2FA4 JUMPI PUSH2 0x2FA4 PUSH2 0x2F66 JUMP JUMPDEST PUSH1 0x40 MSTORE SWAP2 SWAP1 POP JUMP JUMPDEST PUSH1 0x0 PUSH1 0x1 PUSH1 0x1 PUSH1 0x40 SHL SUB DUP4 GT ISZERO PUSH2 0x2FC5 JUMPI PUSH2 0x2FC5 PUSH2 0x2F66 JUMP JUMPDEST PUSH2 0x2FD8 PUSH1 0x1F DUP5 ADD PUSH1 0x1F NOT AND PUSH1 0x20 ADD PUSH2 0x2F7C JUMP JUMPDEST SWAP1 POP DUP3 DUP2 MSTORE DUP4 DUP4 DUP4 ADD GT ISZERO PUSH2 0x2FEC JUMPI PUSH1 0x0 DUP1 REVERT JUMPDEST DUP3 DUP3 PUSH1 0x20 DUP4 ADD CALLDATACOPY PUSH1 0x0 PUSH1 0x20 DUP5 DUP4 ADD ADD MSTORE SWAP4 SWAP3 POP POP POP JUMP JUMPDEST PUSH1 0x0 DUP3 PUSH1 0x1F DUP4 ADD SLT PUSH2 0x3014 JUMPI PUSH1 0x0 DUP1 REVERT JUMPDEST PUSH2 0x19D2 DUP4 DUP4 CALLDATALOAD PUSH1 0x20 DUP6 ADD PUSH2 0x2FAC JUMP JUMPDEST DUP1 CALLDATALOAD PUSH1 0x1 PUSH1 0x1 PUSH1 0x40 SHL SUB DUP2 AND DUP2 EQ PUSH2 0x2E71 JUMPI PUSH1 0x0 DUP1 REVERT JUMPDEST PUSH1 0x0 DUP1 PUSH1 0x0 DUP1 PUSH1 0x0 DUP1 PUSH1 0x0 DUP1 PUSH2 0x100 DUP10 DUP12 SUB SLT ISZERO PUSH2 0x3057 JUMPI PUSH1 0x0 DUP1 REVERT JUMPDEST PUSH2 0x3060 DUP10 PUSH2 0x2E5A JUMP JUMPDEST SWAP8 POP PUSH2 0x306E PUSH1 0x20 DUP11 ADD PUSH2 0x2E5A JUMP JUMPDEST SWAP7 POP PUSH2 0x307C PUSH1 0x40 DUP11 ADD PUSH2 0x2E5A JUMP JUMPDEST SWAP6 POP PUSH2 0x308A PUSH1 0x60 DUP11 ADD PUSH2 0x2E5A JUMP JUMPDEST SWAP5 POP PUSH2 0x3098 PUSH1 0x80 DUP11 ADD PUSH2 0x2E5A JUMP JUMPDEST SWAP4 POP PUSH1 0xA0 DUP10 ADD CALLDATALOAD PUSH1 0x1 PUSH1 0x1 PUSH1 0x40 SHL SUB DUP1 DUP3 GT ISZERO PUSH2 0x30B4 JUMPI PUSH1 0x0 DUP1 REVERT JUMPDEST PUSH2 0x30C0 DUP13 DUP4 DUP14 ADD PUSH2 0x3003 JUMP JUMPDEST SWAP5 POP PUSH1 0xC0 DUP12 ADD CALLDATALOAD SWAP2 POP DUP1 DUP3 GT ISZERO PUSH2 0x30D6 JUMPI PUSH1 0x0 DUP1 REVERT JUMPDEST POP PUSH2 0x30E3 DUP12 DUP3 DUP13 ADD PUSH2 0x3003 JUMP JUMPDEST SWAP3 POP POP PUSH2 0x30F2 PUSH1 0xE0 DUP11 ADD PUSH2 0x3023 JUMP JUMPDEST SWAP1 POP SWAP3 SWAP6 SWAP9 POP SWAP3 SWAP6 SWAP9 SWAP1 SWAP4 SWAP7 POP JUMP JUMPDEST PUSH1 0x0 DUP1 PUSH1 0x40 DUP4 DUP6 SUB SLT ISZERO PUSH2 0x3114 JUMPI PUSH1 0x0 DUP1 REVERT JUMPDEST PUSH2 0x311D DUP4 PUSH2 0x2E5A JUMP JUMPDEST SWAP2 POP PUSH1 0x20 DUP4 ADD CALLDATALOAD DUP1 ISZERO ISZERO DUP2 EQ PUSH2 0x3132 JUMPI PUSH1 0x0 DUP1 REVERT JUMPDEST DUP1 SWAP2 POP POP SWAP3 POP SWAP3 SWAP1 POP JUMP JUMPDEST PUSH1 0x0 DUP1 DUP4 PUSH1 0x1F DUP5 ADD SLT PUSH2 0x314F JUMPI PUSH1 0x0 DUP1 REVERT JUMPDEST POP DUP2 CALLDATALOAD PUSH1 0x1 PUSH1 0x1 PUSH1 0x40 SHL SUB DUP2 GT ISZERO PUSH2 0x3166 JUMPI PUSH1 0x0 DUP1 REVERT JUMPDEST PUSH1 0x20 DUP4 ADD SWAP2 POP DUP4 PUSH1 0x20 DUP3 PUSH1 0x5 SHL DUP6 ADD ADD GT ISZERO PUSH2 0xED6 JUMPI PUSH1 0x0 DUP1 REVERT JUMPDEST PUSH1 0x0 DUP1 PUSH1 0x0 DUP1 PUSH1 0x40 DUP6 DUP8 SUB SLT ISZERO PUSH2 0x3197 JUMPI PUSH1 0x0 DUP1 REVERT JUMPDEST DUP5 CALLDATALOAD PUSH1 0x1 PUSH1 0x1 PUSH1 0x40 SHL SUB DUP1 DUP3 GT ISZERO PUSH2 0x31AE JUMPI PUSH1 0x0 DUP1 REVERT JUMPDEST PUSH2 0x31BA DUP9 DUP4 DUP10 ADD PUSH2 0x313D JUMP JUMPDEST SWAP1 SWAP7 POP SWAP5 POP PUSH1 0x20 DUP8 ADD CALLDATALOAD SWAP2 POP DUP1 DUP3 GT ISZERO PUSH2 0x31D3 JUMPI PUSH1 0x0 DUP1 REVERT JUMPDEST POP PUSH2 0x31E0 DUP8 DUP3 DUP9 ADD PUSH2 0x313D JUMP JUMPDEST SWAP6 SWAP9 SWAP5 SWAP8 POP SWAP6 POP POP POP POP JUMP JUMPDEST PUSH1 0x0 PUSH1 0x20 DUP3 DUP5 SUB SLT ISZERO PUSH2 0x31FE JUMPI PUSH1 0x0 DUP1 REVERT JUMPDEST PUSH2 0x19D2 DUP3 PUSH2 0x3023 JUMP JUMPDEST PUSH1 0x0 DUP1 PUSH1 0x0 PUSH1 0x60 DUP5 DUP7 SUB SLT ISZERO PUSH2 0x321C JUMPI PUSH1 0x0 DUP1 REVERT JUMPDEST PUSH2 0x3225 DUP5 PUSH2 0x2E5A JUMP JUMPDEST SWAP3 POP PUSH2 0x3233 PUSH1 0x20 DUP6 ADD PUSH2 0x2E5A JUMP JUMPDEST SWAP2 POP PUSH1 0x40 DUP5 ADD CALLDATALOAD SWAP1 POP SWAP3 POP SWAP3 POP SWAP3 JUMP JUMPDEST PUSH1 0x0 DUP1 PUSH1 0x40 DUP4 DUP6 SUB SLT ISZERO PUSH2 0x3256 JUMPI PUSH1 0x0 DUP1 REVERT JUMPDEST POP POP DUP1 CALLDATALOAD SWAP3 PUSH1 0x20 SWAP1 SWAP2 ADD CALLDATALOAD SWAP2 POP JUMP JUMPDEST PUSH1 0x0 DUP1 PUSH1 0x40 DUP4 DUP6 SUB SLT ISZERO PUSH2 0x3278 JUMPI PUSH1 0x0 DUP1 REVERT JUMPDEST DUP3 CALLDATALOAD SWAP2 POP PUSH2 0x2EB7 PUSH1 0x20 DUP5 ADD PUSH2 0x2E5A JUMP JUMPDEST PUSH1 0x0 PUSH1 0x20 DUP3 DUP5 SUB SLT ISZERO PUSH2 0x329A JUMPI PUSH1 0x0 DUP1 REVERT JUMPDEST PUSH2 0x19D2 DUP3 PUSH2 0x2E5A JUMP JUMPDEST PUSH1 0x0 PUSH1 0x20 DUP3 DUP5 SUB SLT ISZERO PUSH2 0x32B5 JUMPI PUSH1 0x0 DUP1 REVERT JUMPDEST DUP2 CALLDATALOAD PUSH1 0x1 PUSH1 0x1 PUSH1 0x40 SHL SUB DUP2 GT ISZERO PUSH2 0x32CB JUMPI PUSH1 0x0 DUP1 REVERT JUMPDEST PUSH2 0x2E1F DUP5 DUP3 DUP6 ADD PUSH2 0x3003 JUMP JUMPDEST PUSH1 0x0 DUP1 PUSH1 0x0 PUSH1 0x60 DUP5 DUP7 SUB SLT ISZERO PUSH2 0x32EC JUMPI PUSH1 0x0 DUP1 REVERT JUMPDEST DUP4 CALLDATALOAD SWAP3 POP PUSH2 0x32FC PUSH1 0x20 DUP6 ADD PUSH2 0x2E5A JUMP JUMPDEST SWAP2 POP PUSH2 0x330A PUSH1 0x40 DUP6 ADD PUSH2 0x2E76 JUMP JUMPDEST SWAP1 POP SWAP3 POP SWAP3 POP SWAP3 JUMP JUMPDEST PUSH1 0x0 DUP1 PUSH1 0x0 PUSH1 0x60 DUP5 DUP7 SUB SLT ISZERO PUSH2 0x3328 JUMPI PUSH1 0x0 DUP1 REVERT JUMPDEST PUSH2 0x3331 DUP5 PUSH2 0x2E5A JUMP JUMPDEST SWAP6 PUSH1 0x20 DUP6 ADD CALLDATALOAD SWAP6 POP PUSH1 0x40 SWAP1 SWAP5 ADD CALLDATALOAD SWAP4 SWAP3 POP POP POP JUMP JUMPDEST PUSH1 0x0 PUSH1 0x1 PUSH1 0x1 PUSH1 0x40 SHL SUB DUP3 GT ISZERO PUSH2 0x335F JUMPI PUSH2 0x335F PUSH2 0x2F66 JUMP JUMPDEST POP PUSH1 0x5 SHL PUSH1 0x20 ADD SWAP1 JUMP JUMPDEST PUSH1 0x0 DUP3 PUSH1 0x1F DUP4 ADD SLT PUSH2 0x337A JUMPI PUSH1 0x0 DUP1 REVERT JUMPDEST DUP2 CALLDATALOAD PUSH1 0x20 PUSH2 0x338F PUSH2 0x338A DUP4 PUSH2 0x3346 JUMP JUMPDEST PUSH2 0x2F7C JUMP JUMPDEST DUP1 DUP4 DUP3 MSTORE PUSH1 0x20 DUP3 ADD SWAP2 POP PUSH1 0x20 DUP5 PUSH1 0x5 SHL DUP8 ADD ADD SWAP4 POP DUP7 DUP5 GT ISZERO PUSH2 0x33B1 JUMPI PUSH1 0x0 DUP1 REVERT JUMPDEST PUSH1 0x20 DUP7 ADD JUMPDEST DUP5 DUP2 LT ISZERO PUSH2 0x33CD JUMPI DUP1 CALLDATALOAD DUP4 MSTORE SWAP2 DUP4 ADD SWAP2 DUP4 ADD PUSH2 0x33B6 JUMP JUMPDEST POP SWAP7 SWAP6 POP POP POP POP POP POP JUMP JUMPDEST PUSH1 0x0 DUP1 PUSH1 0x0 PUSH1 0x60 DUP5 DUP7 SUB SLT ISZERO PUSH2 0x33ED JUMPI PUSH1 0x0 DUP1 REVERT JUMPDEST DUP4 CALLDATALOAD PUSH1 0x1 PUSH1 0x1 PUSH1 0x40 SHL SUB DUP1 DUP3 GT ISZERO PUSH2 0x3404 JUMPI PUSH1 0x0 DUP1 REVERT JUMPDEST DUP2 DUP7 ADD SWAP2 POP DUP7 PUSH1 0x1F DUP4 ADD SLT PUSH2 0x3418 JUMPI PUSH1 0x0 DUP1 REVERT JUMPDEST DUP2 CALLDATALOAD PUSH1 0x20 PUSH2 0x3428 PUSH2 0x338A DUP4 PUSH2 0x3346 JUMP JUMPDEST DUP3 DUP2 MSTORE PUSH1 0x5 SWAP3 SWAP1 SWAP3 SHL DUP5 ADD DUP2 ADD SWAP2 DUP2 DUP2 ADD SWAP1 DUP11 DUP5 GT ISZERO PUSH2 0x3447 JUMPI PUSH1 0x0 DUP1 REVERT JUMPDEST SWAP5 DUP3 ADD SWAP5 JUMPDEST DUP4 DUP7 LT ISZERO PUSH2 0x346C JUMPI PUSH2 0x345D DUP7 PUSH2 0x2E5A JUMP JUMPDEST DUP3 MSTORE SWAP5 DUP3 ADD SWAP5 SWAP1 DUP3 ADD SWAP1 PUSH2 0x344C JUMP JUMPDEST SWAP8 POP POP DUP8 ADD CALLDATALOAD SWAP3 POP POP DUP1 DUP3 GT ISZERO PUSH2 0x3482 JUMPI PUSH1 0x0 DUP1 REVERT JUMPDEST PUSH2 0x348E DUP8 DUP4 DUP9 ADD PUSH2 0x3369 JUMP JUMPDEST SWAP4 POP PUSH1 0x40 DUP7 ADD CALLDATALOAD SWAP2 POP DUP1 DUP3 GT ISZERO PUSH2 0x34A4 JUMPI PUSH1 0x0 DUP1 REVERT JUMPDEST POP PUSH2 0x34B1 DUP7 DUP3 DUP8 ADD PUSH2 0x3369 JUMP JUMPDEST SWAP2 POP POP SWAP3 POP SWAP3 POP SWAP3 JUMP JUMPDEST PUSH1 0x0 DUP1 PUSH1 0x0 DUP1 PUSH1 0x80 DUP6 DUP8 SUB SLT ISZERO PUSH2 0x34D1 JUMPI PUSH1 0x0 DUP1 REVERT JUMPDEST PUSH2 0x34DA DUP6 PUSH2 0x2E5A JUMP JUMPDEST SWAP4 POP PUSH2 0x34E8 PUSH1 0x20 DUP7 ADD PUSH2 0x2E5A JUMP JUMPDEST SWAP3 POP PUSH1 0x40 DUP6 ADD CALLDATALOAD SWAP2 POP PUSH1 0x60 DUP6 ADD CALLDATALOAD PUSH1 0x1 PUSH1 0x1 PUSH1 0x40 SHL SUB DUP2 GT ISZERO PUSH2 0x350A JUMPI PUSH1 0x0 DUP1 REVERT JUMPDEST DUP6 ADD PUSH1 0x1F DUP2 ADD DUP8 SGT PUSH2 0x351B JUMPI PUSH1 0x0 DUP1 REVERT JUMPDEST PUSH2 0x352A DUP8 DUP3 CALLDATALOAD PUSH1 0x20 DUP5 ADD PUSH2 0x2FAC JUMP JUMPDEST SWAP2 POP POP SWAP3 SWAP6 SWAP2 SWAP5 POP SWAP3 POP JUMP JUMPDEST PUSH1 0x0 PUSH1 0x20 DUP3 DUP5 SUB SLT ISZERO PUSH2 0x3548 JUMPI PUSH1 0x0 DUP1 REVERT JUMPDEST DUP2 CALLDATALOAD PUSH1 0x1 PUSH1 0x1 PUSH1 0x40 SHL SUB DUP2 GT ISZERO PUSH2 0x355E JUMPI PUSH1 0x0 DUP1 REVERT JUMPDEST PUSH2 0x2E1F DUP5 DUP3 DUP6 ADD PUSH2 0x3369 JUMP JUMPDEST PUSH1 0x0 DUP1 PUSH1 0x40 DUP4 DUP6 SUB SLT ISZERO PUSH2 0x357D JUMPI PUSH1 0x0 DUP1 REVERT JUMPDEST PUSH2 0x3586 DUP4 PUSH2 0x2E5A JUMP JUMPDEST SWAP2 POP PUSH2 0x2EB7 PUSH1 0x20 DUP5 ADD PUSH2 0x2E5A JUMP JUMPDEST PUSH1 0x0 DUP1 PUSH1 0x40 DUP4 DUP6 SUB SLT ISZERO PUSH2 0x35A7 JUMPI PUSH1 0x0 DUP1 REVERT JUMPDEST PUSH2 0x35B0 DUP4 PUSH2 0x2E5A JUMP JUMPDEST SWAP2 POP PUSH1 0x20 DUP4 ADD CALLDATALOAD PUSH1 0x1 PUSH1 0x1 PUSH1 0x40 SHL SUB DUP2 GT ISZERO PUSH2 0x35CB JUMPI PUSH1 0x0 DUP1 REVERT JUMPDEST PUSH2 0x35D7 DUP6 DUP3 DUP7 ADD PUSH2 0x3369 JUMP JUMPDEST SWAP2 POP POP SWAP3 POP SWAP3 SWAP1 POP JUMP JUMPDEST PUSH1 0x1 DUP2 DUP2 SHR SWAP1 DUP3 AND DUP1 PUSH2 0x35F5 JUMPI PUSH1 0x7F DUP3 AND SWAP2 POP JUMPDEST PUSH1 0x20 DUP3 LT DUP2 SUB PUSH2 0x3615 JUMPI PUSH4 0x4E487B71 PUSH1 0xE0 SHL PUSH1 0x0 MSTORE PUSH1 0x22 PUSH1 0x4 MSTORE PUSH1 0x24 PUSH1 0x0 REVERT JUMPDEST POP SWAP2 SWAP1 POP JUMP JUMPDEST PUSH4 0x4E487B71 PUSH1 0xE0 SHL PUSH1 0x0 MSTORE PUSH1 0x32 PUSH1 0x4 MSTORE PUSH1 0x24 PUSH1 0x0 REVERT JUMPDEST DUP2 DUP4 MSTORE PUSH1 0x0 PUSH1 0x20 DUP1 DUP6 ADD SWAP5 POP DUP3 PUSH1 0x0 JUMPDEST DUP6 DUP2 LT ISZERO PUSH2 0x366D JUMPI PUSH1 0x1 PUSH1 0x1 PUSH1 0xA0 SHL SUB PUSH2 0x365A DUP4 PUSH2 0x2E5A JUMP JUMPDEST AND DUP8 MSTORE SWAP6 DUP3 ADD SWAP6 SWAP1 DUP3 ADD SWAP1 PUSH1 0x1 ADD PUSH2 0x3641 JUMP JUMPDEST POP SWAP5 SWAP6 SWAP5 POP POP POP POP POP JUMP JUMPDEST DUP2 DUP4 MSTORE PUSH1 0x0 PUSH1 0x1 PUSH1 0x1 PUSH1 0xFB SHL SUB DUP4 GT ISZERO PUSH2 0x3691 JUMPI PUSH1 0x0 DUP1 REVERT JUMPDEST DUP3 PUSH1 0x5 SHL DUP1 DUP4 PUSH1 0x20 DUP8 ADD CALLDATACOPY SWAP4 SWAP1 SWAP4 ADD PUSH1 0x20 ADD SWAP4 SWAP3 POP POP POP JUMP JUMPDEST PUSH1 0x60 DUP2 MSTORE PUSH1 0x0 PUSH2 0x36BE PUSH1 0x60 DUP4 ADD DUP8 DUP10 PUSH2 0x3631 JUMP JUMPDEST DUP3 DUP2 SUB PUSH1 0x20 DUP5 ADD MSTORE PUSH2 0x36D1 DUP2 DUP7 DUP9 PUSH2 0x3678 JUMP JUMPDEST SWAP2 POP POP PUSH1 0x1 PUSH1 0x1 PUSH1 0x40 SHL SUB DUP4 AND PUSH1 0x40 DUP4 ADD MSTORE SWAP7 SWAP6 POP POP POP POP POP POP JUMP JUMPDEST PUSH4 0x4E487B71 PUSH1 0xE0 SHL PUSH1 0x0 MSTORE PUSH1 0x11 PUSH1 0x4 MSTORE PUSH1 0x24 PUSH1 0x0 REVERT JUMPDEST DUP1 DUP3 MUL DUP2 ISZERO DUP3 DUP3 DIV DUP5 EQ OR PUSH2 0x823 JUMPI PUSH2 0x823 PUSH2 0x36ED JUMP JUMPDEST PUSH1 0x0 DUP3 PUSH2 0x3737 JUMPI PUSH4 0x4E487B71 PUSH1 0xE0 SHL PUSH1 0x0 MSTORE PUSH1 0x12 PUSH1 0x4 MSTORE PUSH1 0x24 PUSH1 0x0 REVERT JUMPDEST POP DIV SWAP1 JUMP JUMPDEST PUSH1 0x1F DUP3 GT ISZERO PUSH2 0x83E JUMPI PUSH1 0x0 DUP2 PUSH1 0x0 MSTORE PUSH1 0x20 PUSH1 0x0 KECCAK256 PUSH1 0x1F DUP6 ADD PUSH1 0x5 SHR DUP2 ADD PUSH1 0x20 DUP7 LT ISZERO PUSH2 0x3765 JUMPI POP DUP1 JUMPDEST PUSH1 0x1F DUP6 ADD PUSH1 0x5 SHR DUP3 ADD SWAP2 POP JUMPDEST DUP2 DUP2 LT ISZERO PUSH2 0x26B5 JUMPI DUP3 DUP2 SSTORE PUSH1 0x1 ADD PUSH2 0x3771 JUMP JUMPDEST DUP2 MLOAD PUSH1 0x1 PUSH1 0x1 PUSH1 0x40 SHL SUB DUP2 GT ISZERO PUSH2 0x379D JUMPI PUSH2 0x379D PUSH2 0x2F66 JUMP JUMPDEST PUSH2 0x37B1 DUP2 PUSH2 0x37AB DUP5 SLOAD PUSH2 0x35E1 JUMP JUMPDEST DUP5 PUSH2 0x373C JUMP JUMPDEST PUSH1 0x20 DUP1 PUSH1 0x1F DUP4 GT PUSH1 0x1 DUP2 EQ PUSH2 0x37E6 JUMPI PUSH1 0x0 DUP5 ISZERO PUSH2 0x37CE JUMPI POP DUP6 DUP4 ADD MLOAD JUMPDEST PUSH1 0x0 NOT PUSH1 0x3 DUP7 SWAP1 SHL SHR NOT AND PUSH1 0x1 DUP6 SWAP1 SHL OR DUP6 SSTORE PUSH2 0x26B5 JUMP JUMPDEST PUSH1 0x0 DUP6 DUP2 MSTORE PUSH1 0x20 DUP2 KECCAK256 PUSH1 0x1F NOT DUP7 AND SWAP2 JUMPDEST DUP3 DUP2 LT ISZERO PUSH2 0x3815 JUMPI DUP9 DUP7 ADD MLOAD DUP3 SSTORE SWAP5 DUP5 ADD SWAP5 PUSH1 0x1 SWAP1 SWAP2 ADD SWAP1 DUP5 ADD PUSH2 0x37F6 JUMP JUMPDEST POP DUP6 DUP3 LT ISZERO PUSH2 0x3833 JUMPI DUP8 DUP6 ADD MLOAD PUSH1 0x0 NOT PUSH1 0x3 DUP9 SWAP1 SHL PUSH1 0xF8 AND SHR NOT AND DUP2 SSTORE JUMPDEST POP POP POP POP POP PUSH1 0x1 SWAP1 DUP2 SHL ADD SWAP1 SSTORE POP JUMP JUMPDEST PUSH1 0x0 DUP2 MLOAD DUP1 DUP5 MSTORE PUSH1 0x20 DUP1 DUP6 ADD SWAP5 POP PUSH1 0x20 DUP5 ADD PUSH1 0x0 JUMPDEST DUP4 DUP2 LT ISZERO PUSH2 0x366D JUMPI DUP2 MLOAD DUP8 MSTORE SWAP6 DUP3 ADD SWAP6 SWAP1 DUP3 ADD SWAP1 PUSH1 0x1 ADD PUSH2 0x3858 JUMP JUMPDEST PUSH1 0x80 DUP2 MSTORE PUSH1 0x0 PUSH2 0x3888 PUSH1 0x80 DUP4 ADD DUP9 DUP11 PUSH2 0x3631 JUMP JUMPDEST DUP3 DUP2 SUB PUSH1 0x20 DUP5 ADD MSTORE PUSH2 0x389A DUP2 DUP9 PUSH2 0x3843 JUMP JUMPDEST SWAP1 POP DUP3 DUP2 SUB PUSH1 0x40 DUP5 ADD MSTORE PUSH2 0x38AF DUP2 DUP7 DUP9 PUSH2 0x3678 JUMP JUMPDEST SWAP2 POP POP PUSH1 0x1 PUSH1 0x1 PUSH1 0x40 SHL SUB DUP4 AND PUSH1 0x60 DUP4 ADD MSTORE SWAP8 SWAP7 POP POP POP POP POP POP POP JUMP JUMPDEST PUSH1 0xA0 DUP1 DUP3 MSTORE DUP7 MLOAD SWAP1 DUP3 ADD DUP2 SWAP1 MSTORE PUSH1 0x0 SWAP1 PUSH1 0x20 SWAP1 PUSH1 0xC0 DUP5 ADD SWAP1 DUP3 DUP11 ADD DUP5 JUMPDEST DUP3 DUP2 LT ISZERO PUSH2 0x390E JUMPI DUP2 MLOAD PUSH1 0x1 PUSH1 0x1 PUSH1 0xA0 SHL SUB AND DUP5 MSTORE SWAP3 DUP5 ADD SWAP3 SWAP1 DUP5 ADD SWAP1 PUSH1 0x1 ADD PUSH2 0x38E9 JUMP JUMPDEST POP POP POP DUP4 DUP2 SUB PUSH1 0x20 DUP6 ADD MSTORE PUSH2 0x3923 DUP2 DUP10 PUSH2 0x3843 JUMP JUMPDEST SWAP2 POP POP DUP3 DUP2 SUB PUSH1 0x40 DUP5 ADD MSTORE PUSH2 0x3938 DUP2 DUP8 PUSH2 0x3843 JUMP JUMPDEST SWAP1 POP DUP3 DUP2 SUB PUSH1 0x60 DUP5 ADD MSTORE PUSH2 0x394C DUP2 DUP7 PUSH2 0x3843 JUMP JUMPDEST SWAP2 POP POP PUSH1 0x1 PUSH1 0x1 PUSH1 0x40 SHL SUB DUP4 AND PUSH1 0x80 DUP4 ADD MSTORE SWAP7 SWAP6 POP POP POP POP POP POP JUMP JUMPDEST PUSH1 0x0 DUP4 MLOAD PUSH2 0x397A DUP2 DUP5 PUSH1 0x20 DUP9 ADD PUSH2 0x2EC0 JUMP JUMPDEST DUP4 MLOAD SWAP1 DUP4 ADD SWAP1 PUSH2 0x398E DUP2 DUP4 PUSH1 0x20 DUP9 ADD PUSH2 0x2EC0 JUMP JUMPDEST PUSH5 0x173539B7B7 PUSH1 0xD9 SHL SWAP2 ADD SWAP1 DUP2 MSTORE PUSH1 0x5 ADD SWAP5 SWAP4 POP POP POP POP JUMP JUMPDEST PUSH1 0x0 PUSH1 0x1 DUP3 ADD PUSH2 0x39B9 JUMPI PUSH2 0x39B9 PUSH2 0x36ED JUMP JUMPDEST POP PUSH1 0x1 ADD SWAP1 JUMP JUMPDEST PUSH1 0x1 PUSH1 0x1 PUSH1 0xA0 SHL SUB DUP6 DUP2 AND DUP3 MSTORE DUP5 AND PUSH1 0x20 DUP3 ADD MSTORE PUSH1 0x40 DUP2 ADD DUP4 SWAP1 MSTORE PUSH1 0x80 PUSH1 0x60 DUP3 ADD DUP2 SWAP1 MSTORE PUSH1 0x0 SWAP1 PUSH2 0x39F3 SWAP1 DUP4 ADD DUP5 PUSH2 0x2EE4 JUMP JUMPDEST SWAP7 SWAP6 POP POP POP POP POP POP JUMP JUMPDEST PUSH1 0x0 PUSH1 0x20 DUP3 DUP5 SUB SLT ISZERO PUSH2 0x3A0F JUMPI PUSH1 0x0 DUP1 REVERT JUMPDEST DUP2 MLOAD PUSH2 0x19D2 DUP2 PUSH2 0x2E27 JUMP JUMPDEST PUSH1 0x1 PUSH1 0x1 PUSH1 0x40 SHL SUB DUP2 DUP2 AND DUP4 DUP3 AND ADD SWAP1 DUP1 DUP3 GT ISZERO PUSH2 0x1020 JUMPI PUSH2 0x1020 PUSH2 0x36ED JUMP INVALID DUP1 0xBB 0x2B PUSH4 0x8CC20BC4 0xD0 0xA6 0xD PUSH7 0x940F3AB4A00C1D PUSH28 0x313497CA82FB0B4AB0079300241ECF16D79D0F8DBFB92CBC07FE1784 DIV 0x25 SWAP8 PUSH13 0xF0667F022FE9877CAA831B0865 0xD7 LOG2 DUP15 ORIGIN PUSH6 0xB37A6474929F CALLER PUSH6 0x21B332C1681B SWAP4 EXTCODEHASH PUSH13 0xB9F3376673440D862A02DD7BC7 0xDE 0xC4 0xDC 0xEE 0xDD 0xA7 PUSH22 0xE58DD541E08A116C6C53815C0BD028192F7B626800CD 0x5E 0xD1 0x5C PUSH15 0x187E77E9AEE88184C21F4F2182AB58 0x27 0xCB EXTCODESIZE PUSH31 0x7FBEDCD63F033007E3A386316E83BCA71CA69A021C153274068560A6C1673 PUSH15 0x8BFCBD1EC5997911A2646970667358 0x22 SLT KECCAK256 PUSH0 SWAP12 CALL DUP6 0xD5 SWAP7 JUMPDEST PUSH28 0x26ED80D1BFA4EB1112D77105D57017F3259073931034BCD864736F6C PUSH4 0x43000817 STOP CALLER "},"methodIdentifiers":{"DEFAULT_ADMIN_ROLE()":"a217fddf","MANAGER_ROLE()":"ec87621c","PAUSER_ROLE()":"e63ab1e9","UPGRADER_ROLE()":"f72c0d8b","approve(address,uint256)":"095ea7b3","balanceOf(address)":"70a08231","batchBurn(uint256[])":"dc8e92ea","batchBurnFrom(address,uint256[])":"f2472965","batchMigrate(address[],uint256[],uint256[])":"a5d0c352","batchMint(address[],uint256[])":"68573107","bridgeMint(address,uint256,uint256)":"827157b3","burn(uint256)":"42966c68","burnFrom(address,uint256)":"79cc6790","getApproved(uint256)":"081812fc","getRoleAdmin(bytes32)":"248a9ca3","getTokenItemID(uint256)":"7dbe4165","getTransferValidationFunction()":"0d705df6","getTransferValidator()":"098144d4","grantRole(bytes32,address)":"2f2ff15d","hasRole(bytes32,address)":"91d14854","initialize(address,address,address,address,address,string,string,uint64)":"0d178d5d","isApprovedForAll(address,address)":"e985e9c5","isBlocklisted(address)":"8e204c43","isTokenRecentlyTransferred(uint256)":"f310f60e","isWhitelisted(address)":"3af32abf","lockDuration()":"04554443","migrate(address,uint256,uint256)":"fc22d0e5","mint(address,uint256)":"40c10f19","name()":"06fdde03","ownerOf(uint256)":"6352211e","pause()":"8456cb59","paused()":"5c975abb","renounceRole(bytes32,address)":"36568abe","resetTokenRoyalty(uint256)":"8a616bc0","revokeRole(bytes32,address)":"d547741f","royaltyInfo(uint256,uint256)":"2a55205a","safeBatchTransfer(address[],uint256[])":"14dc43fc","safeOwnerOf(uint256)":"b6df4906","safeTransfer(address,uint256)":"423f6cef","safeTransferFrom(address,address,uint256)":"42842e0e","safeTransferFrom(address,address,uint256,bytes)":"b88d4fde","setApprovalForAll(address,bool)":"a22cb465","setBaseURI(string)":"55f804b3","setRoyaltyInfo(address,uint96)":"02fa7c47","setTokenRoyalty(uint256,address,uint96)":"5944c753","setTransferValidator(address)":"a9fc664e","supportsInterface(bytes4)":"01ffc9a7","symbol()":"95d89b41","tcgBaseURI()":"684c655a","tokenURI(uint256)":"c87b56dd","transferFrom(address,address,uint256)":"23b872dd","unpause()":"3f4ba83a","updateBlockListStatus(address,bool)":"ce974193","updateLockDuration(uint64)":"2069c98f","updateWhitelist(address,bool)":"0d392cd9"}},"storageLayout":{"storage":[{"astId":8015,"contract":"contracts/base/BaseERC721_updated.sol:TCG_World_Plots_Updated","label":"_transferValidator","offset":0,"slot":"0","type":"t_address"},{"astId":8017,"contract":"contracts/base/BaseERC721_updated.sol:TCG_World_Plots_Updated","label":"tcgBaseURI","offset":0,"slot":"1","type":"t_string_storage"},{"astId":8019,"contract":"contracts/base/BaseERC721_updated.sol:TCG_World_Plots_Updated","label":"tokenIdCounter","offset":0,"slot":"2","type":"t_uint256"},{"astId":8021,"contract":"contracts/base/BaseERC721_updated.sol:TCG_World_Plots_Updated","label":"lockDuration","offset":0,"slot":"3","type":"t_uint64"},{"astId":8025,"contract":"contracts/base/BaseERC721_updated.sol:TCG_World_Plots_Updated","label":"_blocklist","offset":0,"slot":"4","type":"t_mapping(t_address,t_bool)"},{"astId":8029,"contract":"contracts/base/BaseERC721_updated.sol:TCG_World_Plots_Updated","label":"_whitelist","offset":0,"slot":"5","type":"t_mapping(t_address,t_bool)"},{"astId":8033,"contract":"contracts/base/BaseERC721_updated.sol:TCG_World_Plots_Updated","label":"_lastTransfer","offset":0,"slot":"6","type":"t_mapping(t_uint256,t_uint64)"},{"astId":8037,"contract":"contracts/base/BaseERC721_updated.sol:TCG_World_Plots_Updated","label":"_tokenItemID","offset":0,"slot":"7","type":"t_mapping(t_uint256,t_uint256)"}],"types":{"t_address":{"encoding":"inplace","label":"address","numberOfBytes":"20"},"t_bool":{"encoding":"inplace","label":"bool","numberOfBytes":"1"},"t_mapping(t_address,t_bool)":{"encoding":"mapping","key":"t_address","label":"mapping(address => bool)","numberOfBytes":"32","value":"t_bool"},"t_mapping(t_uint256,t_uint256)":{"encoding":"mapping","key":"t_uint256","label":"mapping(uint256 => uint256)","numberOfBytes":"32","value":"t_uint256"},"t_mapping(t_uint256,t_uint64)":{"encoding":"mapping","key":"t_uint256","label":"mapping(uint256 => uint64)","numberOfBytes":"32","value":"t_uint64"},"t_string_storage":{"encoding":"bytes","label":"string","numberOfBytes":"32"},"t_uint256":{"encoding":"inplace","label":"uint256","numberOfBytes":"32"},"t_uint64":{"encoding":"inplace","label":"uint64","numberOfBytes":"8"}}}}}}